{
	"SportNFT.sol": {
		"SportNft": {
			"abi": [
				{
					"inputs": [],
					"stateMutability": "nonpayable",
					"type": "constructor"
				},
				{
					"inputs": [
						{
							"internalType": "address",
							"name": "sender",
							"type": "address"
						},
						{
							"internalType": "uint256",
							"name": "tokenId",
							"type": "uint256"
						},
						{
							"internalType": "address",
							"name": "owner",
							"type": "address"
						}
					],
					"name": "ERC721IncorrectOwner",
					"type": "error"
				},
				{
					"inputs": [
						{
							"internalType": "address",
							"name": "operator",
							"type": "address"
						},
						{
							"internalType": "uint256",
							"name": "tokenId",
							"type": "uint256"
						}
					],
					"name": "ERC721InsufficientApproval",
					"type": "error"
				},
				{
					"inputs": [
						{
							"internalType": "address",
							"name": "approver",
							"type": "address"
						}
					],
					"name": "ERC721InvalidApprover",
					"type": "error"
				},
				{
					"inputs": [
						{
							"internalType": "address",
							"name": "operator",
							"type": "address"
						}
					],
					"name": "ERC721InvalidOperator",
					"type": "error"
				},
				{
					"inputs": [
						{
							"internalType": "address",
							"name": "owner",
							"type": "address"
						}
					],
					"name": "ERC721InvalidOwner",
					"type": "error"
				},
				{
					"inputs": [
						{
							"internalType": "address",
							"name": "receiver",
							"type": "address"
						}
					],
					"name": "ERC721InvalidReceiver",
					"type": "error"
				},
				{
					"inputs": [
						{
							"internalType": "address",
							"name": "sender",
							"type": "address"
						}
					],
					"name": "ERC721InvalidSender",
					"type": "error"
				},
				{
					"inputs": [
						{
							"internalType": "uint256",
							"name": "tokenId",
							"type": "uint256"
						}
					],
					"name": "ERC721NonexistentToken",
					"type": "error"
				},
				{
					"anonymous": false,
					"inputs": [
						{
							"indexed": true,
							"internalType": "address",
							"name": "owner",
							"type": "address"
						},
						{
							"indexed": true,
							"internalType": "address",
							"name": "approved",
							"type": "address"
						},
						{
							"indexed": true,
							"internalType": "uint256",
							"name": "tokenId",
							"type": "uint256"
						}
					],
					"name": "Approval",
					"type": "event"
				},
				{
					"anonymous": false,
					"inputs": [
						{
							"indexed": true,
							"internalType": "address",
							"name": "owner",
							"type": "address"
						},
						{
							"indexed": true,
							"internalType": "address",
							"name": "operator",
							"type": "address"
						},
						{
							"indexed": false,
							"internalType": "bool",
							"name": "approved",
							"type": "bool"
						}
					],
					"name": "ApprovalForAll",
					"type": "event"
				},
				{
					"anonymous": false,
					"inputs": [
						{
							"indexed": false,
							"internalType": "uint256",
							"name": "_fromTokenId",
							"type": "uint256"
						},
						{
							"indexed": false,
							"internalType": "uint256",
							"name": "_toTokenId",
							"type": "uint256"
						}
					],
					"name": "BatchMetadataUpdate",
					"type": "event"
				},
				{
					"anonymous": false,
					"inputs": [
						{
							"indexed": false,
							"internalType": "uint256",
							"name": "_tokenId",
							"type": "uint256"
						}
					],
					"name": "MetadataUpdate",
					"type": "event"
				},
				{
					"anonymous": false,
					"inputs": [
						{
							"indexed": true,
							"internalType": "address",
							"name": "from",
							"type": "address"
						},
						{
							"indexed": true,
							"internalType": "address",
							"name": "to",
							"type": "address"
						},
						{
							"indexed": true,
							"internalType": "uint256",
							"name": "tokenId",
							"type": "uint256"
						}
					],
					"name": "Transfer",
					"type": "event"
				},
				{
					"inputs": [
						{
							"internalType": "address",
							"name": "to",
							"type": "address"
						},
						{
							"internalType": "uint256",
							"name": "tokenId",
							"type": "uint256"
						}
					],
					"name": "approve",
					"outputs": [],
					"stateMutability": "nonpayable",
					"type": "function"
				},
				{
					"inputs": [
						{
							"internalType": "address",
							"name": "owner",
							"type": "address"
						}
					],
					"name": "balanceOf",
					"outputs": [
						{
							"internalType": "uint256",
							"name": "",
							"type": "uint256"
						}
					],
					"stateMutability": "view",
					"type": "function"
				},
				{
					"inputs": [
						{
							"internalType": "uint256",
							"name": "tokenId",
							"type": "uint256"
						}
					],
					"name": "getApproved",
					"outputs": [
						{
							"internalType": "address",
							"name": "",
							"type": "address"
						}
					],
					"stateMutability": "view",
					"type": "function"
				},
				{
					"inputs": [
						{
							"internalType": "address",
							"name": "owner",
							"type": "address"
						},
						{
							"internalType": "address",
							"name": "operator",
							"type": "address"
						}
					],
					"name": "isApprovedForAll",
					"outputs": [
						{
							"internalType": "bool",
							"name": "",
							"type": "bool"
						}
					],
					"stateMutability": "view",
					"type": "function"
				},
				{
					"inputs": [
						{
							"internalType": "string",
							"name": "tokenURI",
							"type": "string"
						},
						{
							"internalType": "address",
							"name": "mintnft",
							"type": "address"
						}
					],
					"name": "mintNFT",
					"outputs": [
						{
							"internalType": "uint256",
							"name": "",
							"type": "uint256"
						}
					],
					"stateMutability": "nonpayable",
					"type": "function"
				},
				{
					"inputs": [],
					"name": "name",
					"outputs": [
						{
							"internalType": "string",
							"name": "",
							"type": "string"
						}
					],
					"stateMutability": "view",
					"type": "function"
				},
				{
					"inputs": [
						{
							"internalType": "uint256",
							"name": "tokenId",
							"type": "uint256"
						}
					],
					"name": "ownerOf",
					"outputs": [
						{
							"internalType": "address",
							"name": "",
							"type": "address"
						}
					],
					"stateMutability": "view",
					"type": "function"
				},
				{
					"inputs": [
						{
							"internalType": "address",
							"name": "from",
							"type": "address"
						},
						{
							"internalType": "address",
							"name": "to",
							"type": "address"
						},
						{
							"internalType": "uint256",
							"name": "tokenId",
							"type": "uint256"
						}
					],
					"name": "safeTransferFrom",
					"outputs": [],
					"stateMutability": "nonpayable",
					"type": "function"
				},
				{
					"inputs": [
						{
							"internalType": "address",
							"name": "from",
							"type": "address"
						},
						{
							"internalType": "address",
							"name": "to",
							"type": "address"
						},
						{
							"internalType": "uint256",
							"name": "tokenId",
							"type": "uint256"
						},
						{
							"internalType": "bytes",
							"name": "data",
							"type": "bytes"
						}
					],
					"name": "safeTransferFrom",
					"outputs": [],
					"stateMutability": "nonpayable",
					"type": "function"
				},
				{
					"inputs": [
						{
							"internalType": "address",
							"name": "operator",
							"type": "address"
						},
						{
							"internalType": "bool",
							"name": "approved",
							"type": "bool"
						}
					],
					"name": "setApprovalForAll",
					"outputs": [],
					"stateMutability": "nonpayable",
					"type": "function"
				},
				{
					"inputs": [
						{
							"internalType": "string",
							"name": "baseURI",
							"type": "string"
						}
					],
					"name": "setBaseURI",
					"outputs": [],
					"stateMutability": "nonpayable",
					"type": "function"
				},
				{
					"inputs": [
						{
							"internalType": "bytes4",
							"name": "interfaceId",
							"type": "bytes4"
						}
					],
					"name": "supportsInterface",
					"outputs": [
						{
							"internalType": "bool",
							"name": "",
							"type": "bool"
						}
					],
					"stateMutability": "view",
					"type": "function"
				},
				{
					"inputs": [],
					"name": "symbol",
					"outputs": [
						{
							"internalType": "string",
							"name": "",
							"type": "string"
						}
					],
					"stateMutability": "view",
					"type": "function"
				},
				{
					"inputs": [
						{
							"internalType": "uint256",
							"name": "tokenId",
							"type": "uint256"
						}
					],
					"name": "tokenURI",
					"outputs": [
						{
							"internalType": "string",
							"name": "",
							"type": "string"
						}
					],
					"stateMutability": "view",
					"type": "function"
				},
				{
					"inputs": [
						{
							"internalType": "address",
							"name": "from",
							"type": "address"
						},
						{
							"internalType": "address",
							"name": "to",
							"type": "address"
						},
						{
							"internalType": "uint256",
							"name": "tokenId",
							"type": "uint256"
						}
					],
					"name": "transferFrom",
					"outputs": [],
					"stateMutability": "nonpayable",
					"type": "function"
				}
			],
			"devdoc": {
				"errors": {
					"ERC721IncorrectOwner(address,uint256,address)": [
						{
							"details": "Indicates an error related to the ownership over a particular token. Used in transfers.",
							"params": {
								"owner": "Address of the current owner of a token.",
								"sender": "Address whose tokens are being transferred.",
								"tokenId": "Identifier number of a token."
							}
						}
					],
					"ERC721InsufficientApproval(address,uint256)": [
						{
							"details": "Indicates a failure with the `operator`’s approval. Used in transfers.",
							"params": {
								"operator": "Address that may be allowed to operate on tokens without being their owner.",
								"tokenId": "Identifier number of a token."
							}
						}
					],
					"ERC721InvalidApprover(address)": [
						{
							"details": "Indicates a failure with the `approver` of a token to be approved. Used in approvals.",
							"params": {
								"approver": "Address initiating an approval operation."
							}
						}
					],
					"ERC721InvalidOperator(address)": [
						{
							"details": "Indicates a failure with the `operator` to be approved. Used in approvals.",
							"params": {
								"operator": "Address that may be allowed to operate on tokens without being their owner."
							}
						}
					],
					"ERC721InvalidOwner(address)": [
						{
							"details": "Indicates that an address can't be an owner. For example, `address(0)` is a forbidden owner in EIP-20. Used in balance queries.",
							"params": {
								"owner": "Address of the current owner of a token."
							}
						}
					],
					"ERC721InvalidReceiver(address)": [
						{
							"details": "Indicates a failure with the token `receiver`. Used in transfers.",
							"params": {
								"receiver": "Address to which tokens are being transferred."
							}
						}
					],
					"ERC721InvalidSender(address)": [
						{
							"details": "Indicates a failure with the token `sender`. Used in transfers.",
							"params": {
								"sender": "Address whose tokens are being transferred."
							}
						}
					],
					"ERC721NonexistentToken(uint256)": [
						{
							"details": "Indicates a `tokenId` whose `owner` is the zero address.",
							"params": {
								"tokenId": "Identifier number of a token."
							}
						}
					]
				},
				"events": {
					"Approval(address,address,uint256)": {
						"details": "Emitted when `owner` enables `approved` to manage the `tokenId` token."
					},
					"ApprovalForAll(address,address,bool)": {
						"details": "Emitted when `owner` enables or disables (`approved`) `operator` to manage all of its assets."
					},
					"BatchMetadataUpdate(uint256,uint256)": {
						"details": "This event emits when the metadata of a range of tokens is changed. So that the third-party platforms such as NFT market could timely update the images and related attributes of the NFTs."
					},
					"MetadataUpdate(uint256)": {
						"details": "This event emits when the metadata of a token is changed. So that the third-party platforms such as NFT market could timely update the images and related attributes of the NFT."
					},
					"Transfer(address,address,uint256)": {
						"details": "Emitted when `tokenId` token is transferred from `from` to `to`."
					}
				},
				"kind": "dev",
				"methods": {
					"approve(address,uint256)": {
						"details": "See {IERC721-approve}."
					},
					"balanceOf(address)": {
						"details": "See {IERC721-balanceOf}."
					},
					"getApproved(uint256)": {
						"details": "See {IERC721-getApproved}."
					},
					"isApprovedForAll(address,address)": {
						"details": "See {IERC721-isApprovedForAll}."
					},
					"name()": {
						"details": "See {IERC721Metadata-name}."
					},
					"ownerOf(uint256)": {
						"details": "See {IERC721-ownerOf}."
					},
					"safeTransferFrom(address,address,uint256)": {
						"details": "See {IERC721-safeTransferFrom}."
					},
					"safeTransferFrom(address,address,uint256,bytes)": {
						"details": "See {IERC721-safeTransferFrom}."
					},
					"setApprovalForAll(address,bool)": {
						"details": "See {IERC721-setApprovalForAll}."
					},
					"supportsInterface(bytes4)": {
						"details": "See {IERC165-supportsInterface}"
					},
					"symbol()": {
						"details": "See {IERC721Metadata-symbol}."
					},
					"tokenURI(uint256)": {
						"details": "See {IERC721Metadata-tokenURI}."
					},
					"transferFrom(address,address,uint256)": {
						"details": "See {IERC721-transferFrom}."
					}
				},
				"version": 1
			},
			"evm": {
				"assembly": "    /* \"SportNFT.sol\":196:822  contract SportNft is ERC721URIStorage {... */\n  mstore(0x40, 0x80)\n    /* \"SportNFT.sol\":306:349  constructor() ERC721(\"SportNFT\", \"SNFT\") {} */\n  callvalue\n  dup1\n  iszero\n  tag_1\n  jumpi\n  0x00\n  dup1\n  revert\ntag_1:\n  pop\n    /* \"@openzeppelin/contracts/token/ERC721/ERC721.sol\":1381:1494  constructor(string memory name_, string memory symbol_) {... */\n  mload(0x40)\n  dup1\n  0x40\n  add\n  0x40\n  mstore\n  dup1\n  0x08\n  dup2\n  mstore\n  0x20\n  add\n  0x53706f72744e4654000000000000000000000000000000000000000000000000\n  dup2\n  mstore\n  pop\n  mload(0x40)\n  dup1\n  0x40\n  add\n  0x40\n  mstore\n  dup1\n  0x04\n  dup2\n  mstore\n  0x20\n  add\n  0x534e465400000000000000000000000000000000000000000000000000000000\n  dup2\n  mstore\n  pop\n    /* \"@openzeppelin/contracts/token/ERC721/ERC721.sol\":1455:1460  name_ */\n  dup2\n    /* \"@openzeppelin/contracts/token/ERC721/ERC721.sol\":1447:1452  _name */\n  0x00\n    /* \"@openzeppelin/contracts/token/ERC721/ERC721.sol\":1447:1460  _name = name_ */\n  swap1\n  dup2\n  tag_5\n  swap2\n  swap1\n  tag_6\n  jump\t// in\ntag_5:\n  pop\n    /* \"@openzeppelin/contracts/token/ERC721/ERC721.sol\":1480:1487  symbol_ */\n  dup1\n    /* \"@openzeppelin/contracts/token/ERC721/ERC721.sol\":1470:1477  _symbol */\n  0x01\n    /* \"@openzeppelin/contracts/token/ERC721/ERC721.sol\":1470:1487  _symbol = symbol_ */\n  swap1\n  dup2\n  tag_7\n  swap2\n  swap1\n  tag_6\n  jump\t// in\ntag_7:\n  pop\n    /* \"@openzeppelin/contracts/token/ERC721/ERC721.sol\":1381:1494  constructor(string memory name_, string memory symbol_) {... */\n  pop\n  pop\n    /* \"SportNFT.sol\":196:822  contract SportNft is ERC721URIStorage {... */\n  jump(tag_9)\n    /* \"#utility.yul\":7:106   */\ntag_10:\n    /* \"#utility.yul\":59:65   */\n  0x00\n    /* \"#utility.yul\":93:98   */\n  dup2\n    /* \"#utility.yul\":87:99   */\n  mload\n    /* \"#utility.yul\":77:99   */\n  swap1\n  pop\n    /* \"#utility.yul\":7:106   */\n  swap2\n  swap1\n  pop\n  jump\t// out\n    /* \"#utility.yul\":112:292   */\ntag_11:\n    /* \"#utility.yul\":160:237   */\n  0x4e487b7100000000000000000000000000000000000000000000000000000000\n    /* \"#utility.yul\":157:158   */\n  0x00\n    /* \"#utility.yul\":150:238   */\n  mstore\n    /* \"#utility.yul\":257:261   */\n  0x41\n    /* \"#utility.yul\":254:255   */\n  0x04\n    /* \"#utility.yul\":247:262   */\n  mstore\n    /* \"#utility.yul\":281:285   */\n  0x24\n    /* \"#utility.yul\":278:279   */\n  0x00\n    /* \"#utility.yul\":271:286   */\n  revert\n    /* \"#utility.yul\":298:478   */\ntag_12:\n    /* \"#utility.yul\":346:423   */\n  0x4e487b7100000000000000000000000000000000000000000000000000000000\n    /* \"#utility.yul\":343:344   */\n  0x00\n    /* \"#utility.yul\":336:424   */\n  mstore\n    /* \"#utility.yul\":443:447   */\n  0x22\n    /* \"#utility.yul\":440:441   */\n  0x04\n    /* \"#utility.yul\":433:448   */\n  mstore\n    /* \"#utility.yul\":467:471   */\n  0x24\n    /* \"#utility.yul\":464:465   */\n  0x00\n    /* \"#utility.yul\":457:472   */\n  revert\n    /* \"#utility.yul\":484:804   */\ntag_13:\n    /* \"#utility.yul\":528:534   */\n  0x00\n    /* \"#utility.yul\":565:566   */\n  0x02\n    /* \"#utility.yul\":559:563   */\n  dup3\n    /* \"#utility.yul\":555:567   */\n  div\n    /* \"#utility.yul\":545:567   */\n  swap1\n  pop\n    /* \"#utility.yul\":612:613   */\n  0x01\n    /* \"#utility.yul\":606:610   */\n  dup3\n    /* \"#utility.yul\":602:614   */\n  and\n    /* \"#utility.yul\":633:651   */\n  dup1\n    /* \"#utility.yul\":623:704   */\n  tag_35\n  jumpi\n    /* \"#utility.yul\":689:693   */\n  0x7f\n    /* \"#utility.yul\":681:687   */\n  dup3\n    /* \"#utility.yul\":677:694   */\n  and\n    /* \"#utility.yul\":667:694   */\n  swap2\n  pop\n    /* \"#utility.yul\":623:704   */\ntag_35:\n    /* \"#utility.yul\":751:753   */\n  0x20\n    /* \"#utility.yul\":743:749   */\n  dup3\n    /* \"#utility.yul\":740:754   */\n  lt\n    /* \"#utility.yul\":720:738   */\n  dup2\n    /* \"#utility.yul\":717:755   */\n  sub\n    /* \"#utility.yul\":714:798   */\n  tag_36\n  jumpi\n    /* \"#utility.yul\":770:788   */\n  tag_37\n  tag_12\n  jump\t// in\ntag_37:\n    /* \"#utility.yul\":714:798   */\ntag_36:\n    /* \"#utility.yul\":535:804   */\n  pop\n    /* \"#utility.yul\":484:804   */\n  swap2\n  swap1\n  pop\n  jump\t// out\n    /* \"#utility.yul\":810:951   */\ntag_14:\n    /* \"#utility.yul\":859:863   */\n  0x00\n    /* \"#utility.yul\":882:885   */\n  dup2\n    /* \"#utility.yul\":874:885   */\n  swap1\n  pop\n    /* \"#utility.yul\":905:908   */\n  dup2\n    /* \"#utility.yul\":902:903   */\n  0x00\n    /* \"#utility.yul\":895:909   */\n  mstore\n    /* \"#utility.yul\":939:943   */\n  0x20\n    /* \"#utility.yul\":936:937   */\n  0x00\n    /* \"#utility.yul\":926:944   */\n  keccak256\n    /* \"#utility.yul\":918:944   */\n  swap1\n  pop\n    /* \"#utility.yul\":810:951   */\n  swap2\n  swap1\n  pop\n  jump\t// out\n    /* \"#utility.yul\":957:1050   */\ntag_15:\n    /* \"#utility.yul\":994:1000   */\n  0x00\n    /* \"#utility.yul\":1041:1043   */\n  0x20\n    /* \"#utility.yul\":1036:1038   */\n  0x1f\n    /* \"#utility.yul\":1029:1034   */\n  dup4\n    /* \"#utility.yul\":1025:1039   */\n  add\n    /* \"#utility.yul\":1021:1044   */\n  div\n    /* \"#utility.yul\":1011:1044   */\n  swap1\n  pop\n    /* \"#utility.yul\":957:1050   */\n  swap2\n  swap1\n  pop\n  jump\t// out\n    /* \"#utility.yul\":1056:1163   */\ntag_16:\n    /* \"#utility.yul\":1100:1108   */\n  0x00\n    /* \"#utility.yul\":1150:1155   */\n  dup3\n    /* \"#utility.yul\":1144:1148   */\n  dup3\n    /* \"#utility.yul\":1140:1156   */\n  shl\n    /* \"#utility.yul\":1119:1156   */\n  swap1\n  pop\n    /* \"#utility.yul\":1056:1163   */\n  swap3\n  swap2\n  pop\n  pop\n  jump\t// out\n    /* \"#utility.yul\":1169:1562   */\ntag_17:\n    /* \"#utility.yul\":1238:1244   */\n  0x00\n    /* \"#utility.yul\":1288:1289   */\n  0x08\n    /* \"#utility.yul\":1276:1286   */\n  dup4\n    /* \"#utility.yul\":1272:1290   */\n  mul\n    /* \"#utility.yul\":1311:1408   */\n  tag_42\n    /* \"#utility.yul\":1341:1407   */\n  0xffffffffffffffffffffffffffffffffffffffffffffffffffffffffffffffff\n    /* \"#utility.yul\":1330:1339   */\n  dup3\n    /* \"#utility.yul\":1311:1408   */\n  tag_16\n  jump\t// in\ntag_42:\n    /* \"#utility.yul\":1429:1468   */\n  tag_43\n    /* \"#utility.yul\":1459:1467   */\n  dup7\n    /* \"#utility.yul\":1448:1457   */\n  dup4\n    /* \"#utility.yul\":1429:1468   */\n  tag_16\n  jump\t// in\ntag_43:\n    /* \"#utility.yul\":1417:1468   */\n  swap6\n  pop\n    /* \"#utility.yul\":1501:1505   */\n  dup1\n    /* \"#utility.yul\":1497:1506   */\n  not\n    /* \"#utility.yul\":1490:1495   */\n  dup5\n    /* \"#utility.yul\":1486:1507   */\n  and\n    /* \"#utility.yul\":1477:1507   */\n  swap4\n  pop\n    /* \"#utility.yul\":1550:1554   */\n  dup1\n    /* \"#utility.yul\":1540:1548   */\n  dup7\n    /* \"#utility.yul\":1536:1555   */\n  and\n    /* \"#utility.yul\":1529:1534   */\n  dup5\n    /* \"#utility.yul\":1526:1556   */\n  or\n    /* \"#utility.yul\":1516:1556   */\n  swap3\n  pop\n    /* \"#utility.yul\":1245:1562   */\n  pop\n  pop\n    /* \"#utility.yul\":1169:1562   */\n  swap4\n  swap3\n  pop\n  pop\n  pop\n  jump\t// out\n    /* \"#utility.yul\":1568:1645   */\ntag_18:\n    /* \"#utility.yul\":1605:1612   */\n  0x00\n    /* \"#utility.yul\":1634:1639   */\n  dup2\n    /* \"#utility.yul\":1623:1639   */\n  swap1\n  pop\n    /* \"#utility.yul\":1568:1645   */\n  swap2\n  swap1\n  pop\n  jump\t// out\n    /* \"#utility.yul\":1651:1711   */\ntag_19:\n    /* \"#utility.yul\":1679:1682   */\n  0x00\n    /* \"#utility.yul\":1700:1705   */\n  dup2\n    /* \"#utility.yul\":1693:1705   */\n  swap1\n  pop\n    /* \"#utility.yul\":1651:1711   */\n  swap2\n  swap1\n  pop\n  jump\t// out\n    /* \"#utility.yul\":1717:1859   */\ntag_20:\n    /* \"#utility.yul\":1767:1776   */\n  0x00\n    /* \"#utility.yul\":1800:1853   */\n  tag_47\n    /* \"#utility.yul\":1818:1852   */\n  tag_48\n    /* \"#utility.yul\":1827:1851   */\n  tag_49\n    /* \"#utility.yul\":1845:1850   */\n  dup5\n    /* \"#utility.yul\":1827:1851   */\n  tag_18\n  jump\t// in\ntag_49:\n    /* \"#utility.yul\":1818:1852   */\n  tag_19\n  jump\t// in\ntag_48:\n    /* \"#utility.yul\":1800:1853   */\n  tag_18\n  jump\t// in\ntag_47:\n    /* \"#utility.yul\":1787:1853   */\n  swap1\n  pop\n    /* \"#utility.yul\":1717:1859   */\n  swap2\n  swap1\n  pop\n  jump\t// out\n    /* \"#utility.yul\":1865:1940   */\ntag_21:\n    /* \"#utility.yul\":1908:1911   */\n  0x00\n    /* \"#utility.yul\":1929:1934   */\n  dup2\n    /* \"#utility.yul\":1922:1934   */\n  swap1\n  pop\n    /* \"#utility.yul\":1865:1940   */\n  swap2\n  swap1\n  pop\n  jump\t// out\n    /* \"#utility.yul\":1946:2215   */\ntag_22:\n    /* \"#utility.yul\":2056:2095   */\n  tag_52\n    /* \"#utility.yul\":2087:2094   */\n  dup4\n    /* \"#utility.yul\":2056:2095   */\n  tag_20\n  jump\t// in\ntag_52:\n    /* \"#utility.yul\":2117:2208   */\n  tag_53\n    /* \"#utility.yul\":2166:2207   */\n  tag_54\n    /* \"#utility.yul\":2190:2206   */\n  dup3\n    /* \"#utility.yul\":2166:2207   */\n  tag_21\n  jump\t// in\ntag_54:\n    /* \"#utility.yul\":2158:2164   */\n  dup5\n    /* \"#utility.yul\":2151:2155   */\n  dup5\n    /* \"#utility.yul\":2145:2156   */\n  sload\n    /* \"#utility.yul\":2117:2208   */\n  tag_17\n  jump\t// in\ntag_53:\n    /* \"#utility.yul\":2111:2115   */\n  dup3\n    /* \"#utility.yul\":2104:2209   */\n  sstore\n    /* \"#utility.yul\":2022:2215   */\n  pop\n    /* \"#utility.yul\":1946:2215   */\n  pop\n  pop\n  pop\n  jump\t// out\n    /* \"#utility.yul\":2221:2294   */\ntag_23:\n    /* \"#utility.yul\":2266:2269   */\n  0x00\n    /* \"#utility.yul\":2221:2294   */\n  swap1\n  jump\t// out\n    /* \"#utility.yul\":2300:2489   */\ntag_24:\n    /* \"#utility.yul\":2377:2409   */\n  tag_57\n  tag_23\n  jump\t// in\ntag_57:\n    /* \"#utility.yul\":2418:2483   */\n  tag_58\n    /* \"#utility.yul\":2476:2482   */\n  dup2\n    /* \"#utility.yul\":2468:2474   */\n  dup5\n    /* \"#utility.yul\":2462:2466   */\n  dup5\n    /* \"#utility.yul\":2418:2483   */\n  tag_22\n  jump\t// in\ntag_58:\n    /* \"#utility.yul\":2353:2489   */\n  pop\n    /* \"#utility.yul\":2300:2489   */\n  pop\n  pop\n  jump\t// out\n    /* \"#utility.yul\":2495:2681   */\ntag_25:\n    /* \"#utility.yul\":2555:2675   */\ntag_60:\n    /* \"#utility.yul\":2572:2575   */\n  dup2\n    /* \"#utility.yul\":2565:2570   */\n  dup2\n    /* \"#utility.yul\":2562:2576   */\n  lt\n    /* \"#utility.yul\":2555:2675   */\n  iszero\n  tag_62\n  jumpi\n    /* \"#utility.yul\":2626:2665   */\n  tag_63\n    /* \"#utility.yul\":2663:2664   */\n  0x00\n    /* \"#utility.yul\":2656:2661   */\n  dup3\n    /* \"#utility.yul\":2626:2665   */\n  tag_24\n  jump\t// in\ntag_63:\n    /* \"#utility.yul\":2599:2600   */\n  0x01\n    /* \"#utility.yul\":2592:2597   */\n  dup2\n    /* \"#utility.yul\":2588:2601   */\n  add\n    /* \"#utility.yul\":2579:2601   */\n  swap1\n  pop\n    /* \"#utility.yul\":2555:2675   */\n  jump(tag_60)\ntag_62:\n    /* \"#utility.yul\":2495:2681   */\n  pop\n  pop\n  jump\t// out\n    /* \"#utility.yul\":2687:3230   */\ntag_26:\n    /* \"#utility.yul\":2788:2790   */\n  0x1f\n    /* \"#utility.yul\":2783:2786   */\n  dup3\n    /* \"#utility.yul\":2780:2791   */\n  gt\n    /* \"#utility.yul\":2777:3223   */\n  iszero\n  tag_65\n  jumpi\n    /* \"#utility.yul\":2822:2860   */\n  tag_66\n    /* \"#utility.yul\":2854:2859   */\n  dup2\n    /* \"#utility.yul\":2822:2860   */\n  tag_14\n  jump\t// in\ntag_66:\n    /* \"#utility.yul\":2906:2935   */\n  tag_67\n    /* \"#utility.yul\":2924:2934   */\n  dup5\n    /* \"#utility.yul\":2906:2935   */\n  tag_15\n  jump\t// in\ntag_67:\n    /* \"#utility.yul\":2896:2904   */\n  dup2\n    /* \"#utility.yul\":2892:2936   */\n  add\n    /* \"#utility.yul\":3089:3091   */\n  0x20\n    /* \"#utility.yul\":3077:3087   */\n  dup6\n    /* \"#utility.yul\":3074:3092   */\n  lt\n    /* \"#utility.yul\":3071:3120   */\n  iszero\n  tag_68\n  jumpi\n    /* \"#utility.yul\":3110:3118   */\n  dup2\n    /* \"#utility.yul\":3095:3118   */\n  swap1\n  pop\n    /* \"#utility.yul\":3071:3120   */\ntag_68:\n    /* \"#utility.yul\":3133:3213   */\n  tag_69\n    /* \"#utility.yul\":3189:3211   */\n  tag_70\n    /* \"#utility.yul\":3207:3210   */\n  dup6\n    /* \"#utility.yul\":3189:3211   */\n  tag_15\n  jump\t// in\ntag_70:\n    /* \"#utility.yul\":3179:3187   */\n  dup4\n    /* \"#utility.yul\":3175:3212   */\n  add\n    /* \"#utility.yul\":3162:3173   */\n  dup3\n    /* \"#utility.yul\":3133:3213   */\n  tag_25\n  jump\t// in\ntag_69:\n    /* \"#utility.yul\":2792:3223   */\n  pop\n  pop\n    /* \"#utility.yul\":2777:3223   */\ntag_65:\n    /* \"#utility.yul\":2687:3230   */\n  pop\n  pop\n  pop\n  jump\t// out\n    /* \"#utility.yul\":3236:3353   */\ntag_27:\n    /* \"#utility.yul\":3290:3298   */\n  0x00\n    /* \"#utility.yul\":3340:3345   */\n  dup3\n    /* \"#utility.yul\":3334:3338   */\n  dup3\n    /* \"#utility.yul\":3330:3346   */\n  shr\n    /* \"#utility.yul\":3309:3346   */\n  swap1\n  pop\n    /* \"#utility.yul\":3236:3353   */\n  swap3\n  swap2\n  pop\n  pop\n  jump\t// out\n    /* \"#utility.yul\":3359:3528   */\ntag_28:\n    /* \"#utility.yul\":3403:3409   */\n  0x00\n    /* \"#utility.yul\":3436:3487   */\n  tag_73\n    /* \"#utility.yul\":3484:3485   */\n  0x00\n    /* \"#utility.yul\":3480:3486   */\n  not\n    /* \"#utility.yul\":3472:3477   */\n  dup5\n    /* \"#utility.yul\":3469:3470   */\n  0x08\n    /* \"#utility.yul\":3465:3478   */\n  mul\n    /* \"#utility.yul\":3436:3487   */\n  tag_27\n  jump\t// in\ntag_73:\n    /* \"#utility.yul\":3432:3488   */\n  not\n    /* \"#utility.yul\":3517:3521   */\n  dup1\n    /* \"#utility.yul\":3511:3515   */\n  dup4\n    /* \"#utility.yul\":3507:3522   */\n  and\n    /* \"#utility.yul\":3497:3522   */\n  swap2\n  pop\n    /* \"#utility.yul\":3410:3528   */\n  pop\n    /* \"#utility.yul\":3359:3528   */\n  swap3\n  swap2\n  pop\n  pop\n  jump\t// out\n    /* \"#utility.yul\":3533:3828   */\ntag_29:\n    /* \"#utility.yul\":3609:3613   */\n  0x00\n    /* \"#utility.yul\":3755:3784   */\n  tag_75\n    /* \"#utility.yul\":3780:3783   */\n  dup4\n    /* \"#utility.yul\":3774:3778   */\n  dup4\n    /* \"#utility.yul\":3755:3784   */\n  tag_28\n  jump\t// in\ntag_75:\n    /* \"#utility.yul\":3747:3784   */\n  swap2\n  pop\n    /* \"#utility.yul\":3817:3820   */\n  dup3\n    /* \"#utility.yul\":3814:3815   */\n  0x02\n    /* \"#utility.yul\":3810:3821   */\n  mul\n    /* \"#utility.yul\":3804:3808   */\n  dup3\n    /* \"#utility.yul\":3801:3822   */\n  or\n    /* \"#utility.yul\":3793:3822   */\n  swap1\n  pop\n    /* \"#utility.yul\":3533:3828   */\n  swap3\n  swap2\n  pop\n  pop\n  jump\t// out\n    /* \"#utility.yul\":3833:5228   */\ntag_6:\n    /* \"#utility.yul\":3950:3987   */\n  tag_77\n    /* \"#utility.yul\":3983:3986   */\n  dup3\n    /* \"#utility.yul\":3950:3987   */\n  tag_10\n  jump\t// in\ntag_77:\n    /* \"#utility.yul\":4052:4070   */\n  0xffffffffffffffff\n    /* \"#utility.yul\":4044:4050   */\n  dup2\n    /* \"#utility.yul\":4041:4071   */\n  gt\n    /* \"#utility.yul\":4038:4094   */\n  iszero\n  tag_78\n  jumpi\n    /* \"#utility.yul\":4074:4092   */\n  tag_79\n  tag_11\n  jump\t// in\ntag_79:\n    /* \"#utility.yul\":4038:4094   */\ntag_78:\n    /* \"#utility.yul\":4118:4156   */\n  tag_80\n    /* \"#utility.yul\":4150:4154   */\n  dup3\n    /* \"#utility.yul\":4144:4155   */\n  sload\n    /* \"#utility.yul\":4118:4156   */\n  tag_13\n  jump\t// in\ntag_80:\n    /* \"#utility.yul\":4203:4270   */\n  tag_81\n    /* \"#utility.yul\":4263:4269   */\n  dup3\n    /* \"#utility.yul\":4255:4261   */\n  dup3\n    /* \"#utility.yul\":4249:4253   */\n  dup6\n    /* \"#utility.yul\":4203:4270   */\n  tag_26\n  jump\t// in\ntag_81:\n    /* \"#utility.yul\":4297:4298   */\n  0x00\n    /* \"#utility.yul\":4321:4325   */\n  0x20\n    /* \"#utility.yul\":4308:4325   */\n  swap1\n  pop\n    /* \"#utility.yul\":4353:4355   */\n  0x1f\n    /* \"#utility.yul\":4345:4351   */\n  dup4\n    /* \"#utility.yul\":4342:4356   */\n  gt\n    /* \"#utility.yul\":4370:4371   */\n  0x01\n    /* \"#utility.yul\":4365:4983   */\n  dup2\n  eq\n  tag_83\n  jumpi\n    /* \"#utility.yul\":5027:5028   */\n  0x00\n    /* \"#utility.yul\":5044:5050   */\n  dup5\n    /* \"#utility.yul\":5041:5118   */\n  iszero\n  tag_84\n  jumpi\n    /* \"#utility.yul\":5093:5102   */\n  dup3\n    /* \"#utility.yul\":5088:5091   */\n  dup8\n    /* \"#utility.yul\":5084:5103   */\n  add\n    /* \"#utility.yul\":5078:5104   */\n  mload\n    /* \"#utility.yul\":5069:5104   */\n  swap1\n  pop\n    /* \"#utility.yul\":5041:5118   */\ntag_84:\n    /* \"#utility.yul\":5144:5211   */\n  tag_85\n    /* \"#utility.yul\":5204:5210   */\n  dup6\n    /* \"#utility.yul\":5197:5202   */\n  dup3\n    /* \"#utility.yul\":5144:5211   */\n  tag_29\n  jump\t// in\ntag_85:\n    /* \"#utility.yul\":5138:5142   */\n  dup7\n    /* \"#utility.yul\":5131:5212   */\n  sstore\n    /* \"#utility.yul\":5000:5222   */\n  pop\n    /* \"#utility.yul\":4335:5222   */\n  jump(tag_82)\n    /* \"#utility.yul\":4365:4983   */\ntag_83:\n    /* \"#utility.yul\":4417:4421   */\n  0x1f\n    /* \"#utility.yul\":4413:4422   */\n  not\n    /* \"#utility.yul\":4405:4411   */\n  dup5\n    /* \"#utility.yul\":4401:4423   */\n  and\n    /* \"#utility.yul\":4451:4488   */\n  tag_86\n    /* \"#utility.yul\":4483:4487   */\n  dup7\n    /* \"#utility.yul\":4451:4488   */\n  tag_14\n  jump\t// in\ntag_86:\n    /* \"#utility.yul\":4510:4511   */\n  0x00\n    /* \"#utility.yul\":4524:4732   */\ntag_87:\n    /* \"#utility.yul\":4538:4545   */\n  dup3\n    /* \"#utility.yul\":4535:4536   */\n  dup2\n    /* \"#utility.yul\":4532:4546   */\n  lt\n    /* \"#utility.yul\":4524:4732   */\n  iszero\n  tag_89\n  jumpi\n    /* \"#utility.yul\":4617:4626   */\n  dup5\n    /* \"#utility.yul\":4612:4615   */\n  dup10\n    /* \"#utility.yul\":4608:4627   */\n  add\n    /* \"#utility.yul\":4602:4628   */\n  mload\n    /* \"#utility.yul\":4594:4600   */\n  dup3\n    /* \"#utility.yul\":4587:4629   */\n  sstore\n    /* \"#utility.yul\":4668:4669   */\n  0x01\n    /* \"#utility.yul\":4660:4666   */\n  dup3\n    /* \"#utility.yul\":4656:4670   */\n  add\n    /* \"#utility.yul\":4646:4670   */\n  swap2\n  pop\n    /* \"#utility.yul\":4715:4717   */\n  0x20\n    /* \"#utility.yul\":4704:4713   */\n  dup6\n    /* \"#utility.yul\":4700:4718   */\n  add\n    /* \"#utility.yul\":4687:4718   */\n  swap5\n  pop\n    /* \"#utility.yul\":4561:4565   */\n  0x20\n    /* \"#utility.yul\":4558:4559   */\n  dup2\n    /* \"#utility.yul\":4554:4566   */\n  add\n    /* \"#utility.yul\":4549:4566   */\n  swap1\n  pop\n    /* \"#utility.yul\":4524:4732   */\n  jump(tag_87)\ntag_89:\n    /* \"#utility.yul\":4760:4766   */\n  dup7\n    /* \"#utility.yul\":4751:4758   */\n  dup4\n    /* \"#utility.yul\":4748:4767   */\n  lt\n    /* \"#utility.yul\":4745:4924   */\n  iszero\n  tag_90\n  jumpi\n    /* \"#utility.yul\":4818:4827   */\n  dup5\n    /* \"#utility.yul\":4813:4816   */\n  dup10\n    /* \"#utility.yul\":4809:4828   */\n  add\n    /* \"#utility.yul\":4803:4829   */\n  mload\n    /* \"#utility.yul\":4861:4909   */\n  tag_91\n    /* \"#utility.yul\":4903:4907   */\n  0x1f\n    /* \"#utility.yul\":4895:4901   */\n  dup10\n    /* \"#utility.yul\":4891:4908   */\n  and\n    /* \"#utility.yul\":4880:4889   */\n  dup3\n    /* \"#utility.yul\":4861:4909   */\n  tag_28\n  jump\t// in\ntag_91:\n    /* \"#utility.yul\":4853:4859   */\n  dup4\n    /* \"#utility.yul\":4846:4910   */\n  sstore\n    /* \"#utility.yul\":4768:4924   */\n  pop\n    /* \"#utility.yul\":4745:4924   */\ntag_90:\n    /* \"#utility.yul\":4970:4971   */\n  0x01\n    /* \"#utility.yul\":4966:4967   */\n  0x02\n    /* \"#utility.yul\":4958:4964   */\n  dup9\n    /* \"#utility.yul\":4954:4968   */\n  mul\n    /* \"#utility.yul\":4950:4972   */\n  add\n    /* \"#utility.yul\":4944:4948   */\n  dup9\n    /* \"#utility.yul\":4937:4973   */\n  sstore\n    /* \"#utility.yul\":4372:4983   */\n  pop\n  pop\n  pop\n    /* \"#utility.yul\":4335:5222   */\ntag_82:\n  pop\n    /* \"#utility.yul\":3925:5228   */\n  pop\n  pop\n  pop\n    /* \"#utility.yul\":3833:5228   */\n  pop\n  pop\n  jump\t// out\n    /* \"SportNFT.sol\":196:822  contract SportNft is ERC721URIStorage {... */\ntag_9:\n  dataSize(sub_0)\n  dup1\n  dataOffset(sub_0)\n  0x00\n  codecopy\n  0x00\n  return\nstop\n\nsub_0: assembly {\n        /* \"SportNFT.sol\":196:822  contract SportNft is ERC721URIStorage {... */\n      mstore(0x40, 0x80)\n      callvalue\n      dup1\n      iszero\n      tag_1\n      jumpi\n      0x00\n      dup1\n      revert\n    tag_1:\n      pop\n      jumpi(tag_2, lt(calldatasize, 0x04))\n      shr(0xe0, calldataload(0x00))\n      dup1\n      0x55f804b3\n      gt\n      tag_18\n      jumpi\n      dup1\n      0xa22cb465\n      gt\n      tag_19\n      jumpi\n      dup1\n      0xa22cb465\n      eq\n      tag_14\n      jumpi\n      dup1\n      0xb88d4fde\n      eq\n      tag_15\n      jumpi\n      dup1\n      0xc87b56dd\n      eq\n      tag_16\n      jumpi\n      dup1\n      0xe985e9c5\n      eq\n      tag_17\n      jumpi\n      jump(tag_2)\n    tag_19:\n      dup1\n      0x55f804b3\n      eq\n      tag_10\n      jumpi\n      dup1\n      0x6352211e\n      eq\n      tag_11\n      jumpi\n      dup1\n      0x70a08231\n      eq\n      tag_12\n      jumpi\n      dup1\n      0x95d89b41\n      eq\n      tag_13\n      jumpi\n      jump(tag_2)\n    tag_18:\n      dup1\n      0x081812fc\n      gt\n      tag_20\n      jumpi\n      dup1\n      0x081812fc\n      eq\n      tag_6\n      jumpi\n      dup1\n      0x095ea7b3\n      eq\n      tag_7\n      jumpi\n      dup1\n      0x23b872dd\n      eq\n      tag_8\n      jumpi\n      dup1\n      0x42842e0e\n      eq\n      tag_9\n      jumpi\n      jump(tag_2)\n    tag_20:\n      dup1\n      0x01ffc9a7\n      eq\n      tag_3\n      jumpi\n      dup1\n      0x04f32279\n      eq\n      tag_4\n      jumpi\n      dup1\n      0x06fdde03\n      eq\n      tag_5\n      jumpi\n    tag_2:\n      0x00\n      dup1\n      revert\n        /* \"@openzeppelin/contracts/token/ERC721/extensions/ERC721URIStorage.sol\":937:1144  function supportsInterface(bytes4 interfaceId) public view virtual override(ERC721, IERC165) returns (bool) {... */\n    tag_3:\n      tag_21\n      0x04\n      dup1\n      calldatasize\n      sub\n      dup2\n      add\n      swap1\n      tag_22\n      swap2\n      swap1\n      tag_23\n      jump\t// in\n    tag_22:\n      tag_24\n      jump\t// in\n    tag_21:\n      mload(0x40)\n      tag_25\n      swap2\n      swap1\n      tag_26\n      jump\t// in\n    tag_25:\n      mload(0x40)\n      dup1\n      swap2\n      sub\n      swap1\n      return\n        /* \"SportNFT.sol\":355:612  function mintNFT(string memory tokenURI, address mintnft) external returns (uint256) {... */\n    tag_4:\n      tag_27\n      0x04\n      dup1\n      calldatasize\n      sub\n      dup2\n      add\n      swap1\n      tag_28\n      swap2\n      swap1\n      tag_29\n      jump\t// in\n    tag_28:\n      tag_30\n      jump\t// in\n    tag_27:\n      mload(0x40)\n      tag_31\n      swap2\n      swap1\n      tag_32\n      jump\t// in\n    tag_31:\n      mload(0x40)\n      dup1\n      swap2\n      sub\n      swap1\n      return\n        /* \"@openzeppelin/contracts/token/ERC721/ERC721.sol\":2365:2454  function name() public view virtual returns (string memory) {... */\n    tag_5:\n      tag_33\n      tag_34\n      jump\t// in\n    tag_33:\n      mload(0x40)\n      tag_35\n      swap2\n      swap1\n      tag_36\n      jump\t// in\n    tag_35:\n      mload(0x40)\n      dup1\n      swap2\n      sub\n      swap1\n      return\n        /* \"@openzeppelin/contracts/token/ERC721/ERC721.sol\":3497:3651  function getApproved(uint256 tokenId) public view virtual returns (address) {... */\n    tag_6:\n      tag_37\n      0x04\n      dup1\n      calldatasize\n      sub\n      dup2\n      add\n      swap1\n      tag_38\n      swap2\n      swap1\n      tag_39\n      jump\t// in\n    tag_38:\n      tag_40\n      jump\t// in\n    tag_37:\n      mload(0x40)\n      tag_41\n      swap2\n      swap1\n      tag_42\n      jump\t// in\n    tag_41:\n      mload(0x40)\n      dup1\n      swap2\n      sub\n      swap1\n      return\n        /* \"@openzeppelin/contracts/token/ERC721/ERC721.sol\":3323:3436  function approve(address to, uint256 tokenId) public virtual {... */\n    tag_7:\n      tag_43\n      0x04\n      dup1\n      calldatasize\n      sub\n      dup2\n      add\n      swap1\n      tag_44\n      swap2\n      swap1\n      tag_45\n      jump\t// in\n    tag_44:\n      tag_46\n      jump\t// in\n    tag_43:\n      stop\n        /* \"@openzeppelin/contracts/token/ERC721/ERC721.sol\":4143:4721  function transferFrom(address from, address to, uint256 tokenId) public virtual {... */\n    tag_8:\n      tag_47\n      0x04\n      dup1\n      calldatasize\n      sub\n      dup2\n      add\n      swap1\n      tag_48\n      swap2\n      swap1\n      tag_49\n      jump\t// in\n    tag_48:\n      tag_50\n      jump\t// in\n    tag_47:\n      stop\n        /* \"@openzeppelin/contracts/token/ERC721/ERC721.sol\":4787:4919  function safeTransferFrom(address from, address to, uint256 tokenId) public {... */\n    tag_9:\n      tag_51\n      0x04\n      dup1\n      calldatasize\n      sub\n      dup2\n      add\n      swap1\n      tag_52\n      swap2\n      swap1\n      tag_49\n      jump\t// in\n    tag_52:\n      tag_53\n      jump\t// in\n    tag_51:\n      stop\n        /* \"SportNFT.sol\":728:820  function setBaseURI(string memory baseURI) external {... */\n    tag_10:\n      tag_54\n      0x04\n      dup1\n      calldatasize\n      sub\n      dup2\n      add\n      swap1\n      tag_55\n      swap2\n      swap1\n      tag_56\n      jump\t// in\n    tag_55:\n      tag_57\n      jump\t// in\n    tag_54:\n      stop\n        /* \"@openzeppelin/contracts/token/ERC721/ERC721.sol\":2185:2303  function ownerOf(uint256 tokenId) public view virtual returns (address) {... */\n    tag_11:\n      tag_58\n      0x04\n      dup1\n      calldatasize\n      sub\n      dup2\n      add\n      swap1\n      tag_59\n      swap2\n      swap1\n      tag_39\n      jump\t// in\n    tag_59:\n      tag_60\n      jump\t// in\n    tag_58:\n      mload(0x40)\n      tag_61\n      swap2\n      swap1\n      tag_42\n      jump\t// in\n    tag_61:\n      mload(0x40)\n      dup1\n      swap2\n      sub\n      swap1\n      return\n        /* \"@openzeppelin/contracts/token/ERC721/ERC721.sol\":1920:2128  function balanceOf(address owner) public view virtual returns (uint256) {... */\n    tag_12:\n      tag_62\n      0x04\n      dup1\n      calldatasize\n      sub\n      dup2\n      add\n      swap1\n      tag_63\n      swap2\n      swap1\n      tag_64\n      jump\t// in\n    tag_63:\n      tag_65\n      jump\t// in\n    tag_62:\n      mload(0x40)\n      tag_66\n      swap2\n      swap1\n      tag_32\n      jump\t// in\n    tag_66:\n      mload(0x40)\n      dup1\n      swap2\n      sub\n      swap1\n      return\n        /* \"@openzeppelin/contracts/token/ERC721/ERC721.sol\":2518:2611  function symbol() public view virtual returns (string memory) {... */\n    tag_13:\n      tag_67\n      tag_68\n      jump\t// in\n    tag_67:\n      mload(0x40)\n      tag_69\n      swap2\n      swap1\n      tag_36\n      jump\t// in\n    tag_69:\n      mload(0x40)\n      dup1\n      swap2\n      sub\n      swap1\n      return\n        /* \"@openzeppelin/contracts/token/ERC721/ERC721.sol\":3718:3862  function setApprovalForAll(address operator, bool approved) public virtual {... */\n    tag_14:\n      tag_70\n      0x04\n      dup1\n      calldatasize\n      sub\n      dup2\n      add\n      swap1\n      tag_71\n      swap2\n      swap1\n      tag_72\n      jump\t// in\n    tag_71:\n      tag_73\n      jump\t// in\n    tag_70:\n      stop\n        /* \"@openzeppelin/contracts/token/ERC721/ERC721.sol\":4985:5193  function safeTransferFrom(address from, address to, uint256 tokenId, bytes memory data) public virtual {... */\n    tag_15:\n      tag_74\n      0x04\n      dup1\n      calldatasize\n      sub\n      dup2\n      add\n      swap1\n      tag_75\n      swap2\n      swap1\n      tag_76\n      jump\t// in\n    tag_75:\n      tag_77\n      jump\t// in\n    tag_74:\n      stop\n        /* \"@openzeppelin/contracts/token/ERC721/extensions/ERC721URIStorage.sol\":1210:1803  function tokenURI(uint256 tokenId) public view virtual override returns (string memory) {... */\n    tag_16:\n      tag_78\n      0x04\n      dup1\n      calldatasize\n      sub\n      dup2\n      add\n      swap1\n      tag_79\n      swap2\n      swap1\n      tag_39\n      jump\t// in\n    tag_79:\n      tag_80\n      jump\t// in\n    tag_78:\n      mload(0x40)\n      tag_81\n      swap2\n      swap1\n      tag_36\n      jump\t// in\n    tag_81:\n      mload(0x40)\n      dup1\n      swap2\n      sub\n      swap1\n      return\n        /* \"@openzeppelin/contracts/token/ERC721/ERC721.sol\":3928:4081  function isApprovedForAll(address owner, address operator) public view virtual returns (bool) {... */\n    tag_17:\n      tag_82\n      0x04\n      dup1\n      calldatasize\n      sub\n      dup2\n      add\n      swap1\n      tag_83\n      swap2\n      swap1\n      tag_84\n      jump\t// in\n    tag_83:\n      tag_85\n      jump\t// in\n    tag_82:\n      mload(0x40)\n      tag_86\n      swap2\n      swap1\n      tag_26\n      jump\t// in\n    tag_86:\n      mload(0x40)\n      dup1\n      swap2\n      sub\n      swap1\n      return\n        /* \"@openzeppelin/contracts/token/ERC721/extensions/ERC721URIStorage.sol\":937:1144  function supportsInterface(bytes4 interfaceId) public view virtual override(ERC721, IERC165) returns (bool) {... */\n    tag_24:\n        /* \"@openzeppelin/contracts/token/ERC721/extensions/ERC721URIStorage.sol\":1039:1043  bool */\n      0x00\n        /* \"@openzeppelin/contracts/token/ERC721/extensions/ERC721URIStorage.sol\":760:770  0x49064906 */\n      0x49064906\n        /* \"@openzeppelin/contracts/token/ERC721/extensions/ERC721URIStorage.sol\":753:771  bytes4(0x49064906) */\n      0xe0\n      shl\n        /* \"@openzeppelin/contracts/token/ERC721/extensions/ERC721URIStorage.sol\":1062:1097  interfaceId == ERC4906_INTERFACE_ID */\n      not(0xffffffffffffffffffffffffffffffffffffffffffffffffffffffff)\n      and\n        /* \"@openzeppelin/contracts/token/ERC721/extensions/ERC721URIStorage.sol\":1062:1073  interfaceId */\n      dup3\n        /* \"@openzeppelin/contracts/token/ERC721/extensions/ERC721URIStorage.sol\":1062:1097  interfaceId == ERC4906_INTERFACE_ID */\n      not(0xffffffffffffffffffffffffffffffffffffffffffffffffffffffff)\n      and\n      eq\n        /* \"@openzeppelin/contracts/token/ERC721/extensions/ERC721URIStorage.sol\":1062:1137  interfaceId == ERC4906_INTERFACE_ID || super.supportsInterface(interfaceId) */\n      dup1\n      tag_88\n      jumpi\n      pop\n        /* \"@openzeppelin/contracts/token/ERC721/extensions/ERC721URIStorage.sol\":1101:1137  super.supportsInterface(interfaceId) */\n      tag_89\n        /* \"@openzeppelin/contracts/token/ERC721/extensions/ERC721URIStorage.sol\":1125:1136  interfaceId */\n      dup3\n        /* \"@openzeppelin/contracts/token/ERC721/extensions/ERC721URIStorage.sol\":1101:1124  super.supportsInterface */\n      tag_90\n        /* \"@openzeppelin/contracts/token/ERC721/extensions/ERC721URIStorage.sol\":1101:1137  super.supportsInterface(interfaceId) */\n      jump\t// in\n    tag_89:\n        /* \"@openzeppelin/contracts/token/ERC721/extensions/ERC721URIStorage.sol\":1062:1137  interfaceId == ERC4906_INTERFACE_ID || super.supportsInterface(interfaceId) */\n    tag_88:\n        /* \"@openzeppelin/contracts/token/ERC721/extensions/ERC721URIStorage.sol\":1055:1137  return interfaceId == ERC4906_INTERFACE_ID || super.supportsInterface(interfaceId) */\n      swap1\n      pop\n        /* \"@openzeppelin/contracts/token/ERC721/extensions/ERC721URIStorage.sol\":937:1144  function supportsInterface(bytes4 interfaceId) public view virtual override(ERC721, IERC165) returns (bool) {... */\n      swap2\n      swap1\n      pop\n      jump\t// out\n        /* \"SportNFT.sol\":355:612  function mintNFT(string memory tokenURI, address mintnft) external returns (uint256) {... */\n    tag_30:\n        /* \"SportNFT.sol\":431:438  uint256 */\n      0x00\n        /* \"SportNFT.sol\":450:459  _tokenIds */\n      0x07\n      0x00\n        /* \"SportNFT.sol\":450:461  _tokenIds++ */\n      dup2\n      sload\n      dup1\n      swap3\n      swap2\n      swap1\n      tag_92\n      swap1\n      tag_93\n      jump\t// in\n    tag_92:\n      swap2\n      swap1\n      pop\n      sstore\n      pop\n        /* \"SportNFT.sol\":471:488  uint256 newItemId */\n      0x00\n        /* \"SportNFT.sol\":491:500  _tokenIds */\n      sload(0x07)\n        /* \"SportNFT.sol\":471:500  uint256 newItemId = _tokenIds */\n      swap1\n      pop\n        /* \"SportNFT.sol\":511:536  _mint(mintnft, newItemId) */\n      tag_94\n        /* \"SportNFT.sol\":517:524  mintnft */\n      dup4\n        /* \"SportNFT.sol\":526:535  newItemId */\n      dup3\n        /* \"SportNFT.sol\":511:516  _mint */\n      tag_95\n        /* \"SportNFT.sol\":511:536  _mint(mintnft, newItemId) */\n      jump\t// in\n    tag_94:\n        /* \"SportNFT.sol\":546:579  _setTokenURI(newItemId, tokenURI) */\n      tag_96\n        /* \"SportNFT.sol\":559:568  newItemId */\n      dup2\n        /* \"SportNFT.sol\":570:578  tokenURI */\n      dup6\n        /* \"SportNFT.sol\":546:558  _setTokenURI */\n      tag_97\n        /* \"SportNFT.sol\":546:579  _setTokenURI(newItemId, tokenURI) */\n      jump\t// in\n    tag_96:\n        /* \"SportNFT.sol\":596:605  newItemId */\n      dup1\n        /* \"SportNFT.sol\":589:605  return newItemId */\n      swap2\n      pop\n      pop\n        /* \"SportNFT.sol\":355:612  function mintNFT(string memory tokenURI, address mintnft) external returns (uint256) {... */\n      swap3\n      swap2\n      pop\n      pop\n      jump\t// out\n        /* \"@openzeppelin/contracts/token/ERC721/ERC721.sol\":2365:2454  function name() public view virtual returns (string memory) {... */\n    tag_34:\n        /* \"@openzeppelin/contracts/token/ERC721/ERC721.sol\":2410:2423  string memory */\n      0x60\n        /* \"@openzeppelin/contracts/token/ERC721/ERC721.sol\":2442:2447  _name */\n      0x00\n        /* \"@openzeppelin/contracts/token/ERC721/ERC721.sol\":2435:2447  return _name */\n      dup1\n      sload\n      tag_99\n      swap1\n      tag_100\n      jump\t// in\n    tag_99:\n      dup1\n      0x1f\n      add\n      0x20\n      dup1\n      swap2\n      div\n      mul\n      0x20\n      add\n      mload(0x40)\n      swap1\n      dup2\n      add\n      0x40\n      mstore\n      dup1\n      swap3\n      swap2\n      swap1\n      dup2\n      dup2\n      mstore\n      0x20\n      add\n      dup3\n      dup1\n      sload\n      tag_101\n      swap1\n      tag_100\n      jump\t// in\n    tag_101:\n      dup1\n      iszero\n      tag_102\n      jumpi\n      dup1\n      0x1f\n      lt\n      tag_103\n      jumpi\n      0x0100\n      dup1\n      dup4\n      sload\n      div\n      mul\n      dup4\n      mstore\n      swap2\n      0x20\n      add\n      swap2\n      jump(tag_102)\n    tag_103:\n      dup3\n      add\n      swap2\n      swap1\n      0x00\n      mstore\n      keccak256(0x00, 0x20)\n      swap1\n    tag_104:\n      dup2\n      sload\n      dup2\n      mstore\n      swap1\n      0x01\n      add\n      swap1\n      0x20\n      add\n      dup1\n      dup4\n      gt\n      tag_104\n      jumpi\n      dup3\n      swap1\n      sub\n      0x1f\n      and\n      dup3\n      add\n      swap2\n    tag_102:\n      pop\n      pop\n      pop\n      pop\n      pop\n      swap1\n      pop\n        /* \"@openzeppelin/contracts/token/ERC721/ERC721.sol\":2365:2454  function name() public view virtual returns (string memory) {... */\n      swap1\n      jump\t// out\n        /* \"@openzeppelin/contracts/token/ERC721/ERC721.sol\":3497:3651  function getApproved(uint256 tokenId) public view virtual returns (address) {... */\n    tag_40:\n        /* \"@openzeppelin/contracts/token/ERC721/ERC721.sol\":3564:3571  address */\n      0x00\n        /* \"@openzeppelin/contracts/token/ERC721/ERC721.sol\":3583:3605  _requireOwned(tokenId) */\n      tag_106\n        /* \"@openzeppelin/contracts/token/ERC721/ERC721.sol\":3597:3604  tokenId */\n      dup3\n        /* \"@openzeppelin/contracts/token/ERC721/ERC721.sol\":3583:3596  _requireOwned */\n      tag_107\n        /* \"@openzeppelin/contracts/token/ERC721/ERC721.sol\":3583:3605  _requireOwned(tokenId) */\n      jump\t// in\n    tag_106:\n      pop\n        /* \"@openzeppelin/contracts/token/ERC721/ERC721.sol\":3623:3644  _getApproved(tokenId) */\n      tag_108\n        /* \"@openzeppelin/contracts/token/ERC721/ERC721.sol\":3636:3643  tokenId */\n      dup3\n        /* \"@openzeppelin/contracts/token/ERC721/ERC721.sol\":3623:3635  _getApproved */\n      tag_109\n        /* \"@openzeppelin/contracts/token/ERC721/ERC721.sol\":3623:3644  _getApproved(tokenId) */\n      jump\t// in\n    tag_108:\n        /* \"@openzeppelin/contracts/token/ERC721/ERC721.sol\":3616:3644  return _getApproved(tokenId) */\n      swap1\n      pop\n        /* \"@openzeppelin/contracts/token/ERC721/ERC721.sol\":3497:3651  function getApproved(uint256 tokenId) public view virtual returns (address) {... */\n      swap2\n      swap1\n      pop\n      jump\t// out\n        /* \"@openzeppelin/contracts/token/ERC721/ERC721.sol\":3323:3436  function approve(address to, uint256 tokenId) public virtual {... */\n    tag_46:\n        /* \"@openzeppelin/contracts/token/ERC721/ERC721.sol\":3394:3429  _approve(to, tokenId, _msgSender()) */\n      tag_111\n        /* \"@openzeppelin/contracts/token/ERC721/ERC721.sol\":3403:3405  to */\n      dup3\n        /* \"@openzeppelin/contracts/token/ERC721/ERC721.sol\":3407:3414  tokenId */\n      dup3\n        /* \"@openzeppelin/contracts/token/ERC721/ERC721.sol\":3416:3428  _msgSender() */\n      tag_112\n        /* \"@openzeppelin/contracts/token/ERC721/ERC721.sol\":3416:3426  _msgSender */\n      tag_113\n        /* \"@openzeppelin/contracts/token/ERC721/ERC721.sol\":3416:3428  _msgSender() */\n      jump\t// in\n    tag_112:\n        /* \"@openzeppelin/contracts/token/ERC721/ERC721.sol\":3394:3402  _approve */\n      tag_114\n        /* \"@openzeppelin/contracts/token/ERC721/ERC721.sol\":3394:3429  _approve(to, tokenId, _msgSender()) */\n      jump\t// in\n    tag_111:\n        /* \"@openzeppelin/contracts/token/ERC721/ERC721.sol\":3323:3436  function approve(address to, uint256 tokenId) public virtual {... */\n      pop\n      pop\n      jump\t// out\n        /* \"@openzeppelin/contracts/token/ERC721/ERC721.sol\":4143:4721  function transferFrom(address from, address to, uint256 tokenId) public virtual {... */\n    tag_50:\n        /* \"@openzeppelin/contracts/token/ERC721/ERC721.sol\":4251:4252  0 */\n      0x00\n        /* \"@openzeppelin/contracts/token/ERC721/ERC721.sol\":4237:4253  to == address(0) */\n      0xffffffffffffffffffffffffffffffffffffffff\n      and\n        /* \"@openzeppelin/contracts/token/ERC721/ERC721.sol\":4237:4239  to */\n      dup3\n        /* \"@openzeppelin/contracts/token/ERC721/ERC721.sol\":4237:4253  to == address(0) */\n      0xffffffffffffffffffffffffffffffffffffffff\n      and\n      sub\n        /* \"@openzeppelin/contracts/token/ERC721/ERC721.sol\":4233:4320  if (to == address(0)) {... */\n      tag_116\n      jumpi\n        /* \"@openzeppelin/contracts/token/ERC721/ERC721.sol\":4306:4307  0 */\n      0x00\n        /* \"@openzeppelin/contracts/token/ERC721/ERC721.sol\":4276:4309  ERC721InvalidReceiver(address(0)) */\n      mload(0x40)\n      0x64a0ae9200000000000000000000000000000000000000000000000000000000\n      dup2\n      mstore\n      0x04\n      add\n      tag_117\n      swap2\n      swap1\n      tag_42\n      jump\t// in\n    tag_117:\n      mload(0x40)\n      dup1\n      swap2\n      sub\n      swap1\n      revert\n        /* \"@openzeppelin/contracts/token/ERC721/ERC721.sol\":4233:4320  if (to == address(0)) {... */\n    tag_116:\n        /* \"@openzeppelin/contracts/token/ERC721/ERC721.sol\":4538:4559  address previousOwner */\n      0x00\n        /* \"@openzeppelin/contracts/token/ERC721/ERC721.sol\":4562:4596  _update(to, tokenId, _msgSender()) */\n      tag_118\n        /* \"@openzeppelin/contracts/token/ERC721/ERC721.sol\":4570:4572  to */\n      dup4\n        /* \"@openzeppelin/contracts/token/ERC721/ERC721.sol\":4574:4581  tokenId */\n      dup4\n        /* \"@openzeppelin/contracts/token/ERC721/ERC721.sol\":4583:4595  _msgSender() */\n      tag_119\n        /* \"@openzeppelin/contracts/token/ERC721/ERC721.sol\":4583:4593  _msgSender */\n      tag_113\n        /* \"@openzeppelin/contracts/token/ERC721/ERC721.sol\":4583:4595  _msgSender() */\n      jump\t// in\n    tag_119:\n        /* \"@openzeppelin/contracts/token/ERC721/ERC721.sol\":4562:4569  _update */\n      tag_120\n        /* \"@openzeppelin/contracts/token/ERC721/ERC721.sol\":4562:4596  _update(to, tokenId, _msgSender()) */\n      jump\t// in\n    tag_118:\n        /* \"@openzeppelin/contracts/token/ERC721/ERC721.sol\":4538:4596  address previousOwner = _update(to, tokenId, _msgSender()) */\n      swap1\n      pop\n        /* \"@openzeppelin/contracts/token/ERC721/ERC721.sol\":4627:4631  from */\n      dup4\n        /* \"@openzeppelin/contracts/token/ERC721/ERC721.sol\":4610:4631  previousOwner != from */\n      0xffffffffffffffffffffffffffffffffffffffff\n      and\n        /* \"@openzeppelin/contracts/token/ERC721/ERC721.sol\":4610:4623  previousOwner */\n      dup2\n        /* \"@openzeppelin/contracts/token/ERC721/ERC721.sol\":4610:4631  previousOwner != from */\n      0xffffffffffffffffffffffffffffffffffffffff\n      and\n      eq\n        /* \"@openzeppelin/contracts/token/ERC721/ERC721.sol\":4606:4715  if (previousOwner != from) {... */\n      tag_121\n      jumpi\n        /* \"@openzeppelin/contracts/token/ERC721/ERC721.sol\":4675:4679  from */\n      dup4\n        /* \"@openzeppelin/contracts/token/ERC721/ERC721.sol\":4681:4688  tokenId */\n      dup3\n        /* \"@openzeppelin/contracts/token/ERC721/ERC721.sol\":4690:4703  previousOwner */\n      dup3\n        /* \"@openzeppelin/contracts/token/ERC721/ERC721.sol\":4654:4704  ERC721IncorrectOwner(from, tokenId, previousOwner) */\n      mload(0x40)\n      0x64283d7b00000000000000000000000000000000000000000000000000000000\n      dup2\n      mstore\n      0x04\n      add\n      tag_122\n      swap4\n      swap3\n      swap2\n      swap1\n      tag_123\n      jump\t// in\n    tag_122:\n      mload(0x40)\n      dup1\n      swap2\n      sub\n      swap1\n      revert\n        /* \"@openzeppelin/contracts/token/ERC721/ERC721.sol\":4606:4715  if (previousOwner != from) {... */\n    tag_121:\n        /* \"@openzeppelin/contracts/token/ERC721/ERC721.sol\":4223:4721  {... */\n      pop\n        /* \"@openzeppelin/contracts/token/ERC721/ERC721.sol\":4143:4721  function transferFrom(address from, address to, uint256 tokenId) public virtual {... */\n      pop\n      pop\n      pop\n      jump\t// out\n        /* \"@openzeppelin/contracts/token/ERC721/ERC721.sol\":4787:4919  function safeTransferFrom(address from, address to, uint256 tokenId) public {... */\n    tag_53:\n        /* \"@openzeppelin/contracts/token/ERC721/ERC721.sol\":4873:4912  safeTransferFrom(from, to, tokenId, \"\") */\n      tag_125\n        /* \"@openzeppelin/contracts/token/ERC721/ERC721.sol\":4890:4894  from */\n      dup4\n        /* \"@openzeppelin/contracts/token/ERC721/ERC721.sol\":4896:4898  to */\n      dup4\n        /* \"@openzeppelin/contracts/token/ERC721/ERC721.sol\":4900:4907  tokenId */\n      dup4\n        /* \"@openzeppelin/contracts/token/ERC721/ERC721.sol\":4873:4912  safeTransferFrom(from, to, tokenId, \"\") */\n      mload(0x40)\n      dup1\n      0x20\n      add\n      0x40\n      mstore\n      dup1\n      0x00\n      dup2\n      mstore\n      pop\n        /* \"@openzeppelin/contracts/token/ERC721/ERC721.sol\":4873:4889  safeTransferFrom */\n      tag_77\n        /* \"@openzeppelin/contracts/token/ERC721/ERC721.sol\":4873:4912  safeTransferFrom(from, to, tokenId, \"\") */\n      jump\t// in\n    tag_125:\n        /* \"@openzeppelin/contracts/token/ERC721/ERC721.sol\":4787:4919  function safeTransferFrom(address from, address to, uint256 tokenId) public {... */\n      pop\n      pop\n      pop\n      jump\t// out\n        /* \"SportNFT.sol\":728:820  function setBaseURI(string memory baseURI) external {... */\n    tag_57:\n        /* \"SportNFT.sol\":806:813  baseURI */\n      dup1\n        /* \"SportNFT.sol\":790:803  _baseTokenURI */\n      0x08\n        /* \"SportNFT.sol\":790:813  _baseTokenURI = baseURI */\n      swap1\n      dup2\n      tag_127\n      swap2\n      swap1\n      tag_128\n      jump\t// in\n    tag_127:\n      pop\n        /* \"SportNFT.sol\":728:820  function setBaseURI(string memory baseURI) external {... */\n      pop\n      jump\t// out\n        /* \"@openzeppelin/contracts/token/ERC721/ERC721.sol\":2185:2303  function ownerOf(uint256 tokenId) public view virtual returns (address) {... */\n    tag_60:\n        /* \"@openzeppelin/contracts/token/ERC721/ERC721.sol\":2248:2255  address */\n      0x00\n        /* \"@openzeppelin/contracts/token/ERC721/ERC721.sol\":2274:2296  _requireOwned(tokenId) */\n      tag_130\n        /* \"@openzeppelin/contracts/token/ERC721/ERC721.sol\":2288:2295  tokenId */\n      dup3\n        /* \"@openzeppelin/contracts/token/ERC721/ERC721.sol\":2274:2287  _requireOwned */\n      tag_107\n        /* \"@openzeppelin/contracts/token/ERC721/ERC721.sol\":2274:2296  _requireOwned(tokenId) */\n      jump\t// in\n    tag_130:\n        /* \"@openzeppelin/contracts/token/ERC721/ERC721.sol\":2267:2296  return _requireOwned(tokenId) */\n      swap1\n      pop\n        /* \"@openzeppelin/contracts/token/ERC721/ERC721.sol\":2185:2303  function ownerOf(uint256 tokenId) public view virtual returns (address) {... */\n      swap2\n      swap1\n      pop\n      jump\t// out\n        /* \"@openzeppelin/contracts/token/ERC721/ERC721.sol\":1920:2128  function balanceOf(address owner) public view virtual returns (uint256) {... */\n    tag_65:\n        /* \"@openzeppelin/contracts/token/ERC721/ERC721.sol\":1983:1990  uint256 */\n      0x00\n        /* \"@openzeppelin/contracts/token/ERC721/ERC721.sol\":2023:2024  0 */\n      dup1\n        /* \"@openzeppelin/contracts/token/ERC721/ERC721.sol\":2006:2025  owner == address(0) */\n      0xffffffffffffffffffffffffffffffffffffffff\n      and\n        /* \"@openzeppelin/contracts/token/ERC721/ERC721.sol\":2006:2011  owner */\n      dup3\n        /* \"@openzeppelin/contracts/token/ERC721/ERC721.sol\":2006:2025  owner == address(0) */\n      0xffffffffffffffffffffffffffffffffffffffff\n      and\n      sub\n        /* \"@openzeppelin/contracts/token/ERC721/ERC721.sol\":2002:2089  if (owner == address(0)) {... */\n      tag_132\n      jumpi\n        /* \"@openzeppelin/contracts/token/ERC721/ERC721.sol\":2075:2076  0 */\n      0x00\n        /* \"@openzeppelin/contracts/token/ERC721/ERC721.sol\":2048:2078  ERC721InvalidOwner(address(0)) */\n      mload(0x40)\n      0x89c62b6400000000000000000000000000000000000000000000000000000000\n      dup2\n      mstore\n      0x04\n      add\n      tag_133\n      swap2\n      swap1\n      tag_42\n      jump\t// in\n    tag_133:\n      mload(0x40)\n      dup1\n      swap2\n      sub\n      swap1\n      revert\n        /* \"@openzeppelin/contracts/token/ERC721/ERC721.sol\":2002:2089  if (owner == address(0)) {... */\n    tag_132:\n        /* \"@openzeppelin/contracts/token/ERC721/ERC721.sol\":2105:2114  _balances */\n      0x03\n        /* \"@openzeppelin/contracts/token/ERC721/ERC721.sol\":2105:2121  _balances[owner] */\n      0x00\n        /* \"@openzeppelin/contracts/token/ERC721/ERC721.sol\":2115:2120  owner */\n      dup4\n        /* \"@openzeppelin/contracts/token/ERC721/ERC721.sol\":2105:2121  _balances[owner] */\n      0xffffffffffffffffffffffffffffffffffffffff\n      and\n      0xffffffffffffffffffffffffffffffffffffffff\n      and\n      dup2\n      mstore\n      0x20\n      add\n      swap1\n      dup2\n      mstore\n      0x20\n      add\n      0x00\n      keccak256\n      sload\n        /* \"@openzeppelin/contracts/token/ERC721/ERC721.sol\":2098:2121  return _balances[owner] */\n      swap1\n      pop\n        /* \"@openzeppelin/contracts/token/ERC721/ERC721.sol\":1920:2128  function balanceOf(address owner) public view virtual returns (uint256) {... */\n      swap2\n      swap1\n      pop\n      jump\t// out\n        /* \"@openzeppelin/contracts/token/ERC721/ERC721.sol\":2518:2611  function symbol() public view virtual returns (string memory) {... */\n    tag_68:\n        /* \"@openzeppelin/contracts/token/ERC721/ERC721.sol\":2565:2578  string memory */\n      0x60\n        /* \"@openzeppelin/contracts/token/ERC721/ERC721.sol\":2597:2604  _symbol */\n      0x01\n        /* \"@openzeppelin/contracts/token/ERC721/ERC721.sol\":2590:2604  return _symbol */\n      dup1\n      sload\n      tag_135\n      swap1\n      tag_100\n      jump\t// in\n    tag_135:\n      dup1\n      0x1f\n      add\n      0x20\n      dup1\n      swap2\n      div\n      mul\n      0x20\n      add\n      mload(0x40)\n      swap1\n      dup2\n      add\n      0x40\n      mstore\n      dup1\n      swap3\n      swap2\n      swap1\n      dup2\n      dup2\n      mstore\n      0x20\n      add\n      dup3\n      dup1\n      sload\n      tag_136\n      swap1\n      tag_100\n      jump\t// in\n    tag_136:\n      dup1\n      iszero\n      tag_137\n      jumpi\n      dup1\n      0x1f\n      lt\n      tag_138\n      jumpi\n      0x0100\n      dup1\n      dup4\n      sload\n      div\n      mul\n      dup4\n      mstore\n      swap2\n      0x20\n      add\n      swap2\n      jump(tag_137)\n    tag_138:\n      dup3\n      add\n      swap2\n      swap1\n      0x00\n      mstore\n      keccak256(0x00, 0x20)\n      swap1\n    tag_139:\n      dup2\n      sload\n      dup2\n      mstore\n      swap1\n      0x01\n      add\n      swap1\n      0x20\n      add\n      dup1\n      dup4\n      gt\n      tag_139\n      jumpi\n      dup3\n      swap1\n      sub\n      0x1f\n      and\n      dup3\n      add\n      swap2\n    tag_137:\n      pop\n      pop\n      pop\n      pop\n      pop\n      swap1\n      pop\n        /* \"@openzeppelin/contracts/token/ERC721/ERC721.sol\":2518:2611  function symbol() public view virtual returns (string memory) {... */\n      swap1\n      jump\t// out\n        /* \"@openzeppelin/contracts/token/ERC721/ERC721.sol\":3718:3862  function setApprovalForAll(address operator, bool approved) public virtual {... */\n    tag_73:\n        /* \"@openzeppelin/contracts/token/ERC721/ERC721.sol\":3803:3855  _setApprovalForAll(_msgSender(), operator, approved) */\n      tag_141\n        /* \"@openzeppelin/contracts/token/ERC721/ERC721.sol\":3822:3834  _msgSender() */\n      tag_142\n        /* \"@openzeppelin/contracts/token/ERC721/ERC721.sol\":3822:3832  _msgSender */\n      tag_113\n        /* \"@openzeppelin/contracts/token/ERC721/ERC721.sol\":3822:3834  _msgSender() */\n      jump\t// in\n    tag_142:\n        /* \"@openzeppelin/contracts/token/ERC721/ERC721.sol\":3836:3844  operator */\n      dup4\n        /* \"@openzeppelin/contracts/token/ERC721/ERC721.sol\":3846:3854  approved */\n      dup4\n        /* \"@openzeppelin/contracts/token/ERC721/ERC721.sol\":3803:3821  _setApprovalForAll */\n      tag_143\n        /* \"@openzeppelin/contracts/token/ERC721/ERC721.sol\":3803:3855  _setApprovalForAll(_msgSender(), operator, approved) */\n      jump\t// in\n    tag_141:\n        /* \"@openzeppelin/contracts/token/ERC721/ERC721.sol\":3718:3862  function setApprovalForAll(address operator, bool approved) public virtual {... */\n      pop\n      pop\n      jump\t// out\n        /* \"@openzeppelin/contracts/token/ERC721/ERC721.sol\":4985:5193  function safeTransferFrom(address from, address to, uint256 tokenId, bytes memory data) public virtual {... */\n    tag_77:\n        /* \"@openzeppelin/contracts/token/ERC721/ERC721.sol\":5098:5129  transferFrom(from, to, tokenId) */\n      tag_145\n        /* \"@openzeppelin/contracts/token/ERC721/ERC721.sol\":5111:5115  from */\n      dup5\n        /* \"@openzeppelin/contracts/token/ERC721/ERC721.sol\":5117:5119  to */\n      dup5\n        /* \"@openzeppelin/contracts/token/ERC721/ERC721.sol\":5121:5128  tokenId */\n      dup5\n        /* \"@openzeppelin/contracts/token/ERC721/ERC721.sol\":5098:5110  transferFrom */\n      tag_50\n        /* \"@openzeppelin/contracts/token/ERC721/ERC721.sol\":5098:5129  transferFrom(from, to, tokenId) */\n      jump\t// in\n    tag_145:\n        /* \"@openzeppelin/contracts/token/ERC721/ERC721.sol\":5139:5186  _checkOnERC721Received(from, to, tokenId, data) */\n      tag_146\n        /* \"@openzeppelin/contracts/token/ERC721/ERC721.sol\":5162:5166  from */\n      dup5\n        /* \"@openzeppelin/contracts/token/ERC721/ERC721.sol\":5168:5170  to */\n      dup5\n        /* \"@openzeppelin/contracts/token/ERC721/ERC721.sol\":5172:5179  tokenId */\n      dup5\n        /* \"@openzeppelin/contracts/token/ERC721/ERC721.sol\":5181:5185  data */\n      dup5\n        /* \"@openzeppelin/contracts/token/ERC721/ERC721.sol\":5139:5161  _checkOnERC721Received */\n      tag_147\n        /* \"@openzeppelin/contracts/token/ERC721/ERC721.sol\":5139:5186  _checkOnERC721Received(from, to, tokenId, data) */\n      jump\t// in\n    tag_146:\n        /* \"@openzeppelin/contracts/token/ERC721/ERC721.sol\":4985:5193  function safeTransferFrom(address from, address to, uint256 tokenId, bytes memory data) public virtual {... */\n      pop\n      pop\n      pop\n      pop\n      jump\t// out\n        /* \"@openzeppelin/contracts/token/ERC721/extensions/ERC721URIStorage.sol\":1210:1803  function tokenURI(uint256 tokenId) public view virtual override returns (string memory) {... */\n    tag_80:\n        /* \"@openzeppelin/contracts/token/ERC721/extensions/ERC721URIStorage.sol\":1283:1296  string memory */\n      0x60\n        /* \"@openzeppelin/contracts/token/ERC721/extensions/ERC721URIStorage.sol\":1308:1330  _requireOwned(tokenId) */\n      tag_149\n        /* \"@openzeppelin/contracts/token/ERC721/extensions/ERC721URIStorage.sol\":1322:1329  tokenId */\n      dup3\n        /* \"@openzeppelin/contracts/token/ERC721/extensions/ERC721URIStorage.sol\":1308:1321  _requireOwned */\n      tag_107\n        /* \"@openzeppelin/contracts/token/ERC721/extensions/ERC721URIStorage.sol\":1308:1330  _requireOwned(tokenId) */\n      jump\t// in\n    tag_149:\n      pop\n        /* \"@openzeppelin/contracts/token/ERC721/extensions/ERC721URIStorage.sol\":1341:1364  string memory _tokenURI */\n      0x00\n        /* \"@openzeppelin/contracts/token/ERC721/extensions/ERC721URIStorage.sol\":1367:1377  _tokenURIs */\n      0x06\n        /* \"@openzeppelin/contracts/token/ERC721/extensions/ERC721URIStorage.sol\":1367:1386  _tokenURIs[tokenId] */\n      0x00\n        /* \"@openzeppelin/contracts/token/ERC721/extensions/ERC721URIStorage.sol\":1378:1385  tokenId */\n      dup5\n        /* \"@openzeppelin/contracts/token/ERC721/extensions/ERC721URIStorage.sol\":1367:1386  _tokenURIs[tokenId] */\n      dup2\n      mstore\n      0x20\n      add\n      swap1\n      dup2\n      mstore\n      0x20\n      add\n      0x00\n      keccak256\n        /* \"@openzeppelin/contracts/token/ERC721/extensions/ERC721URIStorage.sol\":1341:1386  string memory _tokenURI = _tokenURIs[tokenId] */\n      dup1\n      sload\n      tag_150\n      swap1\n      tag_100\n      jump\t// in\n    tag_150:\n      dup1\n      0x1f\n      add\n      0x20\n      dup1\n      swap2\n      div\n      mul\n      0x20\n      add\n      mload(0x40)\n      swap1\n      dup2\n      add\n      0x40\n      mstore\n      dup1\n      swap3\n      swap2\n      swap1\n      dup2\n      dup2\n      mstore\n      0x20\n      add\n      dup3\n      dup1\n      sload\n      tag_151\n      swap1\n      tag_100\n      jump\t// in\n    tag_151:\n      dup1\n      iszero\n      tag_152\n      jumpi\n      dup1\n      0x1f\n      lt\n      tag_153\n      jumpi\n      0x0100\n      dup1\n      dup4\n      sload\n      div\n      mul\n      dup4\n      mstore\n      swap2\n      0x20\n      add\n      swap2\n      jump(tag_152)\n    tag_153:\n      dup3\n      add\n      swap2\n      swap1\n      0x00\n      mstore\n      keccak256(0x00, 0x20)\n      swap1\n    tag_154:\n      dup2\n      sload\n      dup2\n      mstore\n      swap1\n      0x01\n      add\n      swap1\n      0x20\n      add\n      dup1\n      dup4\n      gt\n      tag_154\n      jumpi\n      dup3\n      swap1\n      sub\n      0x1f\n      and\n      dup3\n      add\n      swap2\n    tag_152:\n      pop\n      pop\n      pop\n      pop\n      pop\n      swap1\n      pop\n        /* \"@openzeppelin/contracts/token/ERC721/extensions/ERC721URIStorage.sol\":1396:1414  string memory base */\n      0x00\n        /* \"@openzeppelin/contracts/token/ERC721/extensions/ERC721URIStorage.sol\":1417:1427  _baseURI() */\n      tag_155\n        /* \"@openzeppelin/contracts/token/ERC721/extensions/ERC721URIStorage.sol\":1417:1425  _baseURI */\n      tag_156\n        /* \"@openzeppelin/contracts/token/ERC721/extensions/ERC721URIStorage.sol\":1417:1427  _baseURI() */\n      jump\t// in\n    tag_155:\n        /* \"@openzeppelin/contracts/token/ERC721/extensions/ERC721URIStorage.sol\":1396:1427  string memory base = _baseURI() */\n      swap1\n      pop\n        /* \"@openzeppelin/contracts/token/ERC721/extensions/ERC721URIStorage.sol\":1522:1523  0 */\n      0x00\n        /* \"@openzeppelin/contracts/token/ERC721/extensions/ERC721URIStorage.sol\":1506:1510  base */\n      dup2\n        /* \"@openzeppelin/contracts/token/ERC721/extensions/ERC721URIStorage.sol\":1500:1518  bytes(base).length */\n      mload\n        /* \"@openzeppelin/contracts/token/ERC721/extensions/ERC721URIStorage.sol\":1500:1523  bytes(base).length == 0 */\n      sub\n        /* \"@openzeppelin/contracts/token/ERC721/extensions/ERC721URIStorage.sol\":1496:1566  if (bytes(base).length == 0) {... */\n      tag_157\n      jumpi\n        /* \"@openzeppelin/contracts/token/ERC721/extensions/ERC721URIStorage.sol\":1546:1555  _tokenURI */\n      dup2\n        /* \"@openzeppelin/contracts/token/ERC721/extensions/ERC721URIStorage.sol\":1539:1555  return _tokenURI */\n      swap3\n      pop\n      pop\n      pop\n      jump(tag_148)\n        /* \"@openzeppelin/contracts/token/ERC721/extensions/ERC721URIStorage.sol\":1496:1566  if (bytes(base).length == 0) {... */\n    tag_157:\n        /* \"@openzeppelin/contracts/token/ERC721/extensions/ERC721URIStorage.sol\":1691:1692  0 */\n      0x00\n        /* \"@openzeppelin/contracts/token/ERC721/extensions/ERC721URIStorage.sol\":1671:1680  _tokenURI */\n      dup3\n        /* \"@openzeppelin/contracts/token/ERC721/extensions/ERC721URIStorage.sol\":1665:1688  bytes(_tokenURI).length */\n      mload\n        /* \"@openzeppelin/contracts/token/ERC721/extensions/ERC721URIStorage.sol\":1665:1692  bytes(_tokenURI).length > 0 */\n      gt\n        /* \"@openzeppelin/contracts/token/ERC721/extensions/ERC721URIStorage.sol\":1661:1756  if (bytes(_tokenURI).length > 0) {... */\n      iszero\n      tag_158\n      jumpi\n        /* \"@openzeppelin/contracts/token/ERC721/extensions/ERC721URIStorage.sol\":1729:1733  base */\n      dup1\n        /* \"@openzeppelin/contracts/token/ERC721/extensions/ERC721URIStorage.sol\":1735:1744  _tokenURI */\n      dup3\n        /* \"@openzeppelin/contracts/token/ERC721/extensions/ERC721URIStorage.sol\":1715:1745  string.concat(base, _tokenURI) */\n      add(0x20, mload(0x40))\n      tag_159\n      swap3\n      swap2\n      swap1\n      tag_160\n      jump\t// in\n    tag_159:\n      mload(0x40)\n      0x20\n      dup2\n      dup4\n      sub\n      sub\n      dup2\n      mstore\n      swap1\n      0x40\n      mstore\n        /* \"@openzeppelin/contracts/token/ERC721/extensions/ERC721URIStorage.sol\":1708:1745  return string.concat(base, _tokenURI) */\n      swap3\n      pop\n      pop\n      pop\n      jump(tag_148)\n        /* \"@openzeppelin/contracts/token/ERC721/extensions/ERC721URIStorage.sol\":1661:1756  if (bytes(_tokenURI).length > 0) {... */\n    tag_158:\n        /* \"@openzeppelin/contracts/token/ERC721/extensions/ERC721URIStorage.sol\":1773:1796  super.tokenURI(tokenId) */\n      tag_161\n        /* \"@openzeppelin/contracts/token/ERC721/extensions/ERC721URIStorage.sol\":1788:1795  tokenId */\n      dup5\n        /* \"@openzeppelin/contracts/token/ERC721/extensions/ERC721URIStorage.sol\":1773:1787  super.tokenURI */\n      tag_162\n        /* \"@openzeppelin/contracts/token/ERC721/extensions/ERC721URIStorage.sol\":1773:1796  super.tokenURI(tokenId) */\n      jump\t// in\n    tag_161:\n        /* \"@openzeppelin/contracts/token/ERC721/extensions/ERC721URIStorage.sol\":1766:1796  return super.tokenURI(tokenId) */\n      swap3\n      pop\n      pop\n      pop\n        /* \"@openzeppelin/contracts/token/ERC721/extensions/ERC721URIStorage.sol\":1210:1803  function tokenURI(uint256 tokenId) public view virtual override returns (string memory) {... */\n    tag_148:\n      swap2\n      swap1\n      pop\n      jump\t// out\n        /* \"@openzeppelin/contracts/token/ERC721/ERC721.sol\":3928:4081  function isApprovedForAll(address owner, address operator) public view virtual returns (bool) {... */\n    tag_85:\n        /* \"@openzeppelin/contracts/token/ERC721/ERC721.sol\":4016:4020  bool */\n      0x00\n        /* \"@openzeppelin/contracts/token/ERC721/ERC721.sol\":4039:4057  _operatorApprovals */\n      0x05\n        /* \"@openzeppelin/contracts/token/ERC721/ERC721.sol\":4039:4064  _operatorApprovals[owner] */\n      0x00\n        /* \"@openzeppelin/contracts/token/ERC721/ERC721.sol\":4058:4063  owner */\n      dup5\n        /* \"@openzeppelin/contracts/token/ERC721/ERC721.sol\":4039:4064  _operatorApprovals[owner] */\n      0xffffffffffffffffffffffffffffffffffffffff\n      and\n      0xffffffffffffffffffffffffffffffffffffffff\n      and\n      dup2\n      mstore\n      0x20\n      add\n      swap1\n      dup2\n      mstore\n      0x20\n      add\n      0x00\n      keccak256\n        /* \"@openzeppelin/contracts/token/ERC721/ERC721.sol\":4039:4074  _operatorApprovals[owner][operator] */\n      0x00\n        /* \"@openzeppelin/contracts/token/ERC721/ERC721.sol\":4065:4073  operator */\n      dup4\n        /* \"@openzeppelin/contracts/token/ERC721/ERC721.sol\":4039:4074  _operatorApprovals[owner][operator] */\n      0xffffffffffffffffffffffffffffffffffffffff\n      and\n      0xffffffffffffffffffffffffffffffffffffffff\n      and\n      dup2\n      mstore\n      0x20\n      add\n      swap1\n      dup2\n      mstore\n      0x20\n      add\n      0x00\n      keccak256\n      0x00\n      swap1\n      sload\n      swap1\n      0x0100\n      exp\n      swap1\n      div\n      0xff\n      and\n        /* \"@openzeppelin/contracts/token/ERC721/ERC721.sol\":4032:4074  return _operatorApprovals[owner][operator] */\n      swap1\n      pop\n        /* \"@openzeppelin/contracts/token/ERC721/ERC721.sol\":3928:4081  function isApprovedForAll(address owner, address operator) public view virtual returns (bool) {... */\n      swap3\n      swap2\n      pop\n      pop\n      jump\t// out\n        /* \"@openzeppelin/contracts/token/ERC721/ERC721.sol\":1561:1861  function supportsInterface(bytes4 interfaceId) public view virtual override(ERC165, IERC165) returns (bool) {... */\n    tag_90:\n        /* \"@openzeppelin/contracts/token/ERC721/ERC721.sol\":1663:1667  bool */\n      0x00\n        /* \"@openzeppelin/contracts/token/ERC721/ERC721.sol\":1713:1738  type(IERC721).interfaceId */\n      0x80ac58cd00000000000000000000000000000000000000000000000000000000\n        /* \"@openzeppelin/contracts/token/ERC721/ERC721.sol\":1698:1738  interfaceId == type(IERC721).interfaceId */\n      not(0xffffffffffffffffffffffffffffffffffffffffffffffffffffffff)\n      and\n        /* \"@openzeppelin/contracts/token/ERC721/ERC721.sol\":1698:1709  interfaceId */\n      dup3\n        /* \"@openzeppelin/contracts/token/ERC721/ERC721.sol\":1698:1738  interfaceId == type(IERC721).interfaceId */\n      not(0xffffffffffffffffffffffffffffffffffffffffffffffffffffffff)\n      and\n      eq\n        /* \"@openzeppelin/contracts/token/ERC721/ERC721.sol\":1698:1802  interfaceId == type(IERC721).interfaceId ||... */\n      dup1\n      tag_165\n      jumpi\n      pop\n        /* \"@openzeppelin/contracts/token/ERC721/ERC721.sol\":1769:1802  type(IERC721Metadata).interfaceId */\n      0x5b5e139f00000000000000000000000000000000000000000000000000000000\n        /* \"@openzeppelin/contracts/token/ERC721/ERC721.sol\":1754:1802  interfaceId == type(IERC721Metadata).interfaceId */\n      not(0xffffffffffffffffffffffffffffffffffffffffffffffffffffffff)\n      and\n        /* \"@openzeppelin/contracts/token/ERC721/ERC721.sol\":1754:1765  interfaceId */\n      dup3\n        /* \"@openzeppelin/contracts/token/ERC721/ERC721.sol\":1754:1802  interfaceId == type(IERC721Metadata).interfaceId */\n      not(0xffffffffffffffffffffffffffffffffffffffffffffffffffffffff)\n      and\n      eq\n        /* \"@openzeppelin/contracts/token/ERC721/ERC721.sol\":1698:1802  interfaceId == type(IERC721).interfaceId ||... */\n    tag_165:\n        /* \"@openzeppelin/contracts/token/ERC721/ERC721.sol\":1698:1854  interfaceId == type(IERC721).interfaceId ||... */\n      dup1\n      tag_166\n      jumpi\n      pop\n        /* \"@openzeppelin/contracts/token/ERC721/ERC721.sol\":1818:1854  super.supportsInterface(interfaceId) */\n      tag_167\n        /* \"@openzeppelin/contracts/token/ERC721/ERC721.sol\":1842:1853  interfaceId */\n      dup3\n        /* \"@openzeppelin/contracts/token/ERC721/ERC721.sol\":1818:1841  super.supportsInterface */\n      tag_168\n        /* \"@openzeppelin/contracts/token/ERC721/ERC721.sol\":1818:1854  super.supportsInterface(interfaceId) */\n      jump\t// in\n    tag_167:\n        /* \"@openzeppelin/contracts/token/ERC721/ERC721.sol\":1698:1854  interfaceId == type(IERC721).interfaceId ||... */\n    tag_166:\n        /* \"@openzeppelin/contracts/token/ERC721/ERC721.sol\":1679:1854  return... */\n      swap1\n      pop\n        /* \"@openzeppelin/contracts/token/ERC721/ERC721.sol\":1561:1861  function supportsInterface(bytes4 interfaceId) public view virtual override(ERC165, IERC165) returns (bool) {... */\n      swap2\n      swap1\n      pop\n      jump\t// out\n        /* \"@openzeppelin/contracts/token/ERC721/ERC721.sol\":9955:10282  function _mint(address to, uint256 tokenId) internal {... */\n    tag_95:\n        /* \"@openzeppelin/contracts/token/ERC721/ERC721.sol\":10036:10037  0 */\n      0x00\n        /* \"@openzeppelin/contracts/token/ERC721/ERC721.sol\":10022:10038  to == address(0) */\n      0xffffffffffffffffffffffffffffffffffffffff\n      and\n        /* \"@openzeppelin/contracts/token/ERC721/ERC721.sol\":10022:10024  to */\n      dup3\n        /* \"@openzeppelin/contracts/token/ERC721/ERC721.sol\":10022:10038  to == address(0) */\n      0xffffffffffffffffffffffffffffffffffffffff\n      and\n      sub\n        /* \"@openzeppelin/contracts/token/ERC721/ERC721.sol\":10018:10105  if (to == address(0)) {... */\n      tag_170\n      jumpi\n        /* \"@openzeppelin/contracts/token/ERC721/ERC721.sol\":10091:10092  0 */\n      0x00\n        /* \"@openzeppelin/contracts/token/ERC721/ERC721.sol\":10061:10094  ERC721InvalidReceiver(address(0)) */\n      mload(0x40)\n      0x64a0ae9200000000000000000000000000000000000000000000000000000000\n      dup2\n      mstore\n      0x04\n      add\n      tag_171\n      swap2\n      swap1\n      tag_42\n      jump\t// in\n    tag_171:\n      mload(0x40)\n      dup1\n      swap2\n      sub\n      swap1\n      revert\n        /* \"@openzeppelin/contracts/token/ERC721/ERC721.sol\":10018:10105  if (to == address(0)) {... */\n    tag_170:\n        /* \"@openzeppelin/contracts/token/ERC721/ERC721.sol\":10114:10135  address previousOwner */\n      0x00\n        /* \"@openzeppelin/contracts/token/ERC721/ERC721.sol\":10138:10170  _update(to, tokenId, address(0)) */\n      tag_172\n        /* \"@openzeppelin/contracts/token/ERC721/ERC721.sol\":10146:10148  to */\n      dup4\n        /* \"@openzeppelin/contracts/token/ERC721/ERC721.sol\":10150:10157  tokenId */\n      dup4\n        /* \"@openzeppelin/contracts/token/ERC721/ERC721.sol\":10167:10168  0 */\n      0x00\n        /* \"@openzeppelin/contracts/token/ERC721/ERC721.sol\":10138:10145  _update */\n      tag_120\n        /* \"@openzeppelin/contracts/token/ERC721/ERC721.sol\":10138:10170  _update(to, tokenId, address(0)) */\n      jump\t// in\n    tag_172:\n        /* \"@openzeppelin/contracts/token/ERC721/ERC721.sol\":10114:10170  address previousOwner = _update(to, tokenId, address(0)) */\n      swap1\n      pop\n        /* \"@openzeppelin/contracts/token/ERC721/ERC721.sol\":10209:10210  0 */\n      0x00\n        /* \"@openzeppelin/contracts/token/ERC721/ERC721.sol\":10184:10211  previousOwner != address(0) */\n      0xffffffffffffffffffffffffffffffffffffffff\n      and\n        /* \"@openzeppelin/contracts/token/ERC721/ERC721.sol\":10184:10197  previousOwner */\n      dup2\n        /* \"@openzeppelin/contracts/token/ERC721/ERC721.sol\":10184:10211  previousOwner != address(0) */\n      0xffffffffffffffffffffffffffffffffffffffff\n      and\n      eq\n        /* \"@openzeppelin/contracts/token/ERC721/ERC721.sol\":10180:10276  if (previousOwner != address(0)) {... */\n      tag_173\n      jumpi\n        /* \"@openzeppelin/contracts/token/ERC721/ERC721.sol\":10262:10263  0 */\n      0x00\n        /* \"@openzeppelin/contracts/token/ERC721/ERC721.sol\":10234:10265  ERC721InvalidSender(address(0)) */\n      mload(0x40)\n      0x73c6ac6e00000000000000000000000000000000000000000000000000000000\n      dup2\n      mstore\n      0x04\n      add\n      tag_174\n      swap2\n      swap1\n      tag_42\n      jump\t// in\n    tag_174:\n      mload(0x40)\n      dup1\n      swap2\n      sub\n      swap1\n      revert\n        /* \"@openzeppelin/contracts/token/ERC721/ERC721.sol\":10180:10276  if (previousOwner != address(0)) {... */\n    tag_173:\n        /* \"@openzeppelin/contracts/token/ERC721/ERC721.sol\":10008:10282  {... */\n      pop\n        /* \"@openzeppelin/contracts/token/ERC721/ERC721.sol\":9955:10282  function _mint(address to, uint256 tokenId) internal {... */\n      pop\n      pop\n      jump\t// out\n        /* \"@openzeppelin/contracts/token/ERC721/extensions/ERC721URIStorage.sol\":1922:2089  function _setTokenURI(uint256 tokenId, string memory _tokenURI) internal virtual {... */\n    tag_97:\n        /* \"@openzeppelin/contracts/token/ERC721/extensions/ERC721URIStorage.sol\":2035:2044  _tokenURI */\n      dup1\n        /* \"@openzeppelin/contracts/token/ERC721/extensions/ERC721URIStorage.sol\":2013:2023  _tokenURIs */\n      0x06\n        /* \"@openzeppelin/contracts/token/ERC721/extensions/ERC721URIStorage.sol\":2013:2032  _tokenURIs[tokenId] */\n      0x00\n        /* \"@openzeppelin/contracts/token/ERC721/extensions/ERC721URIStorage.sol\":2024:2031  tokenId */\n      dup5\n        /* \"@openzeppelin/contracts/token/ERC721/extensions/ERC721URIStorage.sol\":2013:2032  _tokenURIs[tokenId] */\n      dup2\n      mstore\n      0x20\n      add\n      swap1\n      dup2\n      mstore\n      0x20\n      add\n      0x00\n      keccak256\n        /* \"@openzeppelin/contracts/token/ERC721/extensions/ERC721URIStorage.sol\":2013:2044  _tokenURIs[tokenId] = _tokenURI */\n      swap1\n      dup2\n      tag_176\n      swap2\n      swap1\n      tag_128\n      jump\t// in\n    tag_176:\n      pop\n        /* \"@openzeppelin/contracts/token/ERC721/extensions/ERC721URIStorage.sol\":2059:2082  MetadataUpdate(tokenId) */\n      0xf8e1a15aba9398e019f0b49df1a4fde98ee17ae345cb5f6b5e2c27f5033e8ce7\n        /* \"@openzeppelin/contracts/token/ERC721/extensions/ERC721URIStorage.sol\":2074:2081  tokenId */\n      dup3\n        /* \"@openzeppelin/contracts/token/ERC721/extensions/ERC721URIStorage.sol\":2059:2082  MetadataUpdate(tokenId) */\n      mload(0x40)\n      tag_177\n      swap2\n      swap1\n      tag_32\n      jump\t// in\n    tag_177:\n      mload(0x40)\n      dup1\n      swap2\n      sub\n      swap1\n      log1\n        /* \"@openzeppelin/contracts/token/ERC721/extensions/ERC721URIStorage.sol\":1922:2089  function _setTokenURI(uint256 tokenId, string memory _tokenURI) internal virtual {... */\n      pop\n      pop\n      jump\t// out\n        /* \"@openzeppelin/contracts/token/ERC721/ERC721.sol\":16138:16379  function _requireOwned(uint256 tokenId) internal view returns (address) {... */\n    tag_107:\n        /* \"@openzeppelin/contracts/token/ERC721/ERC721.sol\":16201:16208  address */\n      0x00\n        /* \"@openzeppelin/contracts/token/ERC721/ERC721.sol\":16220:16233  address owner */\n      dup1\n        /* \"@openzeppelin/contracts/token/ERC721/ERC721.sol\":16236:16253  _ownerOf(tokenId) */\n      tag_179\n        /* \"@openzeppelin/contracts/token/ERC721/ERC721.sol\":16245:16252  tokenId */\n      dup4\n        /* \"@openzeppelin/contracts/token/ERC721/ERC721.sol\":16236:16244  _ownerOf */\n      tag_180\n        /* \"@openzeppelin/contracts/token/ERC721/ERC721.sol\":16236:16253  _ownerOf(tokenId) */\n      jump\t// in\n    tag_179:\n        /* \"@openzeppelin/contracts/token/ERC721/ERC721.sol\":16220:16253  address owner = _ownerOf(tokenId) */\n      swap1\n      pop\n        /* \"@openzeppelin/contracts/token/ERC721/ERC721.sol\":16284:16285  0 */\n      0x00\n        /* \"@openzeppelin/contracts/token/ERC721/ERC721.sol\":16267:16286  owner == address(0) */\n      0xffffffffffffffffffffffffffffffffffffffff\n      and\n        /* \"@openzeppelin/contracts/token/ERC721/ERC721.sol\":16267:16272  owner */\n      dup2\n        /* \"@openzeppelin/contracts/token/ERC721/ERC721.sol\":16267:16286  owner == address(0) */\n      0xffffffffffffffffffffffffffffffffffffffff\n      and\n      sub\n        /* \"@openzeppelin/contracts/token/ERC721/ERC721.sol\":16263:16351  if (owner == address(0)) {... */\n      tag_181\n      jumpi\n        /* \"@openzeppelin/contracts/token/ERC721/ERC721.sol\":16332:16339  tokenId */\n      dup3\n        /* \"@openzeppelin/contracts/token/ERC721/ERC721.sol\":16309:16340  ERC721NonexistentToken(tokenId) */\n      mload(0x40)\n      0x7e27328900000000000000000000000000000000000000000000000000000000\n      dup2\n      mstore\n      0x04\n      add\n      tag_182\n      swap2\n      swap1\n      tag_32\n      jump\t// in\n    tag_182:\n      mload(0x40)\n      dup1\n      swap2\n      sub\n      swap1\n      revert\n        /* \"@openzeppelin/contracts/token/ERC721/ERC721.sol\":16263:16351  if (owner == address(0)) {... */\n    tag_181:\n        /* \"@openzeppelin/contracts/token/ERC721/ERC721.sol\":16367:16372  owner */\n      dup1\n        /* \"@openzeppelin/contracts/token/ERC721/ERC721.sol\":16360:16372  return owner */\n      swap2\n      pop\n      pop\n        /* \"@openzeppelin/contracts/token/ERC721/ERC721.sol\":16138:16379  function _requireOwned(uint256 tokenId) internal view returns (address) {... */\n      swap2\n      swap1\n      pop\n      jump\t// out\n        /* \"@openzeppelin/contracts/token/ERC721/ERC721.sol\":5938:6065  function _getApproved(uint256 tokenId) internal view virtual returns (address) {... */\n    tag_109:\n        /* \"@openzeppelin/contracts/token/ERC721/ERC721.sol\":6008:6015  address */\n      0x00\n        /* \"@openzeppelin/contracts/token/ERC721/ERC721.sol\":6034:6049  _tokenApprovals */\n      0x04\n        /* \"@openzeppelin/contracts/token/ERC721/ERC721.sol\":6034:6058  _tokenApprovals[tokenId] */\n      0x00\n        /* \"@openzeppelin/contracts/token/ERC721/ERC721.sol\":6050:6057  tokenId */\n      dup4\n        /* \"@openzeppelin/contracts/token/ERC721/ERC721.sol\":6034:6058  _tokenApprovals[tokenId] */\n      dup2\n      mstore\n      0x20\n      add\n      swap1\n      dup2\n      mstore\n      0x20\n      add\n      0x00\n      keccak256\n      0x00\n      swap1\n      sload\n      swap1\n      0x0100\n      exp\n      swap1\n      div\n      0xffffffffffffffffffffffffffffffffffffffff\n      and\n        /* \"@openzeppelin/contracts/token/ERC721/ERC721.sol\":6027:6058  return _tokenApprovals[tokenId] */\n      swap1\n      pop\n        /* \"@openzeppelin/contracts/token/ERC721/ERC721.sol\":5938:6065  function _getApproved(uint256 tokenId) internal view virtual returns (address) {... */\n      swap2\n      swap1\n      pop\n      jump\t// out\n        /* \"@openzeppelin/contracts/utils/Context.sol\":656:752  function _msgSender() internal view virtual returns (address) {... */\n    tag_113:\n        /* \"@openzeppelin/contracts/utils/Context.sol\":709:716  address */\n      0x00\n        /* \"@openzeppelin/contracts/utils/Context.sol\":735:745  msg.sender */\n      caller\n        /* \"@openzeppelin/contracts/utils/Context.sol\":728:745  return msg.sender */\n      swap1\n      pop\n        /* \"@openzeppelin/contracts/utils/Context.sol\":656:752  function _msgSender() internal view virtual returns (address) {... */\n      swap1\n      jump\t// out\n        /* \"@openzeppelin/contracts/token/ERC721/ERC721.sol\":14418:14538  function _approve(address to, uint256 tokenId, address auth) internal {... */\n    tag_114:\n        /* \"@openzeppelin/contracts/token/ERC721/ERC721.sol\":14498:14531  _approve(to, tokenId, auth, true) */\n      tag_186\n        /* \"@openzeppelin/contracts/token/ERC721/ERC721.sol\":14507:14509  to */\n      dup4\n        /* \"@openzeppelin/contracts/token/ERC721/ERC721.sol\":14511:14518  tokenId */\n      dup4\n        /* \"@openzeppelin/contracts/token/ERC721/ERC721.sol\":14520:14524  auth */\n      dup4\n        /* \"@openzeppelin/contracts/token/ERC721/ERC721.sol\":14526:14530  true */\n      0x01\n        /* \"@openzeppelin/contracts/token/ERC721/ERC721.sol\":14498:14506  _approve */\n      tag_187\n        /* \"@openzeppelin/contracts/token/ERC721/ERC721.sol\":14498:14531  _approve(to, tokenId, auth, true) */\n      jump\t// in\n    tag_186:\n        /* \"@openzeppelin/contracts/token/ERC721/ERC721.sol\":14418:14538  function _approve(address to, uint256 tokenId, address auth) internal {... */\n      pop\n      pop\n      pop\n      jump\t// out\n        /* \"@openzeppelin/contracts/token/ERC721/ERC721.sol\":8838:9633  function _update(address to, uint256 tokenId, address auth) internal virtual returns (address) {... */\n    tag_120:\n        /* \"@openzeppelin/contracts/token/ERC721/ERC721.sol\":8924:8931  address */\n      0x00\n        /* \"@openzeppelin/contracts/token/ERC721/ERC721.sol\":8943:8955  address from */\n      dup1\n        /* \"@openzeppelin/contracts/token/ERC721/ERC721.sol\":8958:8975  _ownerOf(tokenId) */\n      tag_189\n        /* \"@openzeppelin/contracts/token/ERC721/ERC721.sol\":8967:8974  tokenId */\n      dup5\n        /* \"@openzeppelin/contracts/token/ERC721/ERC721.sol\":8958:8966  _ownerOf */\n      tag_180\n        /* \"@openzeppelin/contracts/token/ERC721/ERC721.sol\":8958:8975  _ownerOf(tokenId) */\n      jump\t// in\n    tag_189:\n        /* \"@openzeppelin/contracts/token/ERC721/ERC721.sol\":8943:8975  address from = _ownerOf(tokenId) */\n      swap1\n      pop\n        /* \"@openzeppelin/contracts/token/ERC721/ERC721.sol\":9051:9052  0 */\n      0x00\n        /* \"@openzeppelin/contracts/token/ERC721/ERC721.sol\":9035:9053  auth != address(0) */\n      0xffffffffffffffffffffffffffffffffffffffff\n      and\n        /* \"@openzeppelin/contracts/token/ERC721/ERC721.sol\":9035:9039  auth */\n      dup4\n        /* \"@openzeppelin/contracts/token/ERC721/ERC721.sol\":9035:9053  auth != address(0) */\n      0xffffffffffffffffffffffffffffffffffffffff\n      and\n      eq\n        /* \"@openzeppelin/contracts/token/ERC721/ERC721.sol\":9031:9117  if (auth != address(0)) {... */\n      tag_190\n      jumpi\n        /* \"@openzeppelin/contracts/token/ERC721/ERC721.sol\":9069:9106  _checkAuthorized(from, auth, tokenId) */\n      tag_191\n        /* \"@openzeppelin/contracts/token/ERC721/ERC721.sol\":9086:9090  from */\n      dup2\n        /* \"@openzeppelin/contracts/token/ERC721/ERC721.sol\":9092:9096  auth */\n      dup5\n        /* \"@openzeppelin/contracts/token/ERC721/ERC721.sol\":9098:9105  tokenId */\n      dup7\n        /* \"@openzeppelin/contracts/token/ERC721/ERC721.sol\":9069:9085  _checkAuthorized */\n      tag_192\n        /* \"@openzeppelin/contracts/token/ERC721/ERC721.sol\":9069:9106  _checkAuthorized(from, auth, tokenId) */\n      jump\t// in\n    tag_191:\n        /* \"@openzeppelin/contracts/token/ERC721/ERC721.sol\":9031:9117  if (auth != address(0)) {... */\n    tag_190:\n        /* \"@openzeppelin/contracts/token/ERC721/ERC721.sol\":9177:9178  0 */\n      0x00\n        /* \"@openzeppelin/contracts/token/ERC721/ERC721.sol\":9161:9179  from != address(0) */\n      0xffffffffffffffffffffffffffffffffffffffff\n      and\n        /* \"@openzeppelin/contracts/token/ERC721/ERC721.sol\":9161:9165  from */\n      dup2\n        /* \"@openzeppelin/contracts/token/ERC721/ERC721.sol\":9161:9179  from != address(0) */\n      0xffffffffffffffffffffffffffffffffffffffff\n      and\n      eq\n        /* \"@openzeppelin/contracts/token/ERC721/ERC721.sol\":9157:9413  if (from != address(0)) {... */\n      tag_193\n      jumpi\n        /* \"@openzeppelin/contracts/token/ERC721/ERC721.sol\":9277:9325  _approve(address(0), tokenId, address(0), false) */\n      tag_194\n        /* \"@openzeppelin/contracts/token/ERC721/ERC721.sol\":9294:9295  0 */\n      0x00\n        /* \"@openzeppelin/contracts/token/ERC721/ERC721.sol\":9298:9305  tokenId */\n      dup6\n        /* \"@openzeppelin/contracts/token/ERC721/ERC721.sol\":9315:9316  0 */\n      0x00\n        /* \"@openzeppelin/contracts/token/ERC721/ERC721.sol\":9319:9324  false */\n      dup1\n        /* \"@openzeppelin/contracts/token/ERC721/ERC721.sol\":9277:9285  _approve */\n      tag_187\n        /* \"@openzeppelin/contracts/token/ERC721/ERC721.sol\":9277:9325  _approve(address(0), tokenId, address(0), false) */\n      jump\t// in\n    tag_194:\n        /* \"@openzeppelin/contracts/token/ERC721/ERC721.sol\":9387:9388  1 */\n      0x01\n        /* \"@openzeppelin/contracts/token/ERC721/ERC721.sol\":9368:9377  _balances */\n      0x03\n        /* \"@openzeppelin/contracts/token/ERC721/ERC721.sol\":9368:9383  _balances[from] */\n      0x00\n        /* \"@openzeppelin/contracts/token/ERC721/ERC721.sol\":9378:9382  from */\n      dup4\n        /* \"@openzeppelin/contracts/token/ERC721/ERC721.sol\":9368:9383  _balances[from] */\n      0xffffffffffffffffffffffffffffffffffffffff\n      and\n      0xffffffffffffffffffffffffffffffffffffffff\n      and\n      dup2\n      mstore\n      0x20\n      add\n      swap1\n      dup2\n      mstore\n      0x20\n      add\n      0x00\n      keccak256\n      0x00\n        /* \"@openzeppelin/contracts/token/ERC721/ERC721.sol\":9368:9388  _balances[from] -= 1 */\n      dup3\n      dup3\n      sload\n      sub\n      swap3\n      pop\n      pop\n      dup2\n      swap1\n      sstore\n      pop\n        /* \"@openzeppelin/contracts/token/ERC721/ERC721.sol\":9157:9413  if (from != address(0)) {... */\n    tag_193:\n        /* \"@openzeppelin/contracts/token/ERC721/ERC721.sol\":9441:9442  0 */\n      0x00\n        /* \"@openzeppelin/contracts/token/ERC721/ERC721.sol\":9427:9443  to != address(0) */\n      0xffffffffffffffffffffffffffffffffffffffff\n      and\n        /* \"@openzeppelin/contracts/token/ERC721/ERC721.sol\":9427:9429  to */\n      dup6\n        /* \"@openzeppelin/contracts/token/ERC721/ERC721.sol\":9427:9443  to != address(0) */\n      0xffffffffffffffffffffffffffffffffffffffff\n      and\n      eq\n        /* \"@openzeppelin/contracts/token/ERC721/ERC721.sol\":9423:9530  if (to != address(0)) {... */\n      tag_195\n      jumpi\n        /* \"@openzeppelin/contracts/token/ERC721/ERC721.sol\":9504:9505  1 */\n      0x01\n        /* \"@openzeppelin/contracts/token/ERC721/ERC721.sol\":9487:9496  _balances */\n      0x03\n        /* \"@openzeppelin/contracts/token/ERC721/ERC721.sol\":9487:9500  _balances[to] */\n      0x00\n        /* \"@openzeppelin/contracts/token/ERC721/ERC721.sol\":9497:9499  to */\n      dup8\n        /* \"@openzeppelin/contracts/token/ERC721/ERC721.sol\":9487:9500  _balances[to] */\n      0xffffffffffffffffffffffffffffffffffffffff\n      and\n      0xffffffffffffffffffffffffffffffffffffffff\n      and\n      dup2\n      mstore\n      0x20\n      add\n      swap1\n      dup2\n      mstore\n      0x20\n      add\n      0x00\n      keccak256\n      0x00\n        /* \"@openzeppelin/contracts/token/ERC721/ERC721.sol\":9487:9505  _balances[to] += 1 */\n      dup3\n      dup3\n      sload\n      add\n      swap3\n      pop\n      pop\n      dup2\n      swap1\n      sstore\n      pop\n        /* \"@openzeppelin/contracts/token/ERC721/ERC721.sol\":9423:9530  if (to != address(0)) {... */\n    tag_195:\n        /* \"@openzeppelin/contracts/token/ERC721/ERC721.sol\":9559:9561  to */\n      dup5\n        /* \"@openzeppelin/contracts/token/ERC721/ERC721.sol\":9540:9547  _owners */\n      0x02\n        /* \"@openzeppelin/contracts/token/ERC721/ERC721.sol\":9540:9556  _owners[tokenId] */\n      0x00\n        /* \"@openzeppelin/contracts/token/ERC721/ERC721.sol\":9548:9555  tokenId */\n      dup7\n        /* \"@openzeppelin/contracts/token/ERC721/ERC721.sol\":9540:9556  _owners[tokenId] */\n      dup2\n      mstore\n      0x20\n      add\n      swap1\n      dup2\n      mstore\n      0x20\n      add\n      0x00\n      keccak256\n      0x00\n        /* \"@openzeppelin/contracts/token/ERC721/ERC721.sol\":9540:9561  _owners[tokenId] = to */\n      0x0100\n      exp\n      dup2\n      sload\n      dup2\n      0xffffffffffffffffffffffffffffffffffffffff\n      mul\n      not\n      and\n      swap1\n      dup4\n      0xffffffffffffffffffffffffffffffffffffffff\n      and\n      mul\n      or\n      swap1\n      sstore\n      pop\n        /* \"@openzeppelin/contracts/token/ERC721/ERC721.sol\":9596:9603  tokenId */\n      dup4\n        /* \"@openzeppelin/contracts/token/ERC721/ERC721.sol\":9592:9594  to */\n      dup6\n        /* \"@openzeppelin/contracts/token/ERC721/ERC721.sol\":9577:9604  Transfer(from, to, tokenId) */\n      0xffffffffffffffffffffffffffffffffffffffff\n      and\n        /* \"@openzeppelin/contracts/token/ERC721/ERC721.sol\":9586:9590  from */\n      dup3\n        /* \"@openzeppelin/contracts/token/ERC721/ERC721.sol\":9577:9604  Transfer(from, to, tokenId) */\n      0xffffffffffffffffffffffffffffffffffffffff\n      and\n      0xddf252ad1be2c89b69c2b068fc378daa952ba7f163c4a11628f55a4df523b3ef\n      mload(0x40)\n      mload(0x40)\n      dup1\n      swap2\n      sub\n      swap1\n      log4\n        /* \"@openzeppelin/contracts/token/ERC721/ERC721.sol\":9622:9626  from */\n      dup1\n        /* \"@openzeppelin/contracts/token/ERC721/ERC721.sol\":9615:9626  return from */\n      swap2\n      pop\n      pop\n        /* \"@openzeppelin/contracts/token/ERC721/ERC721.sol\":8838:9633  function _update(address to, uint256 tokenId, address auth) internal virtual returns (address) {... */\n      swap4\n      swap3\n      pop\n      pop\n      pop\n      jump\t// out\n        /* \"@openzeppelin/contracts/token/ERC721/ERC721.sol\":15591:15903  function _setApprovalForAll(address owner, address operator, bool approved) internal virtual {... */\n    tag_143:\n        /* \"@openzeppelin/contracts/token/ERC721/ERC721.sol\":15718:15719  0 */\n      0x00\n        /* \"@openzeppelin/contracts/token/ERC721/ERC721.sol\":15698:15720  operator == address(0) */\n      0xffffffffffffffffffffffffffffffffffffffff\n      and\n        /* \"@openzeppelin/contracts/token/ERC721/ERC721.sol\":15698:15706  operator */\n      dup3\n        /* \"@openzeppelin/contracts/token/ERC721/ERC721.sol\":15698:15720  operator == address(0) */\n      0xffffffffffffffffffffffffffffffffffffffff\n      and\n      sub\n        /* \"@openzeppelin/contracts/token/ERC721/ERC721.sol\":15694:15785  if (operator == address(0)) {... */\n      tag_197\n      jumpi\n        /* \"@openzeppelin/contracts/token/ERC721/ERC721.sol\":15765:15773  operator */\n      dup2\n        /* \"@openzeppelin/contracts/token/ERC721/ERC721.sol\":15743:15774  ERC721InvalidOperator(operator) */\n      mload(0x40)\n      0x5b08ba1800000000000000000000000000000000000000000000000000000000\n      dup2\n      mstore\n      0x04\n      add\n      tag_198\n      swap2\n      swap1\n      tag_42\n      jump\t// in\n    tag_198:\n      mload(0x40)\n      dup1\n      swap2\n      sub\n      swap1\n      revert\n        /* \"@openzeppelin/contracts/token/ERC721/ERC721.sol\":15694:15785  if (operator == address(0)) {... */\n    tag_197:\n        /* \"@openzeppelin/contracts/token/ERC721/ERC721.sol\":15832:15840  approved */\n      dup1\n        /* \"@openzeppelin/contracts/token/ERC721/ERC721.sol\":15794:15812  _operatorApprovals */\n      0x05\n        /* \"@openzeppelin/contracts/token/ERC721/ERC721.sol\":15794:15819  _operatorApprovals[owner] */\n      0x00\n        /* \"@openzeppelin/contracts/token/ERC721/ERC721.sol\":15813:15818  owner */\n      dup6\n        /* \"@openzeppelin/contracts/token/ERC721/ERC721.sol\":15794:15819  _operatorApprovals[owner] */\n      0xffffffffffffffffffffffffffffffffffffffff\n      and\n      0xffffffffffffffffffffffffffffffffffffffff\n      and\n      dup2\n      mstore\n      0x20\n      add\n      swap1\n      dup2\n      mstore\n      0x20\n      add\n      0x00\n      keccak256\n        /* \"@openzeppelin/contracts/token/ERC721/ERC721.sol\":15794:15829  _operatorApprovals[owner][operator] */\n      0x00\n        /* \"@openzeppelin/contracts/token/ERC721/ERC721.sol\":15820:15828  operator */\n      dup5\n        /* \"@openzeppelin/contracts/token/ERC721/ERC721.sol\":15794:15829  _operatorApprovals[owner][operator] */\n      0xffffffffffffffffffffffffffffffffffffffff\n      and\n      0xffffffffffffffffffffffffffffffffffffffff\n      and\n      dup2\n      mstore\n      0x20\n      add\n      swap1\n      dup2\n      mstore\n      0x20\n      add\n      0x00\n      keccak256\n      0x00\n        /* \"@openzeppelin/contracts/token/ERC721/ERC721.sol\":15794:15840  _operatorApprovals[owner][operator] = approved */\n      0x0100\n      exp\n      dup2\n      sload\n      dup2\n      0xff\n      mul\n      not\n      and\n      swap1\n      dup4\n      iszero\n      iszero\n      mul\n      or\n      swap1\n      sstore\n      pop\n        /* \"@openzeppelin/contracts/token/ERC721/ERC721.sol\":15877:15885  operator */\n      dup2\n        /* \"@openzeppelin/contracts/token/ERC721/ERC721.sol\":15855:15896  ApprovalForAll(owner, operator, approved) */\n      0xffffffffffffffffffffffffffffffffffffffff\n      and\n        /* \"@openzeppelin/contracts/token/ERC721/ERC721.sol\":15870:15875  owner */\n      dup4\n        /* \"@openzeppelin/contracts/token/ERC721/ERC721.sol\":15855:15896  ApprovalForAll(owner, operator, approved) */\n      0xffffffffffffffffffffffffffffffffffffffff\n      and\n      0x17307eab39ab6107e8899845ad3d59bd9653f200f220920489ca2b5937696c31\n        /* \"@openzeppelin/contracts/token/ERC721/ERC721.sol\":15887:15895  approved */\n      dup4\n        /* \"@openzeppelin/contracts/token/ERC721/ERC721.sol\":15855:15896  ApprovalForAll(owner, operator, approved) */\n      mload(0x40)\n      tag_199\n      swap2\n      swap1\n      tag_26\n      jump\t// in\n    tag_199:\n      mload(0x40)\n      dup1\n      swap2\n      sub\n      swap1\n      log3\n        /* \"@openzeppelin/contracts/token/ERC721/ERC721.sol\":15591:15903  function _setApprovalForAll(address owner, address operator, bool approved) internal virtual {... */\n      pop\n      pop\n      pop\n      jump\t// out\n        /* \"@openzeppelin/contracts/token/ERC721/ERC721.sol\":16918:17700  function _checkOnERC721Received(address from, address to, uint256 tokenId, bytes memory data) private {... */\n    tag_147:\n        /* \"@openzeppelin/contracts/token/ERC721/ERC721.sol\":17051:17052  0 */\n      0x00\n        /* \"@openzeppelin/contracts/token/ERC721/ERC721.sol\":17034:17036  to */\n      dup4\n        /* \"@openzeppelin/contracts/token/ERC721/ERC721.sol\":17034:17048  to.code.length */\n      0xffffffffffffffffffffffffffffffffffffffff\n      and\n      extcodesize\n        /* \"@openzeppelin/contracts/token/ERC721/ERC721.sol\":17034:17052  to.code.length > 0 */\n      gt\n        /* \"@openzeppelin/contracts/token/ERC721/ERC721.sol\":17030:17694  if (to.code.length > 0) {... */\n      iszero\n      tag_201\n      jumpi\n        /* \"@openzeppelin/contracts/token/ERC721/ERC721.sol\":17088:17090  to */\n      dup3\n        /* \"@openzeppelin/contracts/token/ERC721/ERC721.sol\":17072:17108  IERC721Receiver(to).onERC721Received */\n      0xffffffffffffffffffffffffffffffffffffffff\n      and\n      0x150b7a02\n        /* \"@openzeppelin/contracts/token/ERC721/ERC721.sol\":17109:17121  _msgSender() */\n      tag_202\n        /* \"@openzeppelin/contracts/token/ERC721/ERC721.sol\":17109:17119  _msgSender */\n      tag_113\n        /* \"@openzeppelin/contracts/token/ERC721/ERC721.sol\":17109:17121  _msgSender() */\n      jump\t// in\n    tag_202:\n        /* \"@openzeppelin/contracts/token/ERC721/ERC721.sol\":17123:17127  from */\n      dup7\n        /* \"@openzeppelin/contracts/token/ERC721/ERC721.sol\":17129:17136  tokenId */\n      dup6\n        /* \"@openzeppelin/contracts/token/ERC721/ERC721.sol\":17138:17142  data */\n      dup6\n        /* \"@openzeppelin/contracts/token/ERC721/ERC721.sol\":17072:17143  IERC721Receiver(to).onERC721Received(_msgSender(), from, tokenId, data) */\n      mload(0x40)\n      dup6\n      0xffffffff\n      and\n      0xe0\n      shl\n      dup2\n      mstore\n      0x04\n      add\n      tag_203\n      swap5\n      swap4\n      swap3\n      swap2\n      swap1\n      tag_204\n      jump\t// in\n    tag_203:\n      0x20\n      mload(0x40)\n      dup1\n      dup4\n      sub\n      dup2\n      0x00\n      dup8\n      gas\n      call\n      swap3\n      pop\n      pop\n      pop\n      dup1\n      iszero\n      tag_205\n      jumpi\n      pop\n      mload(0x40)\n      returndatasize\n      not(0x1f)\n      0x1f\n      dup3\n      add\n      and\n      dup3\n      add\n      dup1\n      0x40\n      mstore\n      pop\n      dup2\n      add\n      swap1\n      tag_206\n      swap2\n      swap1\n      tag_207\n      jump\t// in\n    tag_206:\n      0x01\n    tag_205:\n        /* \"@openzeppelin/contracts/token/ERC721/ERC721.sol\":17068:17684  try IERC721Receiver(to).onERC721Received(_msgSender(), from, tokenId, data) returns (bytes4 retval) {... */\n      tag_208\n      jumpi\n      returndatasize\n      dup1\n      0x00\n      dup2\n      eq\n      tag_213\n      jumpi\n      mload(0x40)\n      swap2\n      pop\n      and(add(returndatasize, 0x3f), not(0x1f))\n      dup3\n      add\n      0x40\n      mstore\n      returndatasize\n      dup3\n      mstore\n      returndatasize\n      0x00\n      0x20\n      dup5\n      add\n      returndatacopy\n      jump(tag_212)\n    tag_213:\n      0x60\n      swap2\n      pop\n    tag_212:\n      pop\n        /* \"@openzeppelin/contracts/token/ERC721/ERC721.sol\":17398:17399  0 */\n      0x00\n        /* \"@openzeppelin/contracts/token/ERC721/ERC721.sol\":17381:17387  reason */\n      dup2\n        /* \"@openzeppelin/contracts/token/ERC721/ERC721.sol\":17381:17394  reason.length */\n      mload\n        /* \"@openzeppelin/contracts/token/ERC721/ERC721.sol\":17381:17399  reason.length == 0 */\n      sub\n        /* \"@openzeppelin/contracts/token/ERC721/ERC721.sol\":17377:17670  if (reason.length == 0) {... */\n      tag_214\n      jumpi\n        /* \"@openzeppelin/contracts/token/ERC721/ERC721.sol\":17452:17454  to */\n      dup4\n        /* \"@openzeppelin/contracts/token/ERC721/ERC721.sol\":17430:17455  ERC721InvalidReceiver(to) */\n      mload(0x40)\n      0x64a0ae9200000000000000000000000000000000000000000000000000000000\n      dup2\n      mstore\n      0x04\n      add\n      tag_215\n      swap2\n      swap1\n      tag_42\n      jump\t// in\n    tag_215:\n      mload(0x40)\n      dup1\n      swap2\n      sub\n      swap1\n      revert\n        /* \"@openzeppelin/contracts/token/ERC721/ERC721.sol\":17377:17670  if (reason.length == 0) {... */\n    tag_214:\n        /* \"@openzeppelin/contracts/token/ERC721/ERC721.sol\":17622:17628  reason */\n      dup1\n        /* \"@openzeppelin/contracts/token/ERC721/ERC721.sol\":17616:17629  mload(reason) */\n      mload\n        /* \"@openzeppelin/contracts/token/ERC721/ERC721.sol\":17607:17613  reason */\n      dup2\n        /* \"@openzeppelin/contracts/token/ERC721/ERC721.sol\":17603:17605  32 */\n      0x20\n        /* \"@openzeppelin/contracts/token/ERC721/ERC721.sol\":17599:17614  add(32, reason) */\n      add\n        /* \"@openzeppelin/contracts/token/ERC721/ERC721.sol\":17592:17630  revert(add(32, reason), mload(reason)) */\n      revert\n        /* \"@openzeppelin/contracts/token/ERC721/ERC721.sol\":17068:17684  try IERC721Receiver(to).onERC721Received(_msgSender(), from, tokenId, data) returns (bytes4 retval) {... */\n    tag_208:\n        /* \"@openzeppelin/contracts/token/ERC721/ERC721.sol\":17200:17241  IERC721Receiver.onERC721Received.selector */\n      shl(0xe0, 0x150b7a02)\n        /* \"@openzeppelin/contracts/token/ERC721/ERC721.sol\":17190:17241  retval != IERC721Receiver.onERC721Received.selector */\n      not(0xffffffffffffffffffffffffffffffffffffffffffffffffffffffff)\n      and\n        /* \"@openzeppelin/contracts/token/ERC721/ERC721.sol\":17190:17196  retval */\n      dup2\n        /* \"@openzeppelin/contracts/token/ERC721/ERC721.sol\":17190:17241  retval != IERC721Receiver.onERC721Received.selector */\n      not(0xffffffffffffffffffffffffffffffffffffffffffffffffffffffff)\n      and\n      eq\n        /* \"@openzeppelin/contracts/token/ERC721/ERC721.sol\":17186:17316  if (retval != IERC721Receiver.onERC721Received.selector) {... */\n      tag_218\n      jumpi\n        /* \"@openzeppelin/contracts/token/ERC721/ERC721.sol\":17294:17296  to */\n      dup4\n        /* \"@openzeppelin/contracts/token/ERC721/ERC721.sol\":17272:17297  ERC721InvalidReceiver(to) */\n      mload(0x40)\n      0x64a0ae9200000000000000000000000000000000000000000000000000000000\n      dup2\n      mstore\n      0x04\n      add\n      tag_219\n      swap2\n      swap1\n      tag_42\n      jump\t// in\n    tag_219:\n      mload(0x40)\n      dup1\n      swap2\n      sub\n      swap1\n      revert\n        /* \"@openzeppelin/contracts/token/ERC721/ERC721.sol\":17186:17316  if (retval != IERC721Receiver.onERC721Received.selector) {... */\n    tag_218:\n        /* \"@openzeppelin/contracts/token/ERC721/ERC721.sol\":17144:17330  returns (bytes4 retval) {... */\n      pop\n        /* \"@openzeppelin/contracts/token/ERC721/ERC721.sol\":17030:17694  if (to.code.length > 0) {... */\n    tag_201:\n        /* \"@openzeppelin/contracts/token/ERC721/ERC721.sol\":16918:17700  function _checkOnERC721Received(address from, address to, uint256 tokenId, bytes memory data) private {... */\n      pop\n      pop\n      pop\n      pop\n      jump\t// out\n        /* \"SportNFT.sol\":618:722  function _baseURI() internal view override returns (string memory) {... */\n    tag_156:\n        /* \"SportNFT.sol\":670:683  string memory */\n      0x60\n        /* \"SportNFT.sol\":702:715  _baseTokenURI */\n      0x08\n        /* \"SportNFT.sol\":695:715  return _baseTokenURI */\n      dup1\n      sload\n      tag_221\n      swap1\n      tag_100\n      jump\t// in\n    tag_221:\n      dup1\n      0x1f\n      add\n      0x20\n      dup1\n      swap2\n      div\n      mul\n      0x20\n      add\n      mload(0x40)\n      swap1\n      dup2\n      add\n      0x40\n      mstore\n      dup1\n      swap3\n      swap2\n      swap1\n      dup2\n      dup2\n      mstore\n      0x20\n      add\n      dup3\n      dup1\n      sload\n      tag_222\n      swap1\n      tag_100\n      jump\t// in\n    tag_222:\n      dup1\n      iszero\n      tag_223\n      jumpi\n      dup1\n      0x1f\n      lt\n      tag_224\n      jumpi\n      0x0100\n      dup1\n      dup4\n      sload\n      div\n      mul\n      dup4\n      mstore\n      swap2\n      0x20\n      add\n      swap2\n      jump(tag_223)\n    tag_224:\n      dup3\n      add\n      swap2\n      swap1\n      0x00\n      mstore\n      keccak256(0x00, 0x20)\n      swap1\n    tag_225:\n      dup2\n      sload\n      dup2\n      mstore\n      swap1\n      0x01\n      add\n      swap1\n      0x20\n      add\n      dup1\n      dup4\n      gt\n      tag_225\n      jumpi\n      dup3\n      swap1\n      sub\n      0x1f\n      and\n      dup3\n      add\n      swap2\n    tag_223:\n      pop\n      pop\n      pop\n      pop\n      pop\n      swap1\n      pop\n        /* \"SportNFT.sol\":618:722  function _baseURI() internal view override returns (string memory) {... */\n      swap1\n      jump\t// out\n        /* \"@openzeppelin/contracts/token/ERC721/ERC721.sol\":2677:2932  function tokenURI(uint256 tokenId) public view virtual returns (string memory) {... */\n    tag_162:\n        /* \"@openzeppelin/contracts/token/ERC721/ERC721.sol\":2741:2754  string memory */\n      0x60\n        /* \"@openzeppelin/contracts/token/ERC721/ERC721.sol\":2766:2788  _requireOwned(tokenId) */\n      tag_227\n        /* \"@openzeppelin/contracts/token/ERC721/ERC721.sol\":2780:2787  tokenId */\n      dup3\n        /* \"@openzeppelin/contracts/token/ERC721/ERC721.sol\":2766:2779  _requireOwned */\n      tag_107\n        /* \"@openzeppelin/contracts/token/ERC721/ERC721.sol\":2766:2788  _requireOwned(tokenId) */\n      jump\t// in\n    tag_227:\n      pop\n        /* \"@openzeppelin/contracts/token/ERC721/ERC721.sol\":2799:2820  string memory baseURI */\n      0x00\n        /* \"@openzeppelin/contracts/token/ERC721/ERC721.sol\":2823:2833  _baseURI() */\n      tag_228\n        /* \"@openzeppelin/contracts/token/ERC721/ERC721.sol\":2823:2831  _baseURI */\n      tag_156\n        /* \"@openzeppelin/contracts/token/ERC721/ERC721.sol\":2823:2833  _baseURI() */\n      jump\t// in\n    tag_228:\n        /* \"@openzeppelin/contracts/token/ERC721/ERC721.sol\":2799:2833  string memory baseURI = _baseURI() */\n      swap1\n      pop\n        /* \"@openzeppelin/contracts/token/ERC721/ERC721.sol\":2874:2875  0 */\n      0x00\n        /* \"@openzeppelin/contracts/token/ERC721/ERC721.sol\":2856:2863  baseURI */\n      dup2\n        /* \"@openzeppelin/contracts/token/ERC721/ERC721.sol\":2850:2871  bytes(baseURI).length */\n      mload\n        /* \"@openzeppelin/contracts/token/ERC721/ERC721.sol\":2850:2875  bytes(baseURI).length > 0 */\n      gt\n        /* \"@openzeppelin/contracts/token/ERC721/ERC721.sol\":2850:2925  bytes(baseURI).length > 0 ? string.concat(baseURI, tokenId.toString()) : \"\" */\n      tag_229\n      jumpi\n      mload(0x40)\n      dup1\n      0x20\n      add\n      0x40\n      mstore\n      dup1\n      0x00\n      dup2\n      mstore\n      pop\n      jump(tag_230)\n    tag_229:\n        /* \"@openzeppelin/contracts/token/ERC721/ERC721.sol\":2892:2899  baseURI */\n      dup1\n        /* \"@openzeppelin/contracts/token/ERC721/ERC721.sol\":2901:2919  tokenId.toString() */\n      tag_231\n        /* \"@openzeppelin/contracts/token/ERC721/ERC721.sol\":2901:2908  tokenId */\n      dup5\n        /* \"@openzeppelin/contracts/token/ERC721/ERC721.sol\":2901:2917  tokenId.toString */\n      tag_232\n        /* \"@openzeppelin/contracts/token/ERC721/ERC721.sol\":2901:2919  tokenId.toString() */\n      jump\t// in\n    tag_231:\n        /* \"@openzeppelin/contracts/token/ERC721/ERC721.sol\":2878:2920  string.concat(baseURI, tokenId.toString()) */\n      add(0x20, mload(0x40))\n      tag_233\n      swap3\n      swap2\n      swap1\n      tag_160\n      jump\t// in\n    tag_233:\n      mload(0x40)\n      0x20\n      dup2\n      dup4\n      sub\n      sub\n      dup2\n      mstore\n      swap1\n      0x40\n      mstore\n        /* \"@openzeppelin/contracts/token/ERC721/ERC721.sol\":2850:2925  bytes(baseURI).length > 0 ? string.concat(baseURI, tokenId.toString()) : \"\" */\n    tag_230:\n        /* \"@openzeppelin/contracts/token/ERC721/ERC721.sol\":2843:2925  return bytes(baseURI).length > 0 ? string.concat(baseURI, tokenId.toString()) : \"\" */\n      swap2\n      pop\n      pop\n        /* \"@openzeppelin/contracts/token/ERC721/ERC721.sol\":2677:2932  function tokenURI(uint256 tokenId) public view virtual returns (string memory) {... */\n      swap2\n      swap1\n      pop\n      jump\t// out\n        /* \"@openzeppelin/contracts/utils/introspection/ERC165.sol\":762:908  function supportsInterface(bytes4 interfaceId) public view virtual returns (bool) {... */\n    tag_168:\n        /* \"@openzeppelin/contracts/utils/introspection/ERC165.sol\":838:842  bool */\n      0x00\n        /* \"@openzeppelin/contracts/utils/introspection/ERC165.sol\":876:901  type(IERC165).interfaceId */\n      0x01ffc9a700000000000000000000000000000000000000000000000000000000\n        /* \"@openzeppelin/contracts/utils/introspection/ERC165.sol\":861:901  interfaceId == type(IERC165).interfaceId */\n      not(0xffffffffffffffffffffffffffffffffffffffffffffffffffffffff)\n      and\n        /* \"@openzeppelin/contracts/utils/introspection/ERC165.sol\":861:872  interfaceId */\n      dup3\n        /* \"@openzeppelin/contracts/utils/introspection/ERC165.sol\":861:901  interfaceId == type(IERC165).interfaceId */\n      not(0xffffffffffffffffffffffffffffffffffffffffffffffffffffffff)\n      and\n      eq\n        /* \"@openzeppelin/contracts/utils/introspection/ERC165.sol\":854:901  return interfaceId == type(IERC165).interfaceId */\n      swap1\n      pop\n        /* \"@openzeppelin/contracts/utils/introspection/ERC165.sol\":762:908  function supportsInterface(bytes4 interfaceId) public view virtual returns (bool) {... */\n      swap2\n      swap1\n      pop\n      jump\t// out\n        /* \"@openzeppelin/contracts/token/ERC721/ERC721.sol\":5707:5822  function _ownerOf(uint256 tokenId) internal view virtual returns (address) {... */\n    tag_180:\n        /* \"@openzeppelin/contracts/token/ERC721/ERC721.sol\":5773:5780  address */\n      0x00\n        /* \"@openzeppelin/contracts/token/ERC721/ERC721.sol\":5799:5806  _owners */\n      0x02\n        /* \"@openzeppelin/contracts/token/ERC721/ERC721.sol\":5799:5815  _owners[tokenId] */\n      0x00\n        /* \"@openzeppelin/contracts/token/ERC721/ERC721.sol\":5807:5814  tokenId */\n      dup4\n        /* \"@openzeppelin/contracts/token/ERC721/ERC721.sol\":5799:5815  _owners[tokenId] */\n      dup2\n      mstore\n      0x20\n      add\n      swap1\n      dup2\n      mstore\n      0x20\n      add\n      0x00\n      keccak256\n      0x00\n      swap1\n      sload\n      swap1\n      0x0100\n      exp\n      swap1\n      div\n      0xffffffffffffffffffffffffffffffffffffffff\n      and\n        /* \"@openzeppelin/contracts/token/ERC721/ERC721.sol\":5792:5815  return _owners[tokenId] */\n      swap1\n      pop\n        /* \"@openzeppelin/contracts/token/ERC721/ERC721.sol\":5707:5822  function _ownerOf(uint256 tokenId) internal view virtual returns (address) {... */\n      swap2\n      swap1\n      pop\n      jump\t// out\n        /* \"@openzeppelin/contracts/token/ERC721/ERC721.sol\":14720:15382  function _approve(address to, uint256 tokenId, address auth, bool emitEvent) internal virtual {... */\n    tag_187:\n        /* \"@openzeppelin/contracts/token/ERC721/ERC721.sol\":14880:14889  emitEvent */\n      dup1\n        /* \"@openzeppelin/contracts/token/ERC721/ERC721.sol\":14880:14911  emitEvent || auth != address(0) */\n      dup1\n      tag_237\n      jumpi\n      pop\n        /* \"@openzeppelin/contracts/token/ERC721/ERC721.sol\":14909:14910  0 */\n      0x00\n        /* \"@openzeppelin/contracts/token/ERC721/ERC721.sol\":14893:14911  auth != address(0) */\n      0xffffffffffffffffffffffffffffffffffffffff\n      and\n        /* \"@openzeppelin/contracts/token/ERC721/ERC721.sol\":14893:14897  auth */\n      dup3\n        /* \"@openzeppelin/contracts/token/ERC721/ERC721.sol\":14893:14911  auth != address(0) */\n      0xffffffffffffffffffffffffffffffffffffffff\n      and\n      eq\n      iszero\n        /* \"@openzeppelin/contracts/token/ERC721/ERC721.sol\":14880:14911  emitEvent || auth != address(0) */\n    tag_237:\n        /* \"@openzeppelin/contracts/token/ERC721/ERC721.sol\":14876:15336  if (emitEvent || auth != address(0)) {... */\n      iszero\n      tag_238\n      jumpi\n        /* \"@openzeppelin/contracts/token/ERC721/ERC721.sol\":14927:14940  address owner */\n      0x00\n        /* \"@openzeppelin/contracts/token/ERC721/ERC721.sol\":14943:14965  _requireOwned(tokenId) */\n      tag_239\n        /* \"@openzeppelin/contracts/token/ERC721/ERC721.sol\":14957:14964  tokenId */\n      dup5\n        /* \"@openzeppelin/contracts/token/ERC721/ERC721.sol\":14943:14956  _requireOwned */\n      tag_107\n        /* \"@openzeppelin/contracts/token/ERC721/ERC721.sol\":14943:14965  _requireOwned(tokenId) */\n      jump\t// in\n    tag_239:\n        /* \"@openzeppelin/contracts/token/ERC721/ERC721.sol\":14927:14965  address owner = _requireOwned(tokenId) */\n      swap1\n      pop\n        /* \"@openzeppelin/contracts/token/ERC721/ERC721.sol\":15109:15110  0 */\n      0x00\n        /* \"@openzeppelin/contracts/token/ERC721/ERC721.sol\":15093:15111  auth != address(0) */\n      0xffffffffffffffffffffffffffffffffffffffff\n      and\n        /* \"@openzeppelin/contracts/token/ERC721/ERC721.sol\":15093:15097  auth */\n      dup4\n        /* \"@openzeppelin/contracts/token/ERC721/ERC721.sol\":15093:15111  auth != address(0) */\n      0xffffffffffffffffffffffffffffffffffffffff\n      and\n      eq\n      iszero\n        /* \"@openzeppelin/contracts/token/ERC721/ERC721.sol\":15093:15128  auth != address(0) && owner != auth */\n      dup1\n      iszero\n      tag_240\n      jumpi\n      pop\n        /* \"@openzeppelin/contracts/token/ERC721/ERC721.sol\":15124:15128  auth */\n      dup3\n        /* \"@openzeppelin/contracts/token/ERC721/ERC721.sol\":15115:15128  owner != auth */\n      0xffffffffffffffffffffffffffffffffffffffff\n      and\n        /* \"@openzeppelin/contracts/token/ERC721/ERC721.sol\":15115:15120  owner */\n      dup2\n        /* \"@openzeppelin/contracts/token/ERC721/ERC721.sol\":15115:15128  owner != auth */\n      0xffffffffffffffffffffffffffffffffffffffff\n      and\n      eq\n      iszero\n        /* \"@openzeppelin/contracts/token/ERC721/ERC721.sol\":15093:15128  auth != address(0) && owner != auth */\n    tag_240:\n        /* \"@openzeppelin/contracts/token/ERC721/ERC721.sol\":15093:15162  auth != address(0) && owner != auth && !isApprovedForAll(owner, auth) */\n      dup1\n      iszero\n      tag_241\n      jumpi\n      pop\n        /* \"@openzeppelin/contracts/token/ERC721/ERC721.sol\":15133:15162  isApprovedForAll(owner, auth) */\n      tag_242\n        /* \"@openzeppelin/contracts/token/ERC721/ERC721.sol\":15150:15155  owner */\n      dup2\n        /* \"@openzeppelin/contracts/token/ERC721/ERC721.sol\":15157:15161  auth */\n      dup5\n        /* \"@openzeppelin/contracts/token/ERC721/ERC721.sol\":15133:15149  isApprovedForAll */\n      tag_85\n        /* \"@openzeppelin/contracts/token/ERC721/ERC721.sol\":15133:15162  isApprovedForAll(owner, auth) */\n      jump\t// in\n    tag_242:\n        /* \"@openzeppelin/contracts/token/ERC721/ERC721.sol\":15132:15162  !isApprovedForAll(owner, auth) */\n      iszero\n        /* \"@openzeppelin/contracts/token/ERC721/ERC721.sol\":15093:15162  auth != address(0) && owner != auth && !isApprovedForAll(owner, auth) */\n    tag_241:\n        /* \"@openzeppelin/contracts/token/ERC721/ERC721.sol\":15089:15231  if (auth != address(0) && owner != auth && !isApprovedForAll(owner, auth)) {... */\n      iszero\n      tag_243\n      jumpi\n        /* \"@openzeppelin/contracts/token/ERC721/ERC721.sol\":15211:15215  auth */\n      dup3\n        /* \"@openzeppelin/contracts/token/ERC721/ERC721.sol\":15189:15216  ERC721InvalidApprover(auth) */\n      mload(0x40)\n      0xa9fbf51f00000000000000000000000000000000000000000000000000000000\n      dup2\n      mstore\n      0x04\n      add\n      tag_244\n      swap2\n      swap1\n      tag_42\n      jump\t// in\n    tag_244:\n      mload(0x40)\n      dup1\n      swap2\n      sub\n      swap1\n      revert\n        /* \"@openzeppelin/contracts/token/ERC721/ERC721.sol\":15089:15231  if (auth != address(0) && owner != auth && !isApprovedForAll(owner, auth)) {... */\n    tag_243:\n        /* \"@openzeppelin/contracts/token/ERC721/ERC721.sol\":15249:15258  emitEvent */\n      dup2\n        /* \"@openzeppelin/contracts/token/ERC721/ERC721.sol\":15245:15326  if (emitEvent) {... */\n      iszero\n      tag_245\n      jumpi\n        /* \"@openzeppelin/contracts/token/ERC721/ERC721.sol\":15303:15310  tokenId */\n      dup4\n        /* \"@openzeppelin/contracts/token/ERC721/ERC721.sol\":15299:15301  to */\n      dup6\n        /* \"@openzeppelin/contracts/token/ERC721/ERC721.sol\":15283:15311  Approval(owner, to, tokenId) */\n      0xffffffffffffffffffffffffffffffffffffffff\n      and\n        /* \"@openzeppelin/contracts/token/ERC721/ERC721.sol\":15292:15297  owner */\n      dup3\n        /* \"@openzeppelin/contracts/token/ERC721/ERC721.sol\":15283:15311  Approval(owner, to, tokenId) */\n      0xffffffffffffffffffffffffffffffffffffffff\n      and\n      0x8c5be1e5ebec7d5bd14f71427d1e84f3dd0314c0f7b2291e5b200ac8c7c3b925\n      mload(0x40)\n      mload(0x40)\n      dup1\n      swap2\n      sub\n      swap1\n      log4\n        /* \"@openzeppelin/contracts/token/ERC721/ERC721.sol\":15245:15326  if (emitEvent) {... */\n    tag_245:\n        /* \"@openzeppelin/contracts/token/ERC721/ERC721.sol\":14913:15336  {... */\n      pop\n        /* \"@openzeppelin/contracts/token/ERC721/ERC721.sol\":14876:15336  if (emitEvent || auth != address(0)) {... */\n    tag_238:\n        /* \"@openzeppelin/contracts/token/ERC721/ERC721.sol\":15373:15375  to */\n      dup4\n        /* \"@openzeppelin/contracts/token/ERC721/ERC721.sol\":15346:15361  _tokenApprovals */\n      0x04\n        /* \"@openzeppelin/contracts/token/ERC721/ERC721.sol\":15346:15370  _tokenApprovals[tokenId] */\n      0x00\n        /* \"@openzeppelin/contracts/token/ERC721/ERC721.sol\":15362:15369  tokenId */\n      dup6\n        /* \"@openzeppelin/contracts/token/ERC721/ERC721.sol\":15346:15370  _tokenApprovals[tokenId] */\n      dup2\n      mstore\n      0x20\n      add\n      swap1\n      dup2\n      mstore\n      0x20\n      add\n      0x00\n      keccak256\n      0x00\n        /* \"@openzeppelin/contracts/token/ERC721/ERC721.sol\":15346:15375  _tokenApprovals[tokenId] = to */\n      0x0100\n      exp\n      dup2\n      sload\n      dup2\n      0xffffffffffffffffffffffffffffffffffffffff\n      mul\n      not\n      and\n      swap1\n      dup4\n      0xffffffffffffffffffffffffffffffffffffffff\n      and\n      mul\n      or\n      swap1\n      sstore\n      pop\n        /* \"@openzeppelin/contracts/token/ERC721/ERC721.sol\":14720:15382  function _approve(address to, uint256 tokenId, address auth, bool emitEvent) internal virtual {... */\n      pop\n      pop\n      pop\n      pop\n      jump\t// out\n        /* \"@openzeppelin/contracts/token/ERC721/ERC721.sol\":7082:7450  function _checkAuthorized(address owner, address spender, uint256 tokenId) internal view virtual {... */\n    tag_192:\n        /* \"@openzeppelin/contracts/token/ERC721/ERC721.sol\":7194:7232  _isAuthorized(owner, spender, tokenId) */\n      tag_247\n        /* \"@openzeppelin/contracts/token/ERC721/ERC721.sol\":7208:7213  owner */\n      dup4\n        /* \"@openzeppelin/contracts/token/ERC721/ERC721.sol\":7215:7222  spender */\n      dup4\n        /* \"@openzeppelin/contracts/token/ERC721/ERC721.sol\":7224:7231  tokenId */\n      dup4\n        /* \"@openzeppelin/contracts/token/ERC721/ERC721.sol\":7194:7207  _isAuthorized */\n      tag_248\n        /* \"@openzeppelin/contracts/token/ERC721/ERC721.sol\":7194:7232  _isAuthorized(owner, spender, tokenId) */\n      jump\t// in\n    tag_247:\n        /* \"@openzeppelin/contracts/token/ERC721/ERC721.sol\":7189:7444  if (!_isAuthorized(owner, spender, tokenId)) {... */\n      tag_249\n      jumpi\n        /* \"@openzeppelin/contracts/token/ERC721/ERC721.sol\":7269:7270  0 */\n      0x00\n        /* \"@openzeppelin/contracts/token/ERC721/ERC721.sol\":7252:7271  owner == address(0) */\n      0xffffffffffffffffffffffffffffffffffffffff\n      and\n        /* \"@openzeppelin/contracts/token/ERC721/ERC721.sol\":7252:7257  owner */\n      dup4\n        /* \"@openzeppelin/contracts/token/ERC721/ERC721.sol\":7252:7271  owner == address(0) */\n      0xffffffffffffffffffffffffffffffffffffffff\n      and\n      sub\n        /* \"@openzeppelin/contracts/token/ERC721/ERC721.sol\":7248:7434  if (owner == address(0)) {... */\n      tag_250\n      jumpi\n        /* \"@openzeppelin/contracts/token/ERC721/ERC721.sol\":7321:7328  tokenId */\n      dup1\n        /* \"@openzeppelin/contracts/token/ERC721/ERC721.sol\":7298:7329  ERC721NonexistentToken(tokenId) */\n      mload(0x40)\n      0x7e27328900000000000000000000000000000000000000000000000000000000\n      dup2\n      mstore\n      0x04\n      add\n      tag_251\n      swap2\n      swap1\n      tag_32\n      jump\t// in\n    tag_251:\n      mload(0x40)\n      dup1\n      swap2\n      sub\n      swap1\n      revert\n        /* \"@openzeppelin/contracts/token/ERC721/ERC721.sol\":7248:7434  if (owner == address(0)) {... */\n    tag_250:\n        /* \"@openzeppelin/contracts/token/ERC721/ERC721.sol\":7402:7409  spender */\n      dup2\n        /* \"@openzeppelin/contracts/token/ERC721/ERC721.sol\":7411:7418  tokenId */\n      dup2\n        /* \"@openzeppelin/contracts/token/ERC721/ERC721.sol\":7375:7419  ERC721InsufficientApproval(spender, tokenId) */\n      mload(0x40)\n      0x177e802f00000000000000000000000000000000000000000000000000000000\n      dup2\n      mstore\n      0x04\n      add\n      tag_253\n      swap3\n      swap2\n      swap1\n      tag_254\n      jump\t// in\n    tag_253:\n      mload(0x40)\n      dup1\n      swap2\n      sub\n      swap1\n      revert\n        /* \"@openzeppelin/contracts/token/ERC721/ERC721.sol\":7189:7444  if (!_isAuthorized(owner, spender, tokenId)) {... */\n    tag_249:\n        /* \"@openzeppelin/contracts/token/ERC721/ERC721.sol\":7082:7450  function _checkAuthorized(address owner, address spender, uint256 tokenId) internal view virtual {... */\n      pop\n      pop\n      pop\n      jump\t// out\n        /* \"@openzeppelin/contracts/utils/Strings.sol\":637:1335  function toString(uint256 value) internal pure returns (string memory) {... */\n    tag_232:\n        /* \"@openzeppelin/contracts/utils/Strings.sol\":693:706  string memory */\n      0x60\n        /* \"@openzeppelin/contracts/utils/Strings.sol\":742:756  uint256 length */\n      0x00\n        /* \"@openzeppelin/contracts/utils/Strings.sol\":779:780  1 */\n      0x01\n        /* \"@openzeppelin/contracts/utils/Strings.sol\":759:776  Math.log10(value) */\n      tag_256\n        /* \"@openzeppelin/contracts/utils/Strings.sol\":770:775  value */\n      dup5\n        /* \"@openzeppelin/contracts/utils/Strings.sol\":759:769  Math.log10 */\n      tag_257\n        /* \"@openzeppelin/contracts/utils/Strings.sol\":759:776  Math.log10(value) */\n      jump\t// in\n    tag_256:\n        /* \"@openzeppelin/contracts/utils/Strings.sol\":759:780  Math.log10(value) + 1 */\n      add\n        /* \"@openzeppelin/contracts/utils/Strings.sol\":742:780  uint256 length = Math.log10(value) + 1 */\n      swap1\n      pop\n        /* \"@openzeppelin/contracts/utils/Strings.sol\":794:814  string memory buffer */\n      0x00\n        /* \"@openzeppelin/contracts/utils/Strings.sol\":828:834  length */\n      dup2\n        /* \"@openzeppelin/contracts/utils/Strings.sol\":817:835  new string(length) */\n      0xffffffffffffffff\n      dup2\n      gt\n      iszero\n      tag_258\n      jumpi\n      tag_259\n      tag_260\n      jump\t// in\n    tag_259:\n    tag_258:\n      mload(0x40)\n      swap1\n      dup1\n      dup3\n      mstore\n      dup1\n      0x1f\n      add\n      not(0x1f)\n      and\n      0x20\n      add\n      dup3\n      add\n      0x40\n      mstore\n      dup1\n      iszero\n      tag_261\n      jumpi\n      dup2\n      0x20\n      add\n      0x01\n      dup3\n      mul\n      dup1\n      calldatasize\n      dup4\n      calldatacopy\n      dup1\n      dup3\n      add\n      swap2\n      pop\n      pop\n      swap1\n      pop\n    tag_261:\n      pop\n        /* \"@openzeppelin/contracts/utils/Strings.sol\":794:835  string memory buffer = new string(length) */\n      swap1\n      pop\n        /* \"@openzeppelin/contracts/utils/Strings.sol\":849:860  uint256 ptr */\n      0x00\n        /* \"@openzeppelin/contracts/utils/Strings.sol\":975:981  length */\n      dup3\n        /* \"@openzeppelin/contracts/utils/Strings.sol\":971:973  32 */\n      0x20\n        /* \"@openzeppelin/contracts/utils/Strings.sol\":967:982  add(32, length) */\n      add\n        /* \"@openzeppelin/contracts/utils/Strings.sol\":959:965  buffer */\n      dup3\n        /* \"@openzeppelin/contracts/utils/Strings.sol\":955:983  add(buffer, add(32, length)) */\n      add\n        /* \"@openzeppelin/contracts/utils/Strings.sol\":948:983  ptr := add(buffer, add(32, length)) */\n      swap1\n      pop\n        /* \"@openzeppelin/contracts/utils/Strings.sol\":1010:1292  while (true) {... */\n    tag_262:\n        /* \"@openzeppelin/contracts/utils/Strings.sol\":1017:1021  true */\n      0x01\n        /* \"@openzeppelin/contracts/utils/Strings.sol\":1010:1292  while (true) {... */\n      iszero\n      tag_263\n      jumpi\n        /* \"@openzeppelin/contracts/utils/Strings.sol\":1041:1046  ptr-- */\n      dup1\n      dup1\n      0x01\n      swap1\n      sub\n      swap2\n      pop\n      pop\n        /* \"@openzeppelin/contracts/utils/Strings.sol\":1180:1190  HEX_DIGITS */\n      0x3031323334353637383961626364656600000000000000000000000000000000\n        /* \"@openzeppelin/contracts/utils/Strings.sol\":1175:1177  10 */\n      0x0a\n        /* \"@openzeppelin/contracts/utils/Strings.sol\":1168:1173  value */\n      dup7\n        /* \"@openzeppelin/contracts/utils/Strings.sol\":1164:1178  mod(value, 10) */\n      mod\n        /* \"@openzeppelin/contracts/utils/Strings.sol\":1159:1191  byte(mod(value, 10), HEX_DIGITS) */\n      byte\n        /* \"@openzeppelin/contracts/utils/Strings.sol\":1154:1157  ptr */\n      dup2\n        /* \"@openzeppelin/contracts/utils/Strings.sol\":1146:1192  mstore8(ptr, byte(mod(value, 10), HEX_DIGITS)) */\n      mstore8\n        /* \"@openzeppelin/contracts/utils/Strings.sol\":1236:1238  10 */\n      0x0a\n        /* \"@openzeppelin/contracts/utils/Strings.sol\":1227:1238  value /= 10 */\n      dup6\n      dup2\n      tag_264\n      jumpi\n      tag_265\n      tag_266\n      jump\t// in\n    tag_265:\n    tag_264:\n      div\n      swap5\n      pop\n        /* \"@openzeppelin/contracts/utils/Strings.sol\":1269:1270  0 */\n      0x00\n        /* \"@openzeppelin/contracts/utils/Strings.sol\":1260:1265  value */\n      dup6\n        /* \"@openzeppelin/contracts/utils/Strings.sol\":1260:1270  value == 0 */\n      sub\n        /* \"@openzeppelin/contracts/utils/Strings.sol\":1010:1292  while (true) {... */\n      tag_262\n        /* \"@openzeppelin/contracts/utils/Strings.sol\":1256:1277  if (value == 0) break */\n      jumpi\n        /* \"@openzeppelin/contracts/utils/Strings.sol\":1010:1292  while (true) {... */\n    tag_263:\n        /* \"@openzeppelin/contracts/utils/Strings.sol\":1312:1318  buffer */\n      dup2\n        /* \"@openzeppelin/contracts/utils/Strings.sol\":1305:1318  return buffer */\n      swap4\n      pop\n      pop\n      pop\n      pop\n        /* \"@openzeppelin/contracts/utils/Strings.sol\":637:1335  function toString(uint256 value) internal pure returns (string memory) {... */\n      swap2\n      swap1\n      pop\n      jump\t// out\n        /* \"@openzeppelin/contracts/token/ERC721/ERC721.sol\":6376:6648  function _isAuthorized(address owner, address spender, uint256 tokenId) internal view virtual returns (bool) {... */\n    tag_248:\n        /* \"@openzeppelin/contracts/token/ERC721/ERC721.sol\":6479:6483  bool */\n      0x00\n        /* \"@openzeppelin/contracts/token/ERC721/ERC721.sol\":6533:6534  0 */\n      dup1\n        /* \"@openzeppelin/contracts/token/ERC721/ERC721.sol\":6514:6535  spender != address(0) */\n      0xffffffffffffffffffffffffffffffffffffffff\n      and\n        /* \"@openzeppelin/contracts/token/ERC721/ERC721.sol\":6514:6521  spender */\n      dup4\n        /* \"@openzeppelin/contracts/token/ERC721/ERC721.sol\":6514:6535  spender != address(0) */\n      0xffffffffffffffffffffffffffffffffffffffff\n      and\n      eq\n      iszero\n        /* \"@openzeppelin/contracts/token/ERC721/ERC721.sol\":6514:6641  spender != address(0) &&... */\n      dup1\n      iszero\n      tag_269\n      jumpi\n      pop\n        /* \"@openzeppelin/contracts/token/ERC721/ERC721.sol\":6561:6568  spender */\n      dup3\n        /* \"@openzeppelin/contracts/token/ERC721/ERC721.sol\":6552:6568  owner == spender */\n      0xffffffffffffffffffffffffffffffffffffffff\n      and\n        /* \"@openzeppelin/contracts/token/ERC721/ERC721.sol\":6552:6557  owner */\n      dup5\n        /* \"@openzeppelin/contracts/token/ERC721/ERC721.sol\":6552:6568  owner == spender */\n      0xffffffffffffffffffffffffffffffffffffffff\n      and\n      eq\n        /* \"@openzeppelin/contracts/token/ERC721/ERC721.sol\":6552:6604  owner == spender || isApprovedForAll(owner, spender) */\n      dup1\n      tag_270\n      jumpi\n      pop\n        /* \"@openzeppelin/contracts/token/ERC721/ERC721.sol\":6572:6604  isApprovedForAll(owner, spender) */\n      tag_271\n        /* \"@openzeppelin/contracts/token/ERC721/ERC721.sol\":6589:6594  owner */\n      dup5\n        /* \"@openzeppelin/contracts/token/ERC721/ERC721.sol\":6596:6603  spender */\n      dup5\n        /* \"@openzeppelin/contracts/token/ERC721/ERC721.sol\":6572:6588  isApprovedForAll */\n      tag_85\n        /* \"@openzeppelin/contracts/token/ERC721/ERC721.sol\":6572:6604  isApprovedForAll(owner, spender) */\n      jump\t// in\n    tag_271:\n        /* \"@openzeppelin/contracts/token/ERC721/ERC721.sol\":6552:6604  owner == spender || isApprovedForAll(owner, spender) */\n    tag_270:\n        /* \"@openzeppelin/contracts/token/ERC721/ERC721.sol\":6552:6640  owner == spender || isApprovedForAll(owner, spender) || _getApproved(tokenId) == spender */\n      dup1\n      tag_272\n      jumpi\n      pop\n        /* \"@openzeppelin/contracts/token/ERC721/ERC721.sol\":6633:6640  spender */\n      dup3\n        /* \"@openzeppelin/contracts/token/ERC721/ERC721.sol\":6608:6640  _getApproved(tokenId) == spender */\n      0xffffffffffffffffffffffffffffffffffffffff\n      and\n        /* \"@openzeppelin/contracts/token/ERC721/ERC721.sol\":6608:6629  _getApproved(tokenId) */\n      tag_273\n        /* \"@openzeppelin/contracts/token/ERC721/ERC721.sol\":6621:6628  tokenId */\n      dup4\n        /* \"@openzeppelin/contracts/token/ERC721/ERC721.sol\":6608:6620  _getApproved */\n      tag_109\n        /* \"@openzeppelin/contracts/token/ERC721/ERC721.sol\":6608:6629  _getApproved(tokenId) */\n      jump\t// in\n    tag_273:\n        /* \"@openzeppelin/contracts/token/ERC721/ERC721.sol\":6608:6640  _getApproved(tokenId) == spender */\n      0xffffffffffffffffffffffffffffffffffffffff\n      and\n      eq\n        /* \"@openzeppelin/contracts/token/ERC721/ERC721.sol\":6552:6640  owner == spender || isApprovedForAll(owner, spender) || _getApproved(tokenId) == spender */\n    tag_272:\n        /* \"@openzeppelin/contracts/token/ERC721/ERC721.sol\":6514:6641  spender != address(0) &&... */\n    tag_269:\n        /* \"@openzeppelin/contracts/token/ERC721/ERC721.sol\":6495:6641  return... */\n      swap1\n      pop\n        /* \"@openzeppelin/contracts/token/ERC721/ERC721.sol\":6376:6648  function _isAuthorized(address owner, address spender, uint256 tokenId) internal view virtual returns (bool) {... */\n      swap4\n      swap3\n      pop\n      pop\n      pop\n      jump\t// out\n        /* \"@openzeppelin/contracts/utils/math/Math.sol\":12214:13130  function log10(uint256 value) internal pure returns (uint256) {... */\n    tag_257:\n        /* \"@openzeppelin/contracts/utils/math/Math.sol\":12267:12274  uint256 */\n      0x00\n        /* \"@openzeppelin/contracts/utils/math/Math.sol\":12286:12300  uint256 result */\n      dup1\n        /* \"@openzeppelin/contracts/utils/math/Math.sol\":12303:12304  0 */\n      0x00\n        /* \"@openzeppelin/contracts/utils/math/Math.sol\":12286:12304  uint256 result = 0 */\n      swap1\n      pop\n        /* \"@openzeppelin/contracts/utils/math/Math.sol\":12351:12359  10 ** 64 */\n      0x184f03e93ff9f4daa797ed6e38ed64bf6a1f010000000000000000\n        /* \"@openzeppelin/contracts/utils/math/Math.sol\":12342:12347  value */\n      dup4\n        /* \"@openzeppelin/contracts/utils/math/Math.sol\":12342:12359  value >= 10 ** 64 */\n      lt\n        /* \"@openzeppelin/contracts/utils/math/Math.sol\":12338:12441  if (value >= 10 ** 64) {... */\n      tag_275\n      jumpi\n        /* \"@openzeppelin/contracts/utils/math/Math.sol\":12388:12396  10 ** 64 */\n      0x184f03e93ff9f4daa797ed6e38ed64bf6a1f010000000000000000\n        /* \"@openzeppelin/contracts/utils/math/Math.sol\":12379:12396  value /= 10 ** 64 */\n      dup4\n      dup2\n      tag_276\n      jumpi\n      tag_277\n      tag_266\n      jump\t// in\n    tag_277:\n    tag_276:\n      div\n      swap3\n      pop\n        /* \"@openzeppelin/contracts/utils/math/Math.sol\":12424:12426  64 */\n      0x40\n        /* \"@openzeppelin/contracts/utils/math/Math.sol\":12414:12426  result += 64 */\n      dup2\n      add\n      swap1\n      pop\n        /* \"@openzeppelin/contracts/utils/math/Math.sol\":12338:12441  if (value >= 10 ** 64) {... */\n    tag_275:\n        /* \"@openzeppelin/contracts/utils/math/Math.sol\":12467:12475  10 ** 32 */\n      0x04ee2d6d415b85acef8100000000\n        /* \"@openzeppelin/contracts/utils/math/Math.sol\":12458:12463  value */\n      dup4\n        /* \"@openzeppelin/contracts/utils/math/Math.sol\":12458:12475  value >= 10 ** 32 */\n      lt\n        /* \"@openzeppelin/contracts/utils/math/Math.sol\":12454:12557  if (value >= 10 ** 32) {... */\n      tag_278\n      jumpi\n        /* \"@openzeppelin/contracts/utils/math/Math.sol\":12504:12512  10 ** 32 */\n      0x04ee2d6d415b85acef8100000000\n        /* \"@openzeppelin/contracts/utils/math/Math.sol\":12495:12512  value /= 10 ** 32 */\n      dup4\n      dup2\n      tag_279\n      jumpi\n      tag_280\n      tag_266\n      jump\t// in\n    tag_280:\n    tag_279:\n      div\n      swap3\n      pop\n        /* \"@openzeppelin/contracts/utils/math/Math.sol\":12540:12542  32 */\n      0x20\n        /* \"@openzeppelin/contracts/utils/math/Math.sol\":12530:12542  result += 32 */\n      dup2\n      add\n      swap1\n      pop\n        /* \"@openzeppelin/contracts/utils/math/Math.sol\":12454:12557  if (value >= 10 ** 32) {... */\n    tag_278:\n        /* \"@openzeppelin/contracts/utils/math/Math.sol\":12583:12591  10 ** 16 */\n      0x2386f26fc10000\n        /* \"@openzeppelin/contracts/utils/math/Math.sol\":12574:12579  value */\n      dup4\n        /* \"@openzeppelin/contracts/utils/math/Math.sol\":12574:12591  value >= 10 ** 16 */\n      lt\n        /* \"@openzeppelin/contracts/utils/math/Math.sol\":12570:12673  if (value >= 10 ** 16) {... */\n      tag_281\n      jumpi\n        /* \"@openzeppelin/contracts/utils/math/Math.sol\":12620:12628  10 ** 16 */\n      0x2386f26fc10000\n        /* \"@openzeppelin/contracts/utils/math/Math.sol\":12611:12628  value /= 10 ** 16 */\n      dup4\n      dup2\n      tag_282\n      jumpi\n      tag_283\n      tag_266\n      jump\t// in\n    tag_283:\n    tag_282:\n      div\n      swap3\n      pop\n        /* \"@openzeppelin/contracts/utils/math/Math.sol\":12656:12658  16 */\n      0x10\n        /* \"@openzeppelin/contracts/utils/math/Math.sol\":12646:12658  result += 16 */\n      dup2\n      add\n      swap1\n      pop\n        /* \"@openzeppelin/contracts/utils/math/Math.sol\":12570:12673  if (value >= 10 ** 16) {... */\n    tag_281:\n        /* \"@openzeppelin/contracts/utils/math/Math.sol\":12699:12706  10 ** 8 */\n      0x05f5e100\n        /* \"@openzeppelin/contracts/utils/math/Math.sol\":12690:12695  value */\n      dup4\n        /* \"@openzeppelin/contracts/utils/math/Math.sol\":12690:12706  value >= 10 ** 8 */\n      lt\n        /* \"@openzeppelin/contracts/utils/math/Math.sol\":12686:12786  if (value >= 10 ** 8) {... */\n      tag_284\n      jumpi\n        /* \"@openzeppelin/contracts/utils/math/Math.sol\":12735:12742  10 ** 8 */\n      0x05f5e100\n        /* \"@openzeppelin/contracts/utils/math/Math.sol\":12726:12742  value /= 10 ** 8 */\n      dup4\n      dup2\n      tag_285\n      jumpi\n      tag_286\n      tag_266\n      jump\t// in\n    tag_286:\n    tag_285:\n      div\n      swap3\n      pop\n        /* \"@openzeppelin/contracts/utils/math/Math.sol\":12770:12771  8 */\n      0x08\n        /* \"@openzeppelin/contracts/utils/math/Math.sol\":12760:12771  result += 8 */\n      dup2\n      add\n      swap1\n      pop\n        /* \"@openzeppelin/contracts/utils/math/Math.sol\":12686:12786  if (value >= 10 ** 8) {... */\n    tag_284:\n        /* \"@openzeppelin/contracts/utils/math/Math.sol\":12812:12819  10 ** 4 */\n      0x2710\n        /* \"@openzeppelin/contracts/utils/math/Math.sol\":12803:12808  value */\n      dup4\n        /* \"@openzeppelin/contracts/utils/math/Math.sol\":12803:12819  value >= 10 ** 4 */\n      lt\n        /* \"@openzeppelin/contracts/utils/math/Math.sol\":12799:12899  if (value >= 10 ** 4) {... */\n      tag_287\n      jumpi\n        /* \"@openzeppelin/contracts/utils/math/Math.sol\":12848:12855  10 ** 4 */\n      0x2710\n        /* \"@openzeppelin/contracts/utils/math/Math.sol\":12839:12855  value /= 10 ** 4 */\n      dup4\n      dup2\n      tag_288\n      jumpi\n      tag_289\n      tag_266\n      jump\t// in\n    tag_289:\n    tag_288:\n      div\n      swap3\n      pop\n        /* \"@openzeppelin/contracts/utils/math/Math.sol\":12883:12884  4 */\n      0x04\n        /* \"@openzeppelin/contracts/utils/math/Math.sol\":12873:12884  result += 4 */\n      dup2\n      add\n      swap1\n      pop\n        /* \"@openzeppelin/contracts/utils/math/Math.sol\":12799:12899  if (value >= 10 ** 4) {... */\n    tag_287:\n        /* \"@openzeppelin/contracts/utils/math/Math.sol\":12925:12932  10 ** 2 */\n      0x64\n        /* \"@openzeppelin/contracts/utils/math/Math.sol\":12916:12921  value */\n      dup4\n        /* \"@openzeppelin/contracts/utils/math/Math.sol\":12916:12932  value >= 10 ** 2 */\n      lt\n        /* \"@openzeppelin/contracts/utils/math/Math.sol\":12912:13012  if (value >= 10 ** 2) {... */\n      tag_290\n      jumpi\n        /* \"@openzeppelin/contracts/utils/math/Math.sol\":12961:12968  10 ** 2 */\n      0x64\n        /* \"@openzeppelin/contracts/utils/math/Math.sol\":12952:12968  value /= 10 ** 2 */\n      dup4\n      dup2\n      tag_291\n      jumpi\n      tag_292\n      tag_266\n      jump\t// in\n    tag_292:\n    tag_291:\n      div\n      swap3\n      pop\n        /* \"@openzeppelin/contracts/utils/math/Math.sol\":12996:12997  2 */\n      0x02\n        /* \"@openzeppelin/contracts/utils/math/Math.sol\":12986:12997  result += 2 */\n      dup2\n      add\n      swap1\n      pop\n        /* \"@openzeppelin/contracts/utils/math/Math.sol\":12912:13012  if (value >= 10 ** 2) {... */\n    tag_290:\n        /* \"@openzeppelin/contracts/utils/math/Math.sol\":13038:13045  10 ** 1 */\n      0x0a\n        /* \"@openzeppelin/contracts/utils/math/Math.sol\":13029:13034  value */\n      dup4\n        /* \"@openzeppelin/contracts/utils/math/Math.sol\":13029:13045  value >= 10 ** 1 */\n      lt\n        /* \"@openzeppelin/contracts/utils/math/Math.sol\":13025:13091  if (value >= 10 ** 1) {... */\n      tag_293\n      jumpi\n        /* \"@openzeppelin/contracts/utils/math/Math.sol\":13075:13076  1 */\n      0x01\n        /* \"@openzeppelin/contracts/utils/math/Math.sol\":13065:13076  result += 1 */\n      dup2\n      add\n      swap1\n      pop\n        /* \"@openzeppelin/contracts/utils/math/Math.sol\":13025:13091  if (value >= 10 ** 1) {... */\n    tag_293:\n        /* \"@openzeppelin/contracts/utils/math/Math.sol\":13117:13123  result */\n      dup1\n        /* \"@openzeppelin/contracts/utils/math/Math.sol\":13110:13123  return result */\n      swap2\n      pop\n      pop\n        /* \"@openzeppelin/contracts/utils/math/Math.sol\":12214:13130  function log10(uint256 value) internal pure returns (uint256) {... */\n      swap2\n      swap1\n      pop\n      jump\t// out\n        /* \"#utility.yul\":7:82   */\n    tag_294:\n        /* \"#utility.yul\":40:46   */\n      0x00\n        /* \"#utility.yul\":73:75   */\n      0x40\n        /* \"#utility.yul\":67:76   */\n      mload\n        /* \"#utility.yul\":57:76   */\n      swap1\n      pop\n        /* \"#utility.yul\":7:82   */\n      swap1\n      jump\t// out\n        /* \"#utility.yul\":88:205   */\n    tag_295:\n        /* \"#utility.yul\":197:198   */\n      0x00\n        /* \"#utility.yul\":194:195   */\n      dup1\n        /* \"#utility.yul\":187:199   */\n      revert\n        /* \"#utility.yul\":211:328   */\n    tag_296:\n        /* \"#utility.yul\":320:321   */\n      0x00\n        /* \"#utility.yul\":317:318   */\n      dup1\n        /* \"#utility.yul\":310:322   */\n      revert\n        /* \"#utility.yul\":334:483   */\n    tag_297:\n        /* \"#utility.yul\":370:377   */\n      0x00\n        /* \"#utility.yul\":410:476   */\n      0xffffffff00000000000000000000000000000000000000000000000000000000\n        /* \"#utility.yul\":403:408   */\n      dup3\n        /* \"#utility.yul\":399:477   */\n      and\n        /* \"#utility.yul\":388:477   */\n      swap1\n      pop\n        /* \"#utility.yul\":334:483   */\n      swap2\n      swap1\n      pop\n      jump\t// out\n        /* \"#utility.yul\":489:609   */\n    tag_298:\n        /* \"#utility.yul\":561:584   */\n      tag_358\n        /* \"#utility.yul\":578:583   */\n      dup2\n        /* \"#utility.yul\":561:584   */\n      tag_297\n      jump\t// in\n    tag_358:\n        /* \"#utility.yul\":554:559   */\n      dup2\n        /* \"#utility.yul\":551:585   */\n      eq\n        /* \"#utility.yul\":541:603   */\n      tag_359\n      jumpi\n        /* \"#utility.yul\":599:600   */\n      0x00\n        /* \"#utility.yul\":596:597   */\n      dup1\n        /* \"#utility.yul\":589:601   */\n      revert\n        /* \"#utility.yul\":541:603   */\n    tag_359:\n        /* \"#utility.yul\":489:609   */\n      pop\n      jump\t// out\n        /* \"#utility.yul\":615:752   */\n    tag_299:\n        /* \"#utility.yul\":660:665   */\n      0x00\n        /* \"#utility.yul\":698:704   */\n      dup2\n        /* \"#utility.yul\":685:705   */\n      calldataload\n        /* \"#utility.yul\":676:705   */\n      swap1\n      pop\n        /* \"#utility.yul\":714:746   */\n      tag_361\n        /* \"#utility.yul\":740:745   */\n      dup2\n        /* \"#utility.yul\":714:746   */\n      tag_298\n      jump\t// in\n    tag_361:\n        /* \"#utility.yul\":615:752   */\n      swap3\n      swap2\n      pop\n      pop\n      jump\t// out\n        /* \"#utility.yul\":758:1085   */\n    tag_23:\n        /* \"#utility.yul\":816:822   */\n      0x00\n        /* \"#utility.yul\":865:867   */\n      0x20\n        /* \"#utility.yul\":853:862   */\n      dup3\n        /* \"#utility.yul\":844:851   */\n      dup5\n        /* \"#utility.yul\":840:863   */\n      sub\n        /* \"#utility.yul\":836:868   */\n      slt\n        /* \"#utility.yul\":833:952   */\n      iszero\n      tag_363\n      jumpi\n        /* \"#utility.yul\":871:950   */\n      tag_364\n      tag_295\n      jump\t// in\n    tag_364:\n        /* \"#utility.yul\":833:952   */\n    tag_363:\n        /* \"#utility.yul\":991:992   */\n      0x00\n        /* \"#utility.yul\":1016:1068   */\n      tag_365\n        /* \"#utility.yul\":1060:1067   */\n      dup5\n        /* \"#utility.yul\":1051:1057   */\n      dup3\n        /* \"#utility.yul\":1040:1049   */\n      dup6\n        /* \"#utility.yul\":1036:1058   */\n      add\n        /* \"#utility.yul\":1016:1068   */\n      tag_299\n      jump\t// in\n    tag_365:\n        /* \"#utility.yul\":1006:1068   */\n      swap2\n      pop\n        /* \"#utility.yul\":962:1078   */\n      pop\n        /* \"#utility.yul\":758:1085   */\n      swap3\n      swap2\n      pop\n      pop\n      jump\t// out\n        /* \"#utility.yul\":1091:1181   */\n    tag_300:\n        /* \"#utility.yul\":1125:1132   */\n      0x00\n        /* \"#utility.yul\":1168:1173   */\n      dup2\n        /* \"#utility.yul\":1161:1174   */\n      iszero\n        /* \"#utility.yul\":1154:1175   */\n      iszero\n        /* \"#utility.yul\":1143:1175   */\n      swap1\n      pop\n        /* \"#utility.yul\":1091:1181   */\n      swap2\n      swap1\n      pop\n      jump\t// out\n        /* \"#utility.yul\":1187:1296   */\n    tag_301:\n        /* \"#utility.yul\":1268:1289   */\n      tag_368\n        /* \"#utility.yul\":1283:1288   */\n      dup2\n        /* \"#utility.yul\":1268:1289   */\n      tag_300\n      jump\t// in\n    tag_368:\n        /* \"#utility.yul\":1263:1266   */\n      dup3\n        /* \"#utility.yul\":1256:1290   */\n      mstore\n        /* \"#utility.yul\":1187:1296   */\n      pop\n      pop\n      jump\t// out\n        /* \"#utility.yul\":1302:1512   */\n    tag_26:\n        /* \"#utility.yul\":1389:1393   */\n      0x00\n        /* \"#utility.yul\":1427:1429   */\n      0x20\n        /* \"#utility.yul\":1416:1425   */\n      dup3\n        /* \"#utility.yul\":1412:1430   */\n      add\n        /* \"#utility.yul\":1404:1430   */\n      swap1\n      pop\n        /* \"#utility.yul\":1440:1505   */\n      tag_370\n        /* \"#utility.yul\":1502:1503   */\n      0x00\n        /* \"#utility.yul\":1491:1500   */\n      dup4\n        /* \"#utility.yul\":1487:1504   */\n      add\n        /* \"#utility.yul\":1478:1484   */\n      dup5\n        /* \"#utility.yul\":1440:1505   */\n      tag_301\n      jump\t// in\n    tag_370:\n        /* \"#utility.yul\":1302:1512   */\n      swap3\n      swap2\n      pop\n      pop\n      jump\t// out\n        /* \"#utility.yul\":1518:1635   */\n    tag_302:\n        /* \"#utility.yul\":1627:1628   */\n      0x00\n        /* \"#utility.yul\":1624:1625   */\n      dup1\n        /* \"#utility.yul\":1617:1629   */\n      revert\n        /* \"#utility.yul\":1641:1758   */\n    tag_303:\n        /* \"#utility.yul\":1750:1751   */\n      0x00\n        /* \"#utility.yul\":1747:1748   */\n      dup1\n        /* \"#utility.yul\":1740:1752   */\n      revert\n        /* \"#utility.yul\":1764:1866   */\n    tag_304:\n        /* \"#utility.yul\":1805:1811   */\n      0x00\n        /* \"#utility.yul\":1856:1858   */\n      0x1f\n        /* \"#utility.yul\":1852:1859   */\n      not\n        /* \"#utility.yul\":1847:1849   */\n      0x1f\n        /* \"#utility.yul\":1840:1845   */\n      dup4\n        /* \"#utility.yul\":1836:1850   */\n      add\n        /* \"#utility.yul\":1832:1860   */\n      and\n        /* \"#utility.yul\":1822:1860   */\n      swap1\n      pop\n        /* \"#utility.yul\":1764:1866   */\n      swap2\n      swap1\n      pop\n      jump\t// out\n        /* \"#utility.yul\":1872:2052   */\n    tag_260:\n        /* \"#utility.yul\":1920:1997   */\n      0x4e487b7100000000000000000000000000000000000000000000000000000000\n        /* \"#utility.yul\":1917:1918   */\n      0x00\n        /* \"#utility.yul\":1910:1998   */\n      mstore\n        /* \"#utility.yul\":2017:2021   */\n      0x41\n        /* \"#utility.yul\":2014:2015   */\n      0x04\n        /* \"#utility.yul\":2007:2022   */\n      mstore\n        /* \"#utility.yul\":2041:2045   */\n      0x24\n        /* \"#utility.yul\":2038:2039   */\n      0x00\n        /* \"#utility.yul\":2031:2046   */\n      revert\n        /* \"#utility.yul\":2058:2339   */\n    tag_305:\n        /* \"#utility.yul\":2141:2168   */\n      tag_376\n        /* \"#utility.yul\":2163:2167   */\n      dup3\n        /* \"#utility.yul\":2141:2168   */\n      tag_304\n      jump\t// in\n    tag_376:\n        /* \"#utility.yul\":2133:2139   */\n      dup2\n        /* \"#utility.yul\":2129:2169   */\n      add\n        /* \"#utility.yul\":2271:2277   */\n      dup2\n        /* \"#utility.yul\":2259:2269   */\n      dup2\n        /* \"#utility.yul\":2256:2278   */\n      lt\n        /* \"#utility.yul\":2235:2253   */\n      0xffffffffffffffff\n        /* \"#utility.yul\":2223:2233   */\n      dup3\n        /* \"#utility.yul\":2220:2254   */\n      gt\n        /* \"#utility.yul\":2217:2279   */\n      or\n        /* \"#utility.yul\":2214:2302   */\n      iszero\n      tag_377\n      jumpi\n        /* \"#utility.yul\":2282:2300   */\n      tag_378\n      tag_260\n      jump\t// in\n    tag_378:\n        /* \"#utility.yul\":2214:2302   */\n    tag_377:\n        /* \"#utility.yul\":2322:2332   */\n      dup1\n        /* \"#utility.yul\":2318:2320   */\n      0x40\n        /* \"#utility.yul\":2311:2333   */\n      mstore\n        /* \"#utility.yul\":2101:2339   */\n      pop\n        /* \"#utility.yul\":2058:2339   */\n      pop\n      pop\n      jump\t// out\n        /* \"#utility.yul\":2345:2474   */\n    tag_306:\n        /* \"#utility.yul\":2379:2385   */\n      0x00\n        /* \"#utility.yul\":2406:2426   */\n      tag_380\n      tag_294\n      jump\t// in\n    tag_380:\n        /* \"#utility.yul\":2396:2426   */\n      swap1\n      pop\n        /* \"#utility.yul\":2435:2468   */\n      tag_381\n        /* \"#utility.yul\":2463:2467   */\n      dup3\n        /* \"#utility.yul\":2455:2461   */\n      dup3\n        /* \"#utility.yul\":2435:2468   */\n      tag_305\n      jump\t// in\n    tag_381:\n        /* \"#utility.yul\":2345:2474   */\n      swap2\n      swap1\n      pop\n      jump\t// out\n        /* \"#utility.yul\":2480:2788   */\n    tag_307:\n        /* \"#utility.yul\":2542:2546   */\n      0x00\n        /* \"#utility.yul\":2632:2650   */\n      0xffffffffffffffff\n        /* \"#utility.yul\":2624:2630   */\n      dup3\n        /* \"#utility.yul\":2621:2651   */\n      gt\n        /* \"#utility.yul\":2618:2674   */\n      iszero\n      tag_383\n      jumpi\n        /* \"#utility.yul\":2654:2672   */\n      tag_384\n      tag_260\n      jump\t// in\n    tag_384:\n        /* \"#utility.yul\":2618:2674   */\n    tag_383:\n        /* \"#utility.yul\":2692:2721   */\n      tag_385\n        /* \"#utility.yul\":2714:2720   */\n      dup3\n        /* \"#utility.yul\":2692:2721   */\n      tag_304\n      jump\t// in\n    tag_385:\n        /* \"#utility.yul\":2684:2721   */\n      swap1\n      pop\n        /* \"#utility.yul\":2776:2780   */\n      0x20\n        /* \"#utility.yul\":2770:2774   */\n      dup2\n        /* \"#utility.yul\":2766:2781   */\n      add\n        /* \"#utility.yul\":2758:2781   */\n      swap1\n      pop\n        /* \"#utility.yul\":2480:2788   */\n      swap2\n      swap1\n      pop\n      jump\t// out\n        /* \"#utility.yul\":2794:2942   */\n    tag_308:\n        /* \"#utility.yul\":2892:2898   */\n      dup3\n        /* \"#utility.yul\":2887:2890   */\n      dup2\n        /* \"#utility.yul\":2882:2885   */\n      dup4\n        /* \"#utility.yul\":2869:2899   */\n      calldatacopy\n        /* \"#utility.yul\":2933:2934   */\n      0x00\n        /* \"#utility.yul\":2924:2930   */\n      dup4\n        /* \"#utility.yul\":2919:2922   */\n      dup4\n        /* \"#utility.yul\":2915:2931   */\n      add\n        /* \"#utility.yul\":2908:2935   */\n      mstore\n        /* \"#utility.yul\":2794:2942   */\n      pop\n      pop\n      pop\n      jump\t// out\n        /* \"#utility.yul\":2948:3373   */\n    tag_309:\n        /* \"#utility.yul\":3026:3031   */\n      0x00\n        /* \"#utility.yul\":3051:3117   */\n      tag_388\n        /* \"#utility.yul\":3067:3116   */\n      tag_389\n        /* \"#utility.yul\":3109:3115   */\n      dup5\n        /* \"#utility.yul\":3067:3116   */\n      tag_307\n      jump\t// in\n    tag_389:\n        /* \"#utility.yul\":3051:3117   */\n      tag_306\n      jump\t// in\n    tag_388:\n        /* \"#utility.yul\":3042:3117   */\n      swap1\n      pop\n        /* \"#utility.yul\":3140:3146   */\n      dup3\n        /* \"#utility.yul\":3133:3138   */\n      dup2\n        /* \"#utility.yul\":3126:3147   */\n      mstore\n        /* \"#utility.yul\":3178:3182   */\n      0x20\n        /* \"#utility.yul\":3171:3176   */\n      dup2\n        /* \"#utility.yul\":3167:3183   */\n      add\n        /* \"#utility.yul\":3216:3219   */\n      dup5\n        /* \"#utility.yul\":3207:3213   */\n      dup5\n        /* \"#utility.yul\":3202:3205   */\n      dup5\n        /* \"#utility.yul\":3198:3214   */\n      add\n        /* \"#utility.yul\":3195:3220   */\n      gt\n        /* \"#utility.yul\":3192:3304   */\n      iszero\n      tag_390\n      jumpi\n        /* \"#utility.yul\":3223:3302   */\n      tag_391\n      tag_303\n      jump\t// in\n    tag_391:\n        /* \"#utility.yul\":3192:3304   */\n    tag_390:\n        /* \"#utility.yul\":3313:3367   */\n      tag_392\n        /* \"#utility.yul\":3360:3366   */\n      dup5\n        /* \"#utility.yul\":3355:3358   */\n      dup3\n        /* \"#utility.yul\":3350:3353   */\n      dup6\n        /* \"#utility.yul\":3313:3367   */\n      tag_308\n      jump\t// in\n    tag_392:\n        /* \"#utility.yul\":3032:3373   */\n      pop\n        /* \"#utility.yul\":2948:3373   */\n      swap4\n      swap3\n      pop\n      pop\n      pop\n      jump\t// out\n        /* \"#utility.yul\":3393:3733   */\n    tag_310:\n        /* \"#utility.yul\":3449:3454   */\n      0x00\n        /* \"#utility.yul\":3498:3501   */\n      dup3\n        /* \"#utility.yul\":3491:3495   */\n      0x1f\n        /* \"#utility.yul\":3483:3489   */\n      dup4\n        /* \"#utility.yul\":3479:3496   */\n      add\n        /* \"#utility.yul\":3475:3502   */\n      slt\n        /* \"#utility.yul\":3465:3587   */\n      tag_394\n      jumpi\n        /* \"#utility.yul\":3506:3585   */\n      tag_395\n      tag_302\n      jump\t// in\n    tag_395:\n        /* \"#utility.yul\":3465:3587   */\n    tag_394:\n        /* \"#utility.yul\":3623:3629   */\n      dup2\n        /* \"#utility.yul\":3610:3630   */\n      calldataload\n        /* \"#utility.yul\":3648:3727   */\n      tag_396\n        /* \"#utility.yul\":3723:3726   */\n      dup5\n        /* \"#utility.yul\":3715:3721   */\n      dup3\n        /* \"#utility.yul\":3708:3712   */\n      0x20\n        /* \"#utility.yul\":3700:3706   */\n      dup7\n        /* \"#utility.yul\":3696:3713   */\n      add\n        /* \"#utility.yul\":3648:3727   */\n      tag_309\n      jump\t// in\n    tag_396:\n        /* \"#utility.yul\":3639:3727   */\n      swap2\n      pop\n        /* \"#utility.yul\":3455:3733   */\n      pop\n        /* \"#utility.yul\":3393:3733   */\n      swap3\n      swap2\n      pop\n      pop\n      jump\t// out\n        /* \"#utility.yul\":3739:3865   */\n    tag_311:\n        /* \"#utility.yul\":3776:3783   */\n      0x00\n        /* \"#utility.yul\":3816:3858   */\n      0xffffffffffffffffffffffffffffffffffffffff\n        /* \"#utility.yul\":3809:3814   */\n      dup3\n        /* \"#utility.yul\":3805:3859   */\n      and\n        /* \"#utility.yul\":3794:3859   */\n      swap1\n      pop\n        /* \"#utility.yul\":3739:3865   */\n      swap2\n      swap1\n      pop\n      jump\t// out\n        /* \"#utility.yul\":3871:3967   */\n    tag_312:\n        /* \"#utility.yul\":3908:3915   */\n      0x00\n        /* \"#utility.yul\":3937:3961   */\n      tag_399\n        /* \"#utility.yul\":3955:3960   */\n      dup3\n        /* \"#utility.yul\":3937:3961   */\n      tag_311\n      jump\t// in\n    tag_399:\n        /* \"#utility.yul\":3926:3961   */\n      swap1\n      pop\n        /* \"#utility.yul\":3871:3967   */\n      swap2\n      swap1\n      pop\n      jump\t// out\n        /* \"#utility.yul\":3973:4095   */\n    tag_313:\n        /* \"#utility.yul\":4046:4070   */\n      tag_401\n        /* \"#utility.yul\":4064:4069   */\n      dup2\n        /* \"#utility.yul\":4046:4070   */\n      tag_312\n      jump\t// in\n    tag_401:\n        /* \"#utility.yul\":4039:4044   */\n      dup2\n        /* \"#utility.yul\":4036:4071   */\n      eq\n        /* \"#utility.yul\":4026:4089   */\n      tag_402\n      jumpi\n        /* \"#utility.yul\":4085:4086   */\n      0x00\n        /* \"#utility.yul\":4082:4083   */\n      dup1\n        /* \"#utility.yul\":4075:4087   */\n      revert\n        /* \"#utility.yul\":4026:4089   */\n    tag_402:\n        /* \"#utility.yul\":3973:4095   */\n      pop\n      jump\t// out\n        /* \"#utility.yul\":4101:4240   */\n    tag_314:\n        /* \"#utility.yul\":4147:4152   */\n      0x00\n        /* \"#utility.yul\":4185:4191   */\n      dup2\n        /* \"#utility.yul\":4172:4192   */\n      calldataload\n        /* \"#utility.yul\":4163:4192   */\n      swap1\n      pop\n        /* \"#utility.yul\":4201:4234   */\n      tag_404\n        /* \"#utility.yul\":4228:4233   */\n      dup2\n        /* \"#utility.yul\":4201:4234   */\n      tag_313\n      jump\t// in\n    tag_404:\n        /* \"#utility.yul\":4101:4240   */\n      swap3\n      swap2\n      pop\n      pop\n      jump\t// out\n        /* \"#utility.yul\":4246:4900   */\n    tag_29:\n        /* \"#utility.yul\":4324:4330   */\n      0x00\n        /* \"#utility.yul\":4332:4338   */\n      dup1\n        /* \"#utility.yul\":4381:4383   */\n      0x40\n        /* \"#utility.yul\":4369:4378   */\n      dup4\n        /* \"#utility.yul\":4360:4367   */\n      dup6\n        /* \"#utility.yul\":4356:4379   */\n      sub\n        /* \"#utility.yul\":4352:4384   */\n      slt\n        /* \"#utility.yul\":4349:4468   */\n      iszero\n      tag_406\n      jumpi\n        /* \"#utility.yul\":4387:4466   */\n      tag_407\n      tag_295\n      jump\t// in\n    tag_407:\n        /* \"#utility.yul\":4349:4468   */\n    tag_406:\n        /* \"#utility.yul\":4535:4536   */\n      0x00\n        /* \"#utility.yul\":4524:4533   */\n      dup4\n        /* \"#utility.yul\":4520:4537   */\n      add\n        /* \"#utility.yul\":4507:4538   */\n      calldataload\n        /* \"#utility.yul\":4565:4583   */\n      0xffffffffffffffff\n        /* \"#utility.yul\":4557:4563   */\n      dup2\n        /* \"#utility.yul\":4554:4584   */\n      gt\n        /* \"#utility.yul\":4551:4668   */\n      iszero\n      tag_408\n      jumpi\n        /* \"#utility.yul\":4587:4666   */\n      tag_409\n      tag_296\n      jump\t// in\n    tag_409:\n        /* \"#utility.yul\":4551:4668   */\n    tag_408:\n        /* \"#utility.yul\":4692:4755   */\n      tag_410\n        /* \"#utility.yul\":4747:4754   */\n      dup6\n        /* \"#utility.yul\":4738:4744   */\n      dup3\n        /* \"#utility.yul\":4727:4736   */\n      dup7\n        /* \"#utility.yul\":4723:4745   */\n      add\n        /* \"#utility.yul\":4692:4755   */\n      tag_310\n      jump\t// in\n    tag_410:\n        /* \"#utility.yul\":4682:4755   */\n      swap3\n      pop\n        /* \"#utility.yul\":4478:4765   */\n      pop\n        /* \"#utility.yul\":4804:4806   */\n      0x20\n        /* \"#utility.yul\":4830:4883   */\n      tag_411\n        /* \"#utility.yul\":4875:4882   */\n      dup6\n        /* \"#utility.yul\":4866:4872   */\n      dup3\n        /* \"#utility.yul\":4855:4864   */\n      dup7\n        /* \"#utility.yul\":4851:4873   */\n      add\n        /* \"#utility.yul\":4830:4883   */\n      tag_314\n      jump\t// in\n    tag_411:\n        /* \"#utility.yul\":4820:4883   */\n      swap2\n      pop\n        /* \"#utility.yul\":4775:4893   */\n      pop\n        /* \"#utility.yul\":4246:4900   */\n      swap3\n      pop\n      swap3\n      swap1\n      pop\n      jump\t// out\n        /* \"#utility.yul\":4906:4983   */\n    tag_315:\n        /* \"#utility.yul\":4943:4950   */\n      0x00\n        /* \"#utility.yul\":4972:4977   */\n      dup2\n        /* \"#utility.yul\":4961:4977   */\n      swap1\n      pop\n        /* \"#utility.yul\":4906:4983   */\n      swap2\n      swap1\n      pop\n      jump\t// out\n        /* \"#utility.yul\":4989:5107   */\n    tag_316:\n        /* \"#utility.yul\":5076:5100   */\n      tag_414\n        /* \"#utility.yul\":5094:5099   */\n      dup2\n        /* \"#utility.yul\":5076:5100   */\n      tag_315\n      jump\t// in\n    tag_414:\n        /* \"#utility.yul\":5071:5074   */\n      dup3\n        /* \"#utility.yul\":5064:5101   */\n      mstore\n        /* \"#utility.yul\":4989:5107   */\n      pop\n      pop\n      jump\t// out\n        /* \"#utility.yul\":5113:5335   */\n    tag_32:\n        /* \"#utility.yul\":5206:5210   */\n      0x00\n        /* \"#utility.yul\":5244:5246   */\n      0x20\n        /* \"#utility.yul\":5233:5242   */\n      dup3\n        /* \"#utility.yul\":5229:5247   */\n      add\n        /* \"#utility.yul\":5221:5247   */\n      swap1\n      pop\n        /* \"#utility.yul\":5257:5328   */\n      tag_416\n        /* \"#utility.yul\":5325:5326   */\n      0x00\n        /* \"#utility.yul\":5314:5323   */\n      dup4\n        /* \"#utility.yul\":5310:5327   */\n      add\n        /* \"#utility.yul\":5301:5307   */\n      dup5\n        /* \"#utility.yul\":5257:5328   */\n      tag_316\n      jump\t// in\n    tag_416:\n        /* \"#utility.yul\":5113:5335   */\n      swap3\n      swap2\n      pop\n      pop\n      jump\t// out\n        /* \"#utility.yul\":5341:5440   */\n    tag_317:\n        /* \"#utility.yul\":5393:5399   */\n      0x00\n        /* \"#utility.yul\":5427:5432   */\n      dup2\n        /* \"#utility.yul\":5421:5433   */\n      mload\n        /* \"#utility.yul\":5411:5433   */\n      swap1\n      pop\n        /* \"#utility.yul\":5341:5440   */\n      swap2\n      swap1\n      pop\n      jump\t// out\n        /* \"#utility.yul\":5446:5615   */\n    tag_318:\n        /* \"#utility.yul\":5530:5541   */\n      0x00\n        /* \"#utility.yul\":5564:5570   */\n      dup3\n        /* \"#utility.yul\":5559:5562   */\n      dup3\n        /* \"#utility.yul\":5552:5571   */\n      mstore\n        /* \"#utility.yul\":5604:5608   */\n      0x20\n        /* \"#utility.yul\":5599:5602   */\n      dup3\n        /* \"#utility.yul\":5595:5609   */\n      add\n        /* \"#utility.yul\":5580:5609   */\n      swap1\n      pop\n        /* \"#utility.yul\":5446:5615   */\n      swap3\n      swap2\n      pop\n      pop\n      jump\t// out\n        /* \"#utility.yul\":5621:5760   */\n    tag_319:\n        /* \"#utility.yul\":5710:5716   */\n      dup3\n        /* \"#utility.yul\":5705:5708   */\n      dup2\n        /* \"#utility.yul\":5700:5703   */\n      dup4\n        /* \"#utility.yul\":5694:5717   */\n      mcopy\n        /* \"#utility.yul\":5751:5752   */\n      0x00\n        /* \"#utility.yul\":5742:5748   */\n      dup4\n        /* \"#utility.yul\":5737:5740   */\n      dup4\n        /* \"#utility.yul\":5733:5749   */\n      add\n        /* \"#utility.yul\":5726:5753   */\n      mstore\n        /* \"#utility.yul\":5621:5760   */\n      pop\n      pop\n      pop\n      jump\t// out\n        /* \"#utility.yul\":5766:6143   */\n    tag_320:\n        /* \"#utility.yul\":5854:5857   */\n      0x00\n        /* \"#utility.yul\":5882:5921   */\n      tag_421\n        /* \"#utility.yul\":5915:5920   */\n      dup3\n        /* \"#utility.yul\":5882:5921   */\n      tag_317\n      jump\t// in\n    tag_421:\n        /* \"#utility.yul\":5937:6008   */\n      tag_422\n        /* \"#utility.yul\":6001:6007   */\n      dup2\n        /* \"#utility.yul\":5996:5999   */\n      dup6\n        /* \"#utility.yul\":5937:6008   */\n      tag_318\n      jump\t// in\n    tag_422:\n        /* \"#utility.yul\":5930:6008   */\n      swap4\n      pop\n        /* \"#utility.yul\":6017:6082   */\n      tag_423\n        /* \"#utility.yul\":6075:6081   */\n      dup2\n        /* \"#utility.yul\":6070:6073   */\n      dup6\n        /* \"#utility.yul\":6063:6067   */\n      0x20\n        /* \"#utility.yul\":6056:6061   */\n      dup7\n        /* \"#utility.yul\":6052:6068   */\n      add\n        /* \"#utility.yul\":6017:6082   */\n      tag_319\n      jump\t// in\n    tag_423:\n        /* \"#utility.yul\":6107:6136   */\n      tag_424\n        /* \"#utility.yul\":6129:6135   */\n      dup2\n        /* \"#utility.yul\":6107:6136   */\n      tag_304\n      jump\t// in\n    tag_424:\n        /* \"#utility.yul\":6102:6105   */\n      dup5\n        /* \"#utility.yul\":6098:6137   */\n      add\n        /* \"#utility.yul\":6091:6137   */\n      swap2\n      pop\n        /* \"#utility.yul\":5858:6143   */\n      pop\n        /* \"#utility.yul\":5766:6143   */\n      swap3\n      swap2\n      pop\n      pop\n      jump\t// out\n        /* \"#utility.yul\":6149:6462   */\n    tag_36:\n        /* \"#utility.yul\":6262:6266   */\n      0x00\n        /* \"#utility.yul\":6300:6302   */\n      0x20\n        /* \"#utility.yul\":6289:6298   */\n      dup3\n        /* \"#utility.yul\":6285:6303   */\n      add\n        /* \"#utility.yul\":6277:6303   */\n      swap1\n      pop\n        /* \"#utility.yul\":6349:6358   */\n      dup2\n        /* \"#utility.yul\":6343:6347   */\n      dup2\n        /* \"#utility.yul\":6339:6359   */\n      sub\n        /* \"#utility.yul\":6335:6336   */\n      0x00\n        /* \"#utility.yul\":6324:6333   */\n      dup4\n        /* \"#utility.yul\":6320:6337   */\n      add\n        /* \"#utility.yul\":6313:6360   */\n      mstore\n        /* \"#utility.yul\":6377:6455   */\n      tag_426\n        /* \"#utility.yul\":6450:6454   */\n      dup2\n        /* \"#utility.yul\":6441:6447   */\n      dup5\n        /* \"#utility.yul\":6377:6455   */\n      tag_320\n      jump\t// in\n    tag_426:\n        /* \"#utility.yul\":6369:6455   */\n      swap1\n      pop\n        /* \"#utility.yul\":6149:6462   */\n      swap3\n      swap2\n      pop\n      pop\n      jump\t// out\n        /* \"#utility.yul\":6468:6590   */\n    tag_321:\n        /* \"#utility.yul\":6541:6565   */\n      tag_428\n        /* \"#utility.yul\":6559:6564   */\n      dup2\n        /* \"#utility.yul\":6541:6565   */\n      tag_315\n      jump\t// in\n    tag_428:\n        /* \"#utility.yul\":6534:6539   */\n      dup2\n        /* \"#utility.yul\":6531:6566   */\n      eq\n        /* \"#utility.yul\":6521:6584   */\n      tag_429\n      jumpi\n        /* \"#utility.yul\":6580:6581   */\n      0x00\n        /* \"#utility.yul\":6577:6578   */\n      dup1\n        /* \"#utility.yul\":6570:6582   */\n      revert\n        /* \"#utility.yul\":6521:6584   */\n    tag_429:\n        /* \"#utility.yul\":6468:6590   */\n      pop\n      jump\t// out\n        /* \"#utility.yul\":6596:6735   */\n    tag_322:\n        /* \"#utility.yul\":6642:6647   */\n      0x00\n        /* \"#utility.yul\":6680:6686   */\n      dup2\n        /* \"#utility.yul\":6667:6687   */\n      calldataload\n        /* \"#utility.yul\":6658:6687   */\n      swap1\n      pop\n        /* \"#utility.yul\":6696:6729   */\n      tag_431\n        /* \"#utility.yul\":6723:6728   */\n      dup2\n        /* \"#utility.yul\":6696:6729   */\n      tag_321\n      jump\t// in\n    tag_431:\n        /* \"#utility.yul\":6596:6735   */\n      swap3\n      swap2\n      pop\n      pop\n      jump\t// out\n        /* \"#utility.yul\":6741:7070   */\n    tag_39:\n        /* \"#utility.yul\":6800:6806   */\n      0x00\n        /* \"#utility.yul\":6849:6851   */\n      0x20\n        /* \"#utility.yul\":6837:6846   */\n      dup3\n        /* \"#utility.yul\":6828:6835   */\n      dup5\n        /* \"#utility.yul\":6824:6847   */\n      sub\n        /* \"#utility.yul\":6820:6852   */\n      slt\n        /* \"#utility.yul\":6817:6936   */\n      iszero\n      tag_433\n      jumpi\n        /* \"#utility.yul\":6855:6934   */\n      tag_434\n      tag_295\n      jump\t// in\n    tag_434:\n        /* \"#utility.yul\":6817:6936   */\n    tag_433:\n        /* \"#utility.yul\":6975:6976   */\n      0x00\n        /* \"#utility.yul\":7000:7053   */\n      tag_435\n        /* \"#utility.yul\":7045:7052   */\n      dup5\n        /* \"#utility.yul\":7036:7042   */\n      dup3\n        /* \"#utility.yul\":7025:7034   */\n      dup6\n        /* \"#utility.yul\":7021:7043   */\n      add\n        /* \"#utility.yul\":7000:7053   */\n      tag_322\n      jump\t// in\n    tag_435:\n        /* \"#utility.yul\":6990:7053   */\n      swap2\n      pop\n        /* \"#utility.yul\":6946:7063   */\n      pop\n        /* \"#utility.yul\":6741:7070   */\n      swap3\n      swap2\n      pop\n      pop\n      jump\t// out\n        /* \"#utility.yul\":7076:7194   */\n    tag_323:\n        /* \"#utility.yul\":7163:7187   */\n      tag_437\n        /* \"#utility.yul\":7181:7186   */\n      dup2\n        /* \"#utility.yul\":7163:7187   */\n      tag_312\n      jump\t// in\n    tag_437:\n        /* \"#utility.yul\":7158:7161   */\n      dup3\n        /* \"#utility.yul\":7151:7188   */\n      mstore\n        /* \"#utility.yul\":7076:7194   */\n      pop\n      pop\n      jump\t// out\n        /* \"#utility.yul\":7200:7422   */\n    tag_42:\n        /* \"#utility.yul\":7293:7297   */\n      0x00\n        /* \"#utility.yul\":7331:7333   */\n      0x20\n        /* \"#utility.yul\":7320:7329   */\n      dup3\n        /* \"#utility.yul\":7316:7334   */\n      add\n        /* \"#utility.yul\":7308:7334   */\n      swap1\n      pop\n        /* \"#utility.yul\":7344:7415   */\n      tag_439\n        /* \"#utility.yul\":7412:7413   */\n      0x00\n        /* \"#utility.yul\":7401:7410   */\n      dup4\n        /* \"#utility.yul\":7397:7414   */\n      add\n        /* \"#utility.yul\":7388:7394   */\n      dup5\n        /* \"#utility.yul\":7344:7415   */\n      tag_323\n      jump\t// in\n    tag_439:\n        /* \"#utility.yul\":7200:7422   */\n      swap3\n      swap2\n      pop\n      pop\n      jump\t// out\n        /* \"#utility.yul\":7428:7902   */\n    tag_45:\n        /* \"#utility.yul\":7496:7502   */\n      0x00\n        /* \"#utility.yul\":7504:7510   */\n      dup1\n        /* \"#utility.yul\":7553:7555   */\n      0x40\n        /* \"#utility.yul\":7541:7550   */\n      dup4\n        /* \"#utility.yul\":7532:7539   */\n      dup6\n        /* \"#utility.yul\":7528:7551   */\n      sub\n        /* \"#utility.yul\":7524:7556   */\n      slt\n        /* \"#utility.yul\":7521:7640   */\n      iszero\n      tag_441\n      jumpi\n        /* \"#utility.yul\":7559:7638   */\n      tag_442\n      tag_295\n      jump\t// in\n    tag_442:\n        /* \"#utility.yul\":7521:7640   */\n    tag_441:\n        /* \"#utility.yul\":7679:7680   */\n      0x00\n        /* \"#utility.yul\":7704:7757   */\n      tag_443\n        /* \"#utility.yul\":7749:7756   */\n      dup6\n        /* \"#utility.yul\":7740:7746   */\n      dup3\n        /* \"#utility.yul\":7729:7738   */\n      dup7\n        /* \"#utility.yul\":7725:7747   */\n      add\n        /* \"#utility.yul\":7704:7757   */\n      tag_314\n      jump\t// in\n    tag_443:\n        /* \"#utility.yul\":7694:7757   */\n      swap3\n      pop\n        /* \"#utility.yul\":7650:7767   */\n      pop\n        /* \"#utility.yul\":7806:7808   */\n      0x20\n        /* \"#utility.yul\":7832:7885   */\n      tag_444\n        /* \"#utility.yul\":7877:7884   */\n      dup6\n        /* \"#utility.yul\":7868:7874   */\n      dup3\n        /* \"#utility.yul\":7857:7866   */\n      dup7\n        /* \"#utility.yul\":7853:7875   */\n      add\n        /* \"#utility.yul\":7832:7885   */\n      tag_322\n      jump\t// in\n    tag_444:\n        /* \"#utility.yul\":7822:7885   */\n      swap2\n      pop\n        /* \"#utility.yul\":7777:7895   */\n      pop\n        /* \"#utility.yul\":7428:7902   */\n      swap3\n      pop\n      swap3\n      swap1\n      pop\n      jump\t// out\n        /* \"#utility.yul\":7908:8527   */\n    tag_49:\n        /* \"#utility.yul\":7985:7991   */\n      0x00\n        /* \"#utility.yul\":7993:7999   */\n      dup1\n        /* \"#utility.yul\":8001:8007   */\n      0x00\n        /* \"#utility.yul\":8050:8052   */\n      0x60\n        /* \"#utility.yul\":8038:8047   */\n      dup5\n        /* \"#utility.yul\":8029:8036   */\n      dup7\n        /* \"#utility.yul\":8025:8048   */\n      sub\n        /* \"#utility.yul\":8021:8053   */\n      slt\n        /* \"#utility.yul\":8018:8137   */\n      iszero\n      tag_446\n      jumpi\n        /* \"#utility.yul\":8056:8135   */\n      tag_447\n      tag_295\n      jump\t// in\n    tag_447:\n        /* \"#utility.yul\":8018:8137   */\n    tag_446:\n        /* \"#utility.yul\":8176:8177   */\n      0x00\n        /* \"#utility.yul\":8201:8254   */\n      tag_448\n        /* \"#utility.yul\":8246:8253   */\n      dup7\n        /* \"#utility.yul\":8237:8243   */\n      dup3\n        /* \"#utility.yul\":8226:8235   */\n      dup8\n        /* \"#utility.yul\":8222:8244   */\n      add\n        /* \"#utility.yul\":8201:8254   */\n      tag_314\n      jump\t// in\n    tag_448:\n        /* \"#utility.yul\":8191:8254   */\n      swap4\n      pop\n        /* \"#utility.yul\":8147:8264   */\n      pop\n        /* \"#utility.yul\":8303:8305   */\n      0x20\n        /* \"#utility.yul\":8329:8382   */\n      tag_449\n        /* \"#utility.yul\":8374:8381   */\n      dup7\n        /* \"#utility.yul\":8365:8371   */\n      dup3\n        /* \"#utility.yul\":8354:8363   */\n      dup8\n        /* \"#utility.yul\":8350:8372   */\n      add\n        /* \"#utility.yul\":8329:8382   */\n      tag_314\n      jump\t// in\n    tag_449:\n        /* \"#utility.yul\":8319:8382   */\n      swap3\n      pop\n        /* \"#utility.yul\":8274:8392   */\n      pop\n        /* \"#utility.yul\":8431:8433   */\n      0x40\n        /* \"#utility.yul\":8457:8510   */\n      tag_450\n        /* \"#utility.yul\":8502:8509   */\n      dup7\n        /* \"#utility.yul\":8493:8499   */\n      dup3\n        /* \"#utility.yul\":8482:8491   */\n      dup8\n        /* \"#utility.yul\":8478:8500   */\n      add\n        /* \"#utility.yul\":8457:8510   */\n      tag_322\n      jump\t// in\n    tag_450:\n        /* \"#utility.yul\":8447:8510   */\n      swap2\n      pop\n        /* \"#utility.yul\":8402:8520   */\n      pop\n        /* \"#utility.yul\":7908:8527   */\n      swap3\n      pop\n      swap3\n      pop\n      swap3\n      jump\t// out\n        /* \"#utility.yul\":8533:9042   */\n    tag_56:\n        /* \"#utility.yul\":8602:8608   */\n      0x00\n        /* \"#utility.yul\":8651:8653   */\n      0x20\n        /* \"#utility.yul\":8639:8648   */\n      dup3\n        /* \"#utility.yul\":8630:8637   */\n      dup5\n        /* \"#utility.yul\":8626:8649   */\n      sub\n        /* \"#utility.yul\":8622:8654   */\n      slt\n        /* \"#utility.yul\":8619:8738   */\n      iszero\n      tag_452\n      jumpi\n        /* \"#utility.yul\":8657:8736   */\n      tag_453\n      tag_295\n      jump\t// in\n    tag_453:\n        /* \"#utility.yul\":8619:8738   */\n    tag_452:\n        /* \"#utility.yul\":8805:8806   */\n      0x00\n        /* \"#utility.yul\":8794:8803   */\n      dup3\n        /* \"#utility.yul\":8790:8807   */\n      add\n        /* \"#utility.yul\":8777:8808   */\n      calldataload\n        /* \"#utility.yul\":8835:8853   */\n      0xffffffffffffffff\n        /* \"#utility.yul\":8827:8833   */\n      dup2\n        /* \"#utility.yul\":8824:8854   */\n      gt\n        /* \"#utility.yul\":8821:8938   */\n      iszero\n      tag_454\n      jumpi\n        /* \"#utility.yul\":8857:8936   */\n      tag_455\n      tag_296\n      jump\t// in\n    tag_455:\n        /* \"#utility.yul\":8821:8938   */\n    tag_454:\n        /* \"#utility.yul\":8962:9025   */\n      tag_456\n        /* \"#utility.yul\":9017:9024   */\n      dup5\n        /* \"#utility.yul\":9008:9014   */\n      dup3\n        /* \"#utility.yul\":8997:9006   */\n      dup6\n        /* \"#utility.yul\":8993:9015   */\n      add\n        /* \"#utility.yul\":8962:9025   */\n      tag_310\n      jump\t// in\n    tag_456:\n        /* \"#utility.yul\":8952:9025   */\n      swap2\n      pop\n        /* \"#utility.yul\":8748:9035   */\n      pop\n        /* \"#utility.yul\":8533:9042   */\n      swap3\n      swap2\n      pop\n      pop\n      jump\t// out\n        /* \"#utility.yul\":9048:9377   */\n    tag_64:\n        /* \"#utility.yul\":9107:9113   */\n      0x00\n        /* \"#utility.yul\":9156:9158   */\n      0x20\n        /* \"#utility.yul\":9144:9153   */\n      dup3\n        /* \"#utility.yul\":9135:9142   */\n      dup5\n        /* \"#utility.yul\":9131:9154   */\n      sub\n        /* \"#utility.yul\":9127:9159   */\n      slt\n        /* \"#utility.yul\":9124:9243   */\n      iszero\n      tag_458\n      jumpi\n        /* \"#utility.yul\":9162:9241   */\n      tag_459\n      tag_295\n      jump\t// in\n    tag_459:\n        /* \"#utility.yul\":9124:9243   */\n    tag_458:\n        /* \"#utility.yul\":9282:9283   */\n      0x00\n        /* \"#utility.yul\":9307:9360   */\n      tag_460\n        /* \"#utility.yul\":9352:9359   */\n      dup5\n        /* \"#utility.yul\":9343:9349   */\n      dup3\n        /* \"#utility.yul\":9332:9341   */\n      dup6\n        /* \"#utility.yul\":9328:9350   */\n      add\n        /* \"#utility.yul\":9307:9360   */\n      tag_314\n      jump\t// in\n    tag_460:\n        /* \"#utility.yul\":9297:9360   */\n      swap2\n      pop\n        /* \"#utility.yul\":9253:9370   */\n      pop\n        /* \"#utility.yul\":9048:9377   */\n      swap3\n      swap2\n      pop\n      pop\n      jump\t// out\n        /* \"#utility.yul\":9383:9499   */\n    tag_324:\n        /* \"#utility.yul\":9453:9474   */\n      tag_462\n        /* \"#utility.yul\":9468:9473   */\n      dup2\n        /* \"#utility.yul\":9453:9474   */\n      tag_300\n      jump\t// in\n    tag_462:\n        /* \"#utility.yul\":9446:9451   */\n      dup2\n        /* \"#utility.yul\":9443:9475   */\n      eq\n        /* \"#utility.yul\":9433:9493   */\n      tag_463\n      jumpi\n        /* \"#utility.yul\":9489:9490   */\n      0x00\n        /* \"#utility.yul\":9486:9487   */\n      dup1\n        /* \"#utility.yul\":9479:9491   */\n      revert\n        /* \"#utility.yul\":9433:9493   */\n    tag_463:\n        /* \"#utility.yul\":9383:9499   */\n      pop\n      jump\t// out\n        /* \"#utility.yul\":9505:9638   */\n    tag_325:\n        /* \"#utility.yul\":9548:9553   */\n      0x00\n        /* \"#utility.yul\":9586:9592   */\n      dup2\n        /* \"#utility.yul\":9573:9593   */\n      calldataload\n        /* \"#utility.yul\":9564:9593   */\n      swap1\n      pop\n        /* \"#utility.yul\":9602:9632   */\n      tag_465\n        /* \"#utility.yul\":9626:9631   */\n      dup2\n        /* \"#utility.yul\":9602:9632   */\n      tag_324\n      jump\t// in\n    tag_465:\n        /* \"#utility.yul\":9505:9638   */\n      swap3\n      swap2\n      pop\n      pop\n      jump\t// out\n        /* \"#utility.yul\":9644:10112   */\n    tag_72:\n        /* \"#utility.yul\":9709:9715   */\n      0x00\n        /* \"#utility.yul\":9717:9723   */\n      dup1\n        /* \"#utility.yul\":9766:9768   */\n      0x40\n        /* \"#utility.yul\":9754:9763   */\n      dup4\n        /* \"#utility.yul\":9745:9752   */\n      dup6\n        /* \"#utility.yul\":9741:9764   */\n      sub\n        /* \"#utility.yul\":9737:9769   */\n      slt\n        /* \"#utility.yul\":9734:9853   */\n      iszero\n      tag_467\n      jumpi\n        /* \"#utility.yul\":9772:9851   */\n      tag_468\n      tag_295\n      jump\t// in\n    tag_468:\n        /* \"#utility.yul\":9734:9853   */\n    tag_467:\n        /* \"#utility.yul\":9892:9893   */\n      0x00\n        /* \"#utility.yul\":9917:9970   */\n      tag_469\n        /* \"#utility.yul\":9962:9969   */\n      dup6\n        /* \"#utility.yul\":9953:9959   */\n      dup3\n        /* \"#utility.yul\":9942:9951   */\n      dup7\n        /* \"#utility.yul\":9938:9960   */\n      add\n        /* \"#utility.yul\":9917:9970   */\n      tag_314\n      jump\t// in\n    tag_469:\n        /* \"#utility.yul\":9907:9970   */\n      swap3\n      pop\n        /* \"#utility.yul\":9863:9980   */\n      pop\n        /* \"#utility.yul\":10019:10021   */\n      0x20\n        /* \"#utility.yul\":10045:10095   */\n      tag_470\n        /* \"#utility.yul\":10087:10094   */\n      dup6\n        /* \"#utility.yul\":10078:10084   */\n      dup3\n        /* \"#utility.yul\":10067:10076   */\n      dup7\n        /* \"#utility.yul\":10063:10085   */\n      add\n        /* \"#utility.yul\":10045:10095   */\n      tag_325\n      jump\t// in\n    tag_470:\n        /* \"#utility.yul\":10035:10095   */\n      swap2\n      pop\n        /* \"#utility.yul\":9990:10105   */\n      pop\n        /* \"#utility.yul\":9644:10112   */\n      swap3\n      pop\n      swap3\n      swap1\n      pop\n      jump\t// out\n        /* \"#utility.yul\":10118:10425   */\n    tag_326:\n        /* \"#utility.yul\":10179:10183   */\n      0x00\n        /* \"#utility.yul\":10269:10287   */\n      0xffffffffffffffff\n        /* \"#utility.yul\":10261:10267   */\n      dup3\n        /* \"#utility.yul\":10258:10288   */\n      gt\n        /* \"#utility.yul\":10255:10311   */\n      iszero\n      tag_472\n      jumpi\n        /* \"#utility.yul\":10291:10309   */\n      tag_473\n      tag_260\n      jump\t// in\n    tag_473:\n        /* \"#utility.yul\":10255:10311   */\n    tag_472:\n        /* \"#utility.yul\":10329:10358   */\n      tag_474\n        /* \"#utility.yul\":10351:10357   */\n      dup3\n        /* \"#utility.yul\":10329:10358   */\n      tag_304\n      jump\t// in\n    tag_474:\n        /* \"#utility.yul\":10321:10358   */\n      swap1\n      pop\n        /* \"#utility.yul\":10413:10417   */\n      0x20\n        /* \"#utility.yul\":10407:10411   */\n      dup2\n        /* \"#utility.yul\":10403:10418   */\n      add\n        /* \"#utility.yul\":10395:10418   */\n      swap1\n      pop\n        /* \"#utility.yul\":10118:10425   */\n      swap2\n      swap1\n      pop\n      jump\t// out\n        /* \"#utility.yul\":10431:10854   */\n    tag_327:\n        /* \"#utility.yul\":10508:10513   */\n      0x00\n        /* \"#utility.yul\":10533:10598   */\n      tag_476\n        /* \"#utility.yul\":10549:10597   */\n      tag_477\n        /* \"#utility.yul\":10590:10596   */\n      dup5\n        /* \"#utility.yul\":10549:10597   */\n      tag_326\n      jump\t// in\n    tag_477:\n        /* \"#utility.yul\":10533:10598   */\n      tag_306\n      jump\t// in\n    tag_476:\n        /* \"#utility.yul\":10524:10598   */\n      swap1\n      pop\n        /* \"#utility.yul\":10621:10627   */\n      dup3\n        /* \"#utility.yul\":10614:10619   */\n      dup2\n        /* \"#utility.yul\":10607:10628   */\n      mstore\n        /* \"#utility.yul\":10659:10663   */\n      0x20\n        /* \"#utility.yul\":10652:10657   */\n      dup2\n        /* \"#utility.yul\":10648:10664   */\n      add\n        /* \"#utility.yul\":10697:10700   */\n      dup5\n        /* \"#utility.yul\":10688:10694   */\n      dup5\n        /* \"#utility.yul\":10683:10686   */\n      dup5\n        /* \"#utility.yul\":10679:10695   */\n      add\n        /* \"#utility.yul\":10676:10701   */\n      gt\n        /* \"#utility.yul\":10673:10785   */\n      iszero\n      tag_478\n      jumpi\n        /* \"#utility.yul\":10704:10783   */\n      tag_479\n      tag_303\n      jump\t// in\n    tag_479:\n        /* \"#utility.yul\":10673:10785   */\n    tag_478:\n        /* \"#utility.yul\":10794:10848   */\n      tag_480\n        /* \"#utility.yul\":10841:10847   */\n      dup5\n        /* \"#utility.yul\":10836:10839   */\n      dup3\n        /* \"#utility.yul\":10831:10834   */\n      dup6\n        /* \"#utility.yul\":10794:10848   */\n      tag_308\n      jump\t// in\n    tag_480:\n        /* \"#utility.yul\":10514:10854   */\n      pop\n        /* \"#utility.yul\":10431:10854   */\n      swap4\n      swap3\n      pop\n      pop\n      pop\n      jump\t// out\n        /* \"#utility.yul\":10873:11211   */\n    tag_328:\n        /* \"#utility.yul\":10928:10933   */\n      0x00\n        /* \"#utility.yul\":10977:10980   */\n      dup3\n        /* \"#utility.yul\":10970:10974   */\n      0x1f\n        /* \"#utility.yul\":10962:10968   */\n      dup4\n        /* \"#utility.yul\":10958:10975   */\n      add\n        /* \"#utility.yul\":10954:10981   */\n      slt\n        /* \"#utility.yul\":10944:11066   */\n      tag_482\n      jumpi\n        /* \"#utility.yul\":10985:11064   */\n      tag_483\n      tag_302\n      jump\t// in\n    tag_483:\n        /* \"#utility.yul\":10944:11066   */\n    tag_482:\n        /* \"#utility.yul\":11102:11108   */\n      dup2\n        /* \"#utility.yul\":11089:11109   */\n      calldataload\n        /* \"#utility.yul\":11127:11205   */\n      tag_484\n        /* \"#utility.yul\":11201:11204   */\n      dup5\n        /* \"#utility.yul\":11193:11199   */\n      dup3\n        /* \"#utility.yul\":11186:11190   */\n      0x20\n        /* \"#utility.yul\":11178:11184   */\n      dup7\n        /* \"#utility.yul\":11174:11191   */\n      add\n        /* \"#utility.yul\":11127:11205   */\n      tag_327\n      jump\t// in\n    tag_484:\n        /* \"#utility.yul\":11118:11205   */\n      swap2\n      pop\n        /* \"#utility.yul\":10934:11211   */\n      pop\n        /* \"#utility.yul\":10873:11211   */\n      swap3\n      swap2\n      pop\n      pop\n      jump\t// out\n        /* \"#utility.yul\":11217:12160   */\n    tag_76:\n        /* \"#utility.yul\":11312:11318   */\n      0x00\n        /* \"#utility.yul\":11320:11326   */\n      dup1\n        /* \"#utility.yul\":11328:11334   */\n      0x00\n        /* \"#utility.yul\":11336:11342   */\n      dup1\n        /* \"#utility.yul\":11385:11388   */\n      0x80\n        /* \"#utility.yul\":11373:11382   */\n      dup6\n        /* \"#utility.yul\":11364:11371   */\n      dup8\n        /* \"#utility.yul\":11360:11383   */\n      sub\n        /* \"#utility.yul\":11356:11389   */\n      slt\n        /* \"#utility.yul\":11353:11473   */\n      iszero\n      tag_486\n      jumpi\n        /* \"#utility.yul\":11392:11471   */\n      tag_487\n      tag_295\n      jump\t// in\n    tag_487:\n        /* \"#utility.yul\":11353:11473   */\n    tag_486:\n        /* \"#utility.yul\":11512:11513   */\n      0x00\n        /* \"#utility.yul\":11537:11590   */\n      tag_488\n        /* \"#utility.yul\":11582:11589   */\n      dup8\n        /* \"#utility.yul\":11573:11579   */\n      dup3\n        /* \"#utility.yul\":11562:11571   */\n      dup9\n        /* \"#utility.yul\":11558:11580   */\n      add\n        /* \"#utility.yul\":11537:11590   */\n      tag_314\n      jump\t// in\n    tag_488:\n        /* \"#utility.yul\":11527:11590   */\n      swap5\n      pop\n        /* \"#utility.yul\":11483:11600   */\n      pop\n        /* \"#utility.yul\":11639:11641   */\n      0x20\n        /* \"#utility.yul\":11665:11718   */\n      tag_489\n        /* \"#utility.yul\":11710:11717   */\n      dup8\n        /* \"#utility.yul\":11701:11707   */\n      dup3\n        /* \"#utility.yul\":11690:11699   */\n      dup9\n        /* \"#utility.yul\":11686:11708   */\n      add\n        /* \"#utility.yul\":11665:11718   */\n      tag_314\n      jump\t// in\n    tag_489:\n        /* \"#utility.yul\":11655:11718   */\n      swap4\n      pop\n        /* \"#utility.yul\":11610:11728   */\n      pop\n        /* \"#utility.yul\":11767:11769   */\n      0x40\n        /* \"#utility.yul\":11793:11846   */\n      tag_490\n        /* \"#utility.yul\":11838:11845   */\n      dup8\n        /* \"#utility.yul\":11829:11835   */\n      dup3\n        /* \"#utility.yul\":11818:11827   */\n      dup9\n        /* \"#utility.yul\":11814:11836   */\n      add\n        /* \"#utility.yul\":11793:11846   */\n      tag_322\n      jump\t// in\n    tag_490:\n        /* \"#utility.yul\":11783:11846   */\n      swap3\n      pop\n        /* \"#utility.yul\":11738:11856   */\n      pop\n        /* \"#utility.yul\":11923:11925   */\n      0x60\n        /* \"#utility.yul\":11912:11921   */\n      dup6\n        /* \"#utility.yul\":11908:11926   */\n      add\n        /* \"#utility.yul\":11895:11927   */\n      calldataload\n        /* \"#utility.yul\":11954:11972   */\n      0xffffffffffffffff\n        /* \"#utility.yul\":11946:11952   */\n      dup2\n        /* \"#utility.yul\":11943:11973   */\n      gt\n        /* \"#utility.yul\":11940:12057   */\n      iszero\n      tag_491\n      jumpi\n        /* \"#utility.yul\":11976:12055   */\n      tag_492\n      tag_296\n      jump\t// in\n    tag_492:\n        /* \"#utility.yul\":11940:12057   */\n    tag_491:\n        /* \"#utility.yul\":12081:12143   */\n      tag_493\n        /* \"#utility.yul\":12135:12142   */\n      dup8\n        /* \"#utility.yul\":12126:12132   */\n      dup3\n        /* \"#utility.yul\":12115:12124   */\n      dup9\n        /* \"#utility.yul\":12111:12133   */\n      add\n        /* \"#utility.yul\":12081:12143   */\n      tag_328\n      jump\t// in\n    tag_493:\n        /* \"#utility.yul\":12071:12143   */\n      swap2\n      pop\n        /* \"#utility.yul\":11866:12153   */\n      pop\n        /* \"#utility.yul\":11217:12160   */\n      swap3\n      swap6\n      swap2\n      swap5\n      pop\n      swap3\n      pop\n      jump\t// out\n        /* \"#utility.yul\":12166:12640   */\n    tag_84:\n        /* \"#utility.yul\":12234:12240   */\n      0x00\n        /* \"#utility.yul\":12242:12248   */\n      dup1\n        /* \"#utility.yul\":12291:12293   */\n      0x40\n        /* \"#utility.yul\":12279:12288   */\n      dup4\n        /* \"#utility.yul\":12270:12277   */\n      dup6\n        /* \"#utility.yul\":12266:12289   */\n      sub\n        /* \"#utility.yul\":12262:12294   */\n      slt\n        /* \"#utility.yul\":12259:12378   */\n      iszero\n      tag_495\n      jumpi\n        /* \"#utility.yul\":12297:12376   */\n      tag_496\n      tag_295\n      jump\t// in\n    tag_496:\n        /* \"#utility.yul\":12259:12378   */\n    tag_495:\n        /* \"#utility.yul\":12417:12418   */\n      0x00\n        /* \"#utility.yul\":12442:12495   */\n      tag_497\n        /* \"#utility.yul\":12487:12494   */\n      dup6\n        /* \"#utility.yul\":12478:12484   */\n      dup3\n        /* \"#utility.yul\":12467:12476   */\n      dup7\n        /* \"#utility.yul\":12463:12485   */\n      add\n        /* \"#utility.yul\":12442:12495   */\n      tag_314\n      jump\t// in\n    tag_497:\n        /* \"#utility.yul\":12432:12495   */\n      swap3\n      pop\n        /* \"#utility.yul\":12388:12505   */\n      pop\n        /* \"#utility.yul\":12544:12546   */\n      0x20\n        /* \"#utility.yul\":12570:12623   */\n      tag_498\n        /* \"#utility.yul\":12615:12622   */\n      dup6\n        /* \"#utility.yul\":12606:12612   */\n      dup3\n        /* \"#utility.yul\":12595:12604   */\n      dup7\n        /* \"#utility.yul\":12591:12613   */\n      add\n        /* \"#utility.yul\":12570:12623   */\n      tag_314\n      jump\t// in\n    tag_498:\n        /* \"#utility.yul\":12560:12623   */\n      swap2\n      pop\n        /* \"#utility.yul\":12515:12633   */\n      pop\n        /* \"#utility.yul\":12166:12640   */\n      swap3\n      pop\n      swap3\n      swap1\n      pop\n      jump\t// out\n        /* \"#utility.yul\":12646:12826   */\n    tag_329:\n        /* \"#utility.yul\":12694:12771   */\n      0x4e487b7100000000000000000000000000000000000000000000000000000000\n        /* \"#utility.yul\":12691:12692   */\n      0x00\n        /* \"#utility.yul\":12684:12772   */\n      mstore\n        /* \"#utility.yul\":12791:12795   */\n      0x11\n        /* \"#utility.yul\":12788:12789   */\n      0x04\n        /* \"#utility.yul\":12781:12796   */\n      mstore\n        /* \"#utility.yul\":12815:12819   */\n      0x24\n        /* \"#utility.yul\":12812:12813   */\n      0x00\n        /* \"#utility.yul\":12805:12820   */\n      revert\n        /* \"#utility.yul\":12832:13065   */\n    tag_93:\n        /* \"#utility.yul\":12871:12874   */\n      0x00\n        /* \"#utility.yul\":12894:12918   */\n      tag_501\n        /* \"#utility.yul\":12912:12917   */\n      dup3\n        /* \"#utility.yul\":12894:12918   */\n      tag_315\n      jump\t// in\n    tag_501:\n        /* \"#utility.yul\":12885:12918   */\n      swap2\n      pop\n        /* \"#utility.yul\":12940:13006   */\n      0xffffffffffffffffffffffffffffffffffffffffffffffffffffffffffffffff\n        /* \"#utility.yul\":12933:12938   */\n      dup3\n        /* \"#utility.yul\":12930:13007   */\n      sub\n        /* \"#utility.yul\":12927:13030   */\n      tag_502\n      jumpi\n        /* \"#utility.yul\":13010:13028   */\n      tag_503\n      tag_329\n      jump\t// in\n    tag_503:\n        /* \"#utility.yul\":12927:13030   */\n    tag_502:\n        /* \"#utility.yul\":13057:13058   */\n      0x01\n        /* \"#utility.yul\":13050:13055   */\n      dup3\n        /* \"#utility.yul\":13046:13059   */\n      add\n        /* \"#utility.yul\":13039:13059   */\n      swap1\n      pop\n        /* \"#utility.yul\":12832:13065   */\n      swap2\n      swap1\n      pop\n      jump\t// out\n        /* \"#utility.yul\":13071:13251   */\n    tag_330:\n        /* \"#utility.yul\":13119:13196   */\n      0x4e487b7100000000000000000000000000000000000000000000000000000000\n        /* \"#utility.yul\":13116:13117   */\n      0x00\n        /* \"#utility.yul\":13109:13197   */\n      mstore\n        /* \"#utility.yul\":13216:13220   */\n      0x22\n        /* \"#utility.yul\":13213:13214   */\n      0x04\n        /* \"#utility.yul\":13206:13221   */\n      mstore\n        /* \"#utility.yul\":13240:13244   */\n      0x24\n        /* \"#utility.yul\":13237:13238   */\n      0x00\n        /* \"#utility.yul\":13230:13245   */\n      revert\n        /* \"#utility.yul\":13257:13577   */\n    tag_100:\n        /* \"#utility.yul\":13301:13307   */\n      0x00\n        /* \"#utility.yul\":13338:13339   */\n      0x02\n        /* \"#utility.yul\":13332:13336   */\n      dup3\n        /* \"#utility.yul\":13328:13340   */\n      div\n        /* \"#utility.yul\":13318:13340   */\n      swap1\n      pop\n        /* \"#utility.yul\":13385:13386   */\n      0x01\n        /* \"#utility.yul\":13379:13383   */\n      dup3\n        /* \"#utility.yul\":13375:13387   */\n      and\n        /* \"#utility.yul\":13406:13424   */\n      dup1\n        /* \"#utility.yul\":13396:13477   */\n      tag_506\n      jumpi\n        /* \"#utility.yul\":13462:13466   */\n      0x7f\n        /* \"#utility.yul\":13454:13460   */\n      dup3\n        /* \"#utility.yul\":13450:13467   */\n      and\n        /* \"#utility.yul\":13440:13467   */\n      swap2\n      pop\n        /* \"#utility.yul\":13396:13477   */\n    tag_506:\n        /* \"#utility.yul\":13524:13526   */\n      0x20\n        /* \"#utility.yul\":13516:13522   */\n      dup3\n        /* \"#utility.yul\":13513:13527   */\n      lt\n        /* \"#utility.yul\":13493:13511   */\n      dup2\n        /* \"#utility.yul\":13490:13528   */\n      sub\n        /* \"#utility.yul\":13487:13571   */\n      tag_507\n      jumpi\n        /* \"#utility.yul\":13543:13561   */\n      tag_508\n      tag_330\n      jump\t// in\n    tag_508:\n        /* \"#utility.yul\":13487:13571   */\n    tag_507:\n        /* \"#utility.yul\":13308:13577   */\n      pop\n        /* \"#utility.yul\":13257:13577   */\n      swap2\n      swap1\n      pop\n      jump\t// out\n        /* \"#utility.yul\":13583:14025   */\n    tag_123:\n        /* \"#utility.yul\":13732:13736   */\n      0x00\n        /* \"#utility.yul\":13770:13772   */\n      0x60\n        /* \"#utility.yul\":13759:13768   */\n      dup3\n        /* \"#utility.yul\":13755:13773   */\n      add\n        /* \"#utility.yul\":13747:13773   */\n      swap1\n      pop\n        /* \"#utility.yul\":13783:13854   */\n      tag_510\n        /* \"#utility.yul\":13851:13852   */\n      0x00\n        /* \"#utility.yul\":13840:13849   */\n      dup4\n        /* \"#utility.yul\":13836:13853   */\n      add\n        /* \"#utility.yul\":13827:13833   */\n      dup7\n        /* \"#utility.yul\":13783:13854   */\n      tag_323\n      jump\t// in\n    tag_510:\n        /* \"#utility.yul\":13864:13936   */\n      tag_511\n        /* \"#utility.yul\":13932:13934   */\n      0x20\n        /* \"#utility.yul\":13921:13930   */\n      dup4\n        /* \"#utility.yul\":13917:13935   */\n      add\n        /* \"#utility.yul\":13908:13914   */\n      dup6\n        /* \"#utility.yul\":13864:13936   */\n      tag_316\n      jump\t// in\n    tag_511:\n        /* \"#utility.yul\":13946:14018   */\n      tag_512\n        /* \"#utility.yul\":14014:14016   */\n      0x40\n        /* \"#utility.yul\":14003:14012   */\n      dup4\n        /* \"#utility.yul\":13999:14017   */\n      add\n        /* \"#utility.yul\":13990:13996   */\n      dup5\n        /* \"#utility.yul\":13946:14018   */\n      tag_323\n      jump\t// in\n    tag_512:\n        /* \"#utility.yul\":13583:14025   */\n      swap5\n      swap4\n      pop\n      pop\n      pop\n      pop\n      jump\t// out\n        /* \"#utility.yul\":14031:14172   */\n    tag_331:\n        /* \"#utility.yul\":14080:14084   */\n      0x00\n        /* \"#utility.yul\":14103:14106   */\n      dup2\n        /* \"#utility.yul\":14095:14106   */\n      swap1\n      pop\n        /* \"#utility.yul\":14126:14129   */\n      dup2\n        /* \"#utility.yul\":14123:14124   */\n      0x00\n        /* \"#utility.yul\":14116:14130   */\n      mstore\n        /* \"#utility.yul\":14160:14164   */\n      0x20\n        /* \"#utility.yul\":14157:14158   */\n      0x00\n        /* \"#utility.yul\":14147:14165   */\n      keccak256\n        /* \"#utility.yul\":14139:14165   */\n      swap1\n      pop\n        /* \"#utility.yul\":14031:14172   */\n      swap2\n      swap1\n      pop\n      jump\t// out\n        /* \"#utility.yul\":14178:14271   */\n    tag_332:\n        /* \"#utility.yul\":14215:14221   */\n      0x00\n        /* \"#utility.yul\":14262:14264   */\n      0x20\n        /* \"#utility.yul\":14257:14259   */\n      0x1f\n        /* \"#utility.yul\":14250:14255   */\n      dup4\n        /* \"#utility.yul\":14246:14260   */\n      add\n        /* \"#utility.yul\":14242:14265   */\n      div\n        /* \"#utility.yul\":14232:14265   */\n      swap1\n      pop\n        /* \"#utility.yul\":14178:14271   */\n      swap2\n      swap1\n      pop\n      jump\t// out\n        /* \"#utility.yul\":14277:14384   */\n    tag_333:\n        /* \"#utility.yul\":14321:14329   */\n      0x00\n        /* \"#utility.yul\":14371:14376   */\n      dup3\n        /* \"#utility.yul\":14365:14369   */\n      dup3\n        /* \"#utility.yul\":14361:14377   */\n      shl\n        /* \"#utility.yul\":14340:14377   */\n      swap1\n      pop\n        /* \"#utility.yul\":14277:14384   */\n      swap3\n      swap2\n      pop\n      pop\n      jump\t// out\n        /* \"#utility.yul\":14390:14783   */\n    tag_334:\n        /* \"#utility.yul\":14459:14465   */\n      0x00\n        /* \"#utility.yul\":14509:14510   */\n      0x08\n        /* \"#utility.yul\":14497:14507   */\n      dup4\n        /* \"#utility.yul\":14493:14511   */\n      mul\n        /* \"#utility.yul\":14532:14629   */\n      tag_517\n        /* \"#utility.yul\":14562:14628   */\n      0xffffffffffffffffffffffffffffffffffffffffffffffffffffffffffffffff\n        /* \"#utility.yul\":14551:14560   */\n      dup3\n        /* \"#utility.yul\":14532:14629   */\n      tag_333\n      jump\t// in\n    tag_517:\n        /* \"#utility.yul\":14650:14689   */\n      tag_518\n        /* \"#utility.yul\":14680:14688   */\n      dup7\n        /* \"#utility.yul\":14669:14678   */\n      dup4\n        /* \"#utility.yul\":14650:14689   */\n      tag_333\n      jump\t// in\n    tag_518:\n        /* \"#utility.yul\":14638:14689   */\n      swap6\n      pop\n        /* \"#utility.yul\":14722:14726   */\n      dup1\n        /* \"#utility.yul\":14718:14727   */\n      not\n        /* \"#utility.yul\":14711:14716   */\n      dup5\n        /* \"#utility.yul\":14707:14728   */\n      and\n        /* \"#utility.yul\":14698:14728   */\n      swap4\n      pop\n        /* \"#utility.yul\":14771:14775   */\n      dup1\n        /* \"#utility.yul\":14761:14769   */\n      dup7\n        /* \"#utility.yul\":14757:14776   */\n      and\n        /* \"#utility.yul\":14750:14755   */\n      dup5\n        /* \"#utility.yul\":14747:14777   */\n      or\n        /* \"#utility.yul\":14737:14777   */\n      swap3\n      pop\n        /* \"#utility.yul\":14466:14783   */\n      pop\n      pop\n        /* \"#utility.yul\":14390:14783   */\n      swap4\n      swap3\n      pop\n      pop\n      pop\n      jump\t// out\n        /* \"#utility.yul\":14789:14849   */\n    tag_335:\n        /* \"#utility.yul\":14817:14820   */\n      0x00\n        /* \"#utility.yul\":14838:14843   */\n      dup2\n        /* \"#utility.yul\":14831:14843   */\n      swap1\n      pop\n        /* \"#utility.yul\":14789:14849   */\n      swap2\n      swap1\n      pop\n      jump\t// out\n        /* \"#utility.yul\":14855:14997   */\n    tag_336:\n        /* \"#utility.yul\":14905:14914   */\n      0x00\n        /* \"#utility.yul\":14938:14991   */\n      tag_521\n        /* \"#utility.yul\":14956:14990   */\n      tag_522\n        /* \"#utility.yul\":14965:14989   */\n      tag_523\n        /* \"#utility.yul\":14983:14988   */\n      dup5\n        /* \"#utility.yul\":14965:14989   */\n      tag_315\n      jump\t// in\n    tag_523:\n        /* \"#utility.yul\":14956:14990   */\n      tag_335\n      jump\t// in\n    tag_522:\n        /* \"#utility.yul\":14938:14991   */\n      tag_315\n      jump\t// in\n    tag_521:\n        /* \"#utility.yul\":14925:14991   */\n      swap1\n      pop\n        /* \"#utility.yul\":14855:14997   */\n      swap2\n      swap1\n      pop\n      jump\t// out\n        /* \"#utility.yul\":15003:15078   */\n    tag_337:\n        /* \"#utility.yul\":15046:15049   */\n      0x00\n        /* \"#utility.yul\":15067:15072   */\n      dup2\n        /* \"#utility.yul\":15060:15072   */\n      swap1\n      pop\n        /* \"#utility.yul\":15003:15078   */\n      swap2\n      swap1\n      pop\n      jump\t// out\n        /* \"#utility.yul\":15084:15353   */\n    tag_338:\n        /* \"#utility.yul\":15194:15233   */\n      tag_526\n        /* \"#utility.yul\":15225:15232   */\n      dup4\n        /* \"#utility.yul\":15194:15233   */\n      tag_336\n      jump\t// in\n    tag_526:\n        /* \"#utility.yul\":15255:15346   */\n      tag_527\n        /* \"#utility.yul\":15304:15345   */\n      tag_528\n        /* \"#utility.yul\":15328:15344   */\n      dup3\n        /* \"#utility.yul\":15304:15345   */\n      tag_337\n      jump\t// in\n    tag_528:\n        /* \"#utility.yul\":15296:15302   */\n      dup5\n        /* \"#utility.yul\":15289:15293   */\n      dup5\n        /* \"#utility.yul\":15283:15294   */\n      sload\n        /* \"#utility.yul\":15255:15346   */\n      tag_334\n      jump\t// in\n    tag_527:\n        /* \"#utility.yul\":15249:15253   */\n      dup3\n        /* \"#utility.yul\":15242:15347   */\n      sstore\n        /* \"#utility.yul\":15160:15353   */\n      pop\n        /* \"#utility.yul\":15084:15353   */\n      pop\n      pop\n      pop\n      jump\t// out\n        /* \"#utility.yul\":15359:15432   */\n    tag_339:\n        /* \"#utility.yul\":15404:15407   */\n      0x00\n        /* \"#utility.yul\":15359:15432   */\n      swap1\n      jump\t// out\n        /* \"#utility.yul\":15438:15627   */\n    tag_340:\n        /* \"#utility.yul\":15515:15547   */\n      tag_531\n      tag_339\n      jump\t// in\n    tag_531:\n        /* \"#utility.yul\":15556:15621   */\n      tag_532\n        /* \"#utility.yul\":15614:15620   */\n      dup2\n        /* \"#utility.yul\":15606:15612   */\n      dup5\n        /* \"#utility.yul\":15600:15604   */\n      dup5\n        /* \"#utility.yul\":15556:15621   */\n      tag_338\n      jump\t// in\n    tag_532:\n        /* \"#utility.yul\":15491:15627   */\n      pop\n        /* \"#utility.yul\":15438:15627   */\n      pop\n      pop\n      jump\t// out\n        /* \"#utility.yul\":15633:15819   */\n    tag_341:\n        /* \"#utility.yul\":15693:15813   */\n    tag_534:\n        /* \"#utility.yul\":15710:15713   */\n      dup2\n        /* \"#utility.yul\":15703:15708   */\n      dup2\n        /* \"#utility.yul\":15700:15714   */\n      lt\n        /* \"#utility.yul\":15693:15813   */\n      iszero\n      tag_536\n      jumpi\n        /* \"#utility.yul\":15764:15803   */\n      tag_537\n        /* \"#utility.yul\":15801:15802   */\n      0x00\n        /* \"#utility.yul\":15794:15799   */\n      dup3\n        /* \"#utility.yul\":15764:15803   */\n      tag_340\n      jump\t// in\n    tag_537:\n        /* \"#utility.yul\":15737:15738   */\n      0x01\n        /* \"#utility.yul\":15730:15735   */\n      dup2\n        /* \"#utility.yul\":15726:15739   */\n      add\n        /* \"#utility.yul\":15717:15739   */\n      swap1\n      pop\n        /* \"#utility.yul\":15693:15813   */\n      jump(tag_534)\n    tag_536:\n        /* \"#utility.yul\":15633:15819   */\n      pop\n      pop\n      jump\t// out\n        /* \"#utility.yul\":15825:16368   */\n    tag_342:\n        /* \"#utility.yul\":15926:15928   */\n      0x1f\n        /* \"#utility.yul\":15921:15924   */\n      dup3\n        /* \"#utility.yul\":15918:15929   */\n      gt\n        /* \"#utility.yul\":15915:16361   */\n      iszero\n      tag_539\n      jumpi\n        /* \"#utility.yul\":15960:15998   */\n      tag_540\n        /* \"#utility.yul\":15992:15997   */\n      dup2\n        /* \"#utility.yul\":15960:15998   */\n      tag_331\n      jump\t// in\n    tag_540:\n        /* \"#utility.yul\":16044:16073   */\n      tag_541\n        /* \"#utility.yul\":16062:16072   */\n      dup5\n        /* \"#utility.yul\":16044:16073   */\n      tag_332\n      jump\t// in\n    tag_541:\n        /* \"#utility.yul\":16034:16042   */\n      dup2\n        /* \"#utility.yul\":16030:16074   */\n      add\n        /* \"#utility.yul\":16227:16229   */\n      0x20\n        /* \"#utility.yul\":16215:16225   */\n      dup6\n        /* \"#utility.yul\":16212:16230   */\n      lt\n        /* \"#utility.yul\":16209:16258   */\n      iszero\n      tag_542\n      jumpi\n        /* \"#utility.yul\":16248:16256   */\n      dup2\n        /* \"#utility.yul\":16233:16256   */\n      swap1\n      pop\n        /* \"#utility.yul\":16209:16258   */\n    tag_542:\n        /* \"#utility.yul\":16271:16351   */\n      tag_543\n        /* \"#utility.yul\":16327:16349   */\n      tag_544\n        /* \"#utility.yul\":16345:16348   */\n      dup6\n        /* \"#utility.yul\":16327:16349   */\n      tag_332\n      jump\t// in\n    tag_544:\n        /* \"#utility.yul\":16317:16325   */\n      dup4\n        /* \"#utility.yul\":16313:16350   */\n      add\n        /* \"#utility.yul\":16300:16311   */\n      dup3\n        /* \"#utility.yul\":16271:16351   */\n      tag_341\n      jump\t// in\n    tag_543:\n        /* \"#utility.yul\":15930:16361   */\n      pop\n      pop\n        /* \"#utility.yul\":15915:16361   */\n    tag_539:\n        /* \"#utility.yul\":15825:16368   */\n      pop\n      pop\n      pop\n      jump\t// out\n        /* \"#utility.yul\":16374:16491   */\n    tag_343:\n        /* \"#utility.yul\":16428:16436   */\n      0x00\n        /* \"#utility.yul\":16478:16483   */\n      dup3\n        /* \"#utility.yul\":16472:16476   */\n      dup3\n        /* \"#utility.yul\":16468:16484   */\n      shr\n        /* \"#utility.yul\":16447:16484   */\n      swap1\n      pop\n        /* \"#utility.yul\":16374:16491   */\n      swap3\n      swap2\n      pop\n      pop\n      jump\t// out\n        /* \"#utility.yul\":16497:16666   */\n    tag_344:\n        /* \"#utility.yul\":16541:16547   */\n      0x00\n        /* \"#utility.yul\":16574:16625   */\n      tag_547\n        /* \"#utility.yul\":16622:16623   */\n      0x00\n        /* \"#utility.yul\":16618:16624   */\n      not\n        /* \"#utility.yul\":16610:16615   */\n      dup5\n        /* \"#utility.yul\":16607:16608   */\n      0x08\n        /* \"#utility.yul\":16603:16616   */\n      mul\n        /* \"#utility.yul\":16574:16625   */\n      tag_343\n      jump\t// in\n    tag_547:\n        /* \"#utility.yul\":16570:16626   */\n      not\n        /* \"#utility.yul\":16655:16659   */\n      dup1\n        /* \"#utility.yul\":16649:16653   */\n      dup4\n        /* \"#utility.yul\":16645:16660   */\n      and\n        /* \"#utility.yul\":16635:16660   */\n      swap2\n      pop\n        /* \"#utility.yul\":16548:16666   */\n      pop\n        /* \"#utility.yul\":16497:16666   */\n      swap3\n      swap2\n      pop\n      pop\n      jump\t// out\n        /* \"#utility.yul\":16671:16966   */\n    tag_345:\n        /* \"#utility.yul\":16747:16751   */\n      0x00\n        /* \"#utility.yul\":16893:16922   */\n      tag_549\n        /* \"#utility.yul\":16918:16921   */\n      dup4\n        /* \"#utility.yul\":16912:16916   */\n      dup4\n        /* \"#utility.yul\":16893:16922   */\n      tag_344\n      jump\t// in\n    tag_549:\n        /* \"#utility.yul\":16885:16922   */\n      swap2\n      pop\n        /* \"#utility.yul\":16955:16958   */\n      dup3\n        /* \"#utility.yul\":16952:16953   */\n      0x02\n        /* \"#utility.yul\":16948:16959   */\n      mul\n        /* \"#utility.yul\":16942:16946   */\n      dup3\n        /* \"#utility.yul\":16939:16960   */\n      or\n        /* \"#utility.yul\":16931:16960   */\n      swap1\n      pop\n        /* \"#utility.yul\":16671:16966   */\n      swap3\n      swap2\n      pop\n      pop\n      jump\t// out\n        /* \"#utility.yul\":16971:18366   */\n    tag_128:\n        /* \"#utility.yul\":17088:17125   */\n      tag_551\n        /* \"#utility.yul\":17121:17124   */\n      dup3\n        /* \"#utility.yul\":17088:17125   */\n      tag_317\n      jump\t// in\n    tag_551:\n        /* \"#utility.yul\":17190:17208   */\n      0xffffffffffffffff\n        /* \"#utility.yul\":17182:17188   */\n      dup2\n        /* \"#utility.yul\":17179:17209   */\n      gt\n        /* \"#utility.yul\":17176:17232   */\n      iszero\n      tag_552\n      jumpi\n        /* \"#utility.yul\":17212:17230   */\n      tag_553\n      tag_260\n      jump\t// in\n    tag_553:\n        /* \"#utility.yul\":17176:17232   */\n    tag_552:\n        /* \"#utility.yul\":17256:17294   */\n      tag_554\n        /* \"#utility.yul\":17288:17292   */\n      dup3\n        /* \"#utility.yul\":17282:17293   */\n      sload\n        /* \"#utility.yul\":17256:17294   */\n      tag_100\n      jump\t// in\n    tag_554:\n        /* \"#utility.yul\":17341:17408   */\n      tag_555\n        /* \"#utility.yul\":17401:17407   */\n      dup3\n        /* \"#utility.yul\":17393:17399   */\n      dup3\n        /* \"#utility.yul\":17387:17391   */\n      dup6\n        /* \"#utility.yul\":17341:17408   */\n      tag_342\n      jump\t// in\n    tag_555:\n        /* \"#utility.yul\":17435:17436   */\n      0x00\n        /* \"#utility.yul\":17459:17463   */\n      0x20\n        /* \"#utility.yul\":17446:17463   */\n      swap1\n      pop\n        /* \"#utility.yul\":17491:17493   */\n      0x1f\n        /* \"#utility.yul\":17483:17489   */\n      dup4\n        /* \"#utility.yul\":17480:17494   */\n      gt\n        /* \"#utility.yul\":17508:17509   */\n      0x01\n        /* \"#utility.yul\":17503:18121   */\n      dup2\n      eq\n      tag_557\n      jumpi\n        /* \"#utility.yul\":18165:18166   */\n      0x00\n        /* \"#utility.yul\":18182:18188   */\n      dup5\n        /* \"#utility.yul\":18179:18256   */\n      iszero\n      tag_558\n      jumpi\n        /* \"#utility.yul\":18231:18240   */\n      dup3\n        /* \"#utility.yul\":18226:18229   */\n      dup8\n        /* \"#utility.yul\":18222:18241   */\n      add\n        /* \"#utility.yul\":18216:18242   */\n      mload\n        /* \"#utility.yul\":18207:18242   */\n      swap1\n      pop\n        /* \"#utility.yul\":18179:18256   */\n    tag_558:\n        /* \"#utility.yul\":18282:18349   */\n      tag_559\n        /* \"#utility.yul\":18342:18348   */\n      dup6\n        /* \"#utility.yul\":18335:18340   */\n      dup3\n        /* \"#utility.yul\":18282:18349   */\n      tag_345\n      jump\t// in\n    tag_559:\n        /* \"#utility.yul\":18276:18280   */\n      dup7\n        /* \"#utility.yul\":18269:18350   */\n      sstore\n        /* \"#utility.yul\":18138:18360   */\n      pop\n        /* \"#utility.yul\":17473:18360   */\n      jump(tag_556)\n        /* \"#utility.yul\":17503:18121   */\n    tag_557:\n        /* \"#utility.yul\":17555:17559   */\n      0x1f\n        /* \"#utility.yul\":17551:17560   */\n      not\n        /* \"#utility.yul\":17543:17549   */\n      dup5\n        /* \"#utility.yul\":17539:17561   */\n      and\n        /* \"#utility.yul\":17589:17626   */\n      tag_560\n        /* \"#utility.yul\":17621:17625   */\n      dup7\n        /* \"#utility.yul\":17589:17626   */\n      tag_331\n      jump\t// in\n    tag_560:\n        /* \"#utility.yul\":17648:17649   */\n      0x00\n        /* \"#utility.yul\":17662:17870   */\n    tag_561:\n        /* \"#utility.yul\":17676:17683   */\n      dup3\n        /* \"#utility.yul\":17673:17674   */\n      dup2\n        /* \"#utility.yul\":17670:17684   */\n      lt\n        /* \"#utility.yul\":17662:17870   */\n      iszero\n      tag_563\n      jumpi\n        /* \"#utility.yul\":17755:17764   */\n      dup5\n        /* \"#utility.yul\":17750:17753   */\n      dup10\n        /* \"#utility.yul\":17746:17765   */\n      add\n        /* \"#utility.yul\":17740:17766   */\n      mload\n        /* \"#utility.yul\":17732:17738   */\n      dup3\n        /* \"#utility.yul\":17725:17767   */\n      sstore\n        /* \"#utility.yul\":17806:17807   */\n      0x01\n        /* \"#utility.yul\":17798:17804   */\n      dup3\n        /* \"#utility.yul\":17794:17808   */\n      add\n        /* \"#utility.yul\":17784:17808   */\n      swap2\n      pop\n        /* \"#utility.yul\":17853:17855   */\n      0x20\n        /* \"#utility.yul\":17842:17851   */\n      dup6\n        /* \"#utility.yul\":17838:17856   */\n      add\n        /* \"#utility.yul\":17825:17856   */\n      swap5\n      pop\n        /* \"#utility.yul\":17699:17703   */\n      0x20\n        /* \"#utility.yul\":17696:17697   */\n      dup2\n        /* \"#utility.yul\":17692:17704   */\n      add\n        /* \"#utility.yul\":17687:17704   */\n      swap1\n      pop\n        /* \"#utility.yul\":17662:17870   */\n      jump(tag_561)\n    tag_563:\n        /* \"#utility.yul\":17898:17904   */\n      dup7\n        /* \"#utility.yul\":17889:17896   */\n      dup4\n        /* \"#utility.yul\":17886:17905   */\n      lt\n        /* \"#utility.yul\":17883:18062   */\n      iszero\n      tag_564\n      jumpi\n        /* \"#utility.yul\":17956:17965   */\n      dup5\n        /* \"#utility.yul\":17951:17954   */\n      dup10\n        /* \"#utility.yul\":17947:17966   */\n      add\n        /* \"#utility.yul\":17941:17967   */\n      mload\n        /* \"#utility.yul\":17999:18047   */\n      tag_565\n        /* \"#utility.yul\":18041:18045   */\n      0x1f\n        /* \"#utility.yul\":18033:18039   */\n      dup10\n        /* \"#utility.yul\":18029:18046   */\n      and\n        /* \"#utility.yul\":18018:18027   */\n      dup3\n        /* \"#utility.yul\":17999:18047   */\n      tag_344\n      jump\t// in\n    tag_565:\n        /* \"#utility.yul\":17991:17997   */\n      dup4\n        /* \"#utility.yul\":17984:18048   */\n      sstore\n        /* \"#utility.yul\":17906:18062   */\n      pop\n        /* \"#utility.yul\":17883:18062   */\n    tag_564:\n        /* \"#utility.yul\":18108:18109   */\n      0x01\n        /* \"#utility.yul\":18104:18105   */\n      0x02\n        /* \"#utility.yul\":18096:18102   */\n      dup9\n        /* \"#utility.yul\":18092:18106   */\n      mul\n        /* \"#utility.yul\":18088:18110   */\n      add\n        /* \"#utility.yul\":18082:18086   */\n      dup9\n        /* \"#utility.yul\":18075:18111   */\n      sstore\n        /* \"#utility.yul\":17510:18121   */\n      pop\n      pop\n      pop\n        /* \"#utility.yul\":17473:18360   */\n    tag_556:\n      pop\n        /* \"#utility.yul\":17063:18366   */\n      pop\n      pop\n      pop\n        /* \"#utility.yul\":16971:18366   */\n      pop\n      pop\n      jump\t// out\n        /* \"#utility.yul\":18372:18520   */\n    tag_346:\n        /* \"#utility.yul\":18474:18485   */\n      0x00\n        /* \"#utility.yul\":18511:18514   */\n      dup2\n        /* \"#utility.yul\":18496:18514   */\n      swap1\n      pop\n        /* \"#utility.yul\":18372:18520   */\n      swap3\n      swap2\n      pop\n      pop\n      jump\t// out\n        /* \"#utility.yul\":18526:18916   */\n    tag_347:\n        /* \"#utility.yul\":18632:18635   */\n      0x00\n        /* \"#utility.yul\":18660:18699   */\n      tag_568\n        /* \"#utility.yul\":18693:18698   */\n      dup3\n        /* \"#utility.yul\":18660:18699   */\n      tag_317\n      jump\t// in\n    tag_568:\n        /* \"#utility.yul\":18715:18804   */\n      tag_569\n        /* \"#utility.yul\":18797:18803   */\n      dup2\n        /* \"#utility.yul\":18792:18795   */\n      dup6\n        /* \"#utility.yul\":18715:18804   */\n      tag_346\n      jump\t// in\n    tag_569:\n        /* \"#utility.yul\":18708:18804   */\n      swap4\n      pop\n        /* \"#utility.yul\":18813:18878   */\n      tag_570\n        /* \"#utility.yul\":18871:18877   */\n      dup2\n        /* \"#utility.yul\":18866:18869   */\n      dup6\n        /* \"#utility.yul\":18859:18863   */\n      0x20\n        /* \"#utility.yul\":18852:18857   */\n      dup7\n        /* \"#utility.yul\":18848:18864   */\n      add\n        /* \"#utility.yul\":18813:18878   */\n      tag_319\n      jump\t// in\n    tag_570:\n        /* \"#utility.yul\":18903:18909   */\n      dup1\n        /* \"#utility.yul\":18898:18901   */\n      dup5\n        /* \"#utility.yul\":18894:18910   */\n      add\n        /* \"#utility.yul\":18887:18910   */\n      swap2\n      pop\n        /* \"#utility.yul\":18636:18916   */\n      pop\n        /* \"#utility.yul\":18526:18916   */\n      swap3\n      swap2\n      pop\n      pop\n      jump\t// out\n        /* \"#utility.yul\":18922:19357   */\n    tag_160:\n        /* \"#utility.yul\":19102:19105   */\n      0x00\n        /* \"#utility.yul\":19124:19219   */\n      tag_572\n        /* \"#utility.yul\":19215:19218   */\n      dup3\n        /* \"#utility.yul\":19206:19212   */\n      dup6\n        /* \"#utility.yul\":19124:19219   */\n      tag_347\n      jump\t// in\n    tag_572:\n        /* \"#utility.yul\":19117:19219   */\n      swap2\n      pop\n        /* \"#utility.yul\":19236:19331   */\n      tag_573\n        /* \"#utility.yul\":19327:19330   */\n      dup3\n        /* \"#utility.yul\":19318:19324   */\n      dup5\n        /* \"#utility.yul\":19236:19331   */\n      tag_347\n      jump\t// in\n    tag_573:\n        /* \"#utility.yul\":19229:19331   */\n      swap2\n      pop\n        /* \"#utility.yul\":19348:19351   */\n      dup2\n        /* \"#utility.yul\":19341:19351   */\n      swap1\n      pop\n        /* \"#utility.yul\":18922:19357   */\n      swap4\n      swap3\n      pop\n      pop\n      pop\n      jump\t// out\n        /* \"#utility.yul\":19363:19461   */\n    tag_348:\n        /* \"#utility.yul\":19414:19420   */\n      0x00\n        /* \"#utility.yul\":19448:19453   */\n      dup2\n        /* \"#utility.yul\":19442:19454   */\n      mload\n        /* \"#utility.yul\":19432:19454   */\n      swap1\n      pop\n        /* \"#utility.yul\":19363:19461   */\n      swap2\n      swap1\n      pop\n      jump\t// out\n        /* \"#utility.yul\":19467:19635   */\n    tag_349:\n        /* \"#utility.yul\":19550:19561   */\n      0x00\n        /* \"#utility.yul\":19584:19590   */\n      dup3\n        /* \"#utility.yul\":19579:19582   */\n      dup3\n        /* \"#utility.yul\":19572:19591   */\n      mstore\n        /* \"#utility.yul\":19624:19628   */\n      0x20\n        /* \"#utility.yul\":19619:19622   */\n      dup3\n        /* \"#utility.yul\":19615:19629   */\n      add\n        /* \"#utility.yul\":19600:19629   */\n      swap1\n      pop\n        /* \"#utility.yul\":19467:19635   */\n      swap3\n      swap2\n      pop\n      pop\n      jump\t// out\n        /* \"#utility.yul\":19641:20014   */\n    tag_350:\n        /* \"#utility.yul\":19727:19730   */\n      0x00\n        /* \"#utility.yul\":19755:19793   */\n      tag_577\n        /* \"#utility.yul\":19787:19792   */\n      dup3\n        /* \"#utility.yul\":19755:19793   */\n      tag_348\n      jump\t// in\n    tag_577:\n        /* \"#utility.yul\":19809:19879   */\n      tag_578\n        /* \"#utility.yul\":19872:19878   */\n      dup2\n        /* \"#utility.yul\":19867:19870   */\n      dup6\n        /* \"#utility.yul\":19809:19879   */\n      tag_349\n      jump\t// in\n    tag_578:\n        /* \"#utility.yul\":19802:19879   */\n      swap4\n      pop\n        /* \"#utility.yul\":19888:19953   */\n      tag_579\n        /* \"#utility.yul\":19946:19952   */\n      dup2\n        /* \"#utility.yul\":19941:19944   */\n      dup6\n        /* \"#utility.yul\":19934:19938   */\n      0x20\n        /* \"#utility.yul\":19927:19932   */\n      dup7\n        /* \"#utility.yul\":19923:19939   */\n      add\n        /* \"#utility.yul\":19888:19953   */\n      tag_319\n      jump\t// in\n    tag_579:\n        /* \"#utility.yul\":19978:20007   */\n      tag_580\n        /* \"#utility.yul\":20000:20006   */\n      dup2\n        /* \"#utility.yul\":19978:20007   */\n      tag_304\n      jump\t// in\n    tag_580:\n        /* \"#utility.yul\":19973:19976   */\n      dup5\n        /* \"#utility.yul\":19969:20008   */\n      add\n        /* \"#utility.yul\":19962:20008   */\n      swap2\n      pop\n        /* \"#utility.yul\":19731:20014   */\n      pop\n        /* \"#utility.yul\":19641:20014   */\n      swap3\n      swap2\n      pop\n      pop\n      jump\t// out\n        /* \"#utility.yul\":20020:20660   */\n    tag_204:\n        /* \"#utility.yul\":20215:20219   */\n      0x00\n        /* \"#utility.yul\":20253:20256   */\n      0x80\n        /* \"#utility.yul\":20242:20251   */\n      dup3\n        /* \"#utility.yul\":20238:20257   */\n      add\n        /* \"#utility.yul\":20230:20257   */\n      swap1\n      pop\n        /* \"#utility.yul\":20267:20338   */\n      tag_582\n        /* \"#utility.yul\":20335:20336   */\n      0x00\n        /* \"#utility.yul\":20324:20333   */\n      dup4\n        /* \"#utility.yul\":20320:20337   */\n      add\n        /* \"#utility.yul\":20311:20317   */\n      dup8\n        /* \"#utility.yul\":20267:20338   */\n      tag_323\n      jump\t// in\n    tag_582:\n        /* \"#utility.yul\":20348:20420   */\n      tag_583\n        /* \"#utility.yul\":20416:20418   */\n      0x20\n        /* \"#utility.yul\":20405:20414   */\n      dup4\n        /* \"#utility.yul\":20401:20419   */\n      add\n        /* \"#utility.yul\":20392:20398   */\n      dup7\n        /* \"#utility.yul\":20348:20420   */\n      tag_323\n      jump\t// in\n    tag_583:\n        /* \"#utility.yul\":20430:20502   */\n      tag_584\n        /* \"#utility.yul\":20498:20500   */\n      0x40\n        /* \"#utility.yul\":20487:20496   */\n      dup4\n        /* \"#utility.yul\":20483:20501   */\n      add\n        /* \"#utility.yul\":20474:20480   */\n      dup6\n        /* \"#utility.yul\":20430:20502   */\n      tag_316\n      jump\t// in\n    tag_584:\n        /* \"#utility.yul\":20549:20558   */\n      dup2\n        /* \"#utility.yul\":20543:20547   */\n      dup2\n        /* \"#utility.yul\":20539:20559   */\n      sub\n        /* \"#utility.yul\":20534:20536   */\n      0x60\n        /* \"#utility.yul\":20523:20532   */\n      dup4\n        /* \"#utility.yul\":20519:20537   */\n      add\n        /* \"#utility.yul\":20512:20560   */\n      mstore\n        /* \"#utility.yul\":20577:20653   */\n      tag_585\n        /* \"#utility.yul\":20648:20652   */\n      dup2\n        /* \"#utility.yul\":20639:20645   */\n      dup5\n        /* \"#utility.yul\":20577:20653   */\n      tag_350\n      jump\t// in\n    tag_585:\n        /* \"#utility.yul\":20569:20653   */\n      swap1\n      pop\n        /* \"#utility.yul\":20020:20660   */\n      swap6\n      swap5\n      pop\n      pop\n      pop\n      pop\n      pop\n      jump\t// out\n        /* \"#utility.yul\":20666:20807   */\n    tag_351:\n        /* \"#utility.yul\":20722:20727   */\n      0x00\n        /* \"#utility.yul\":20753:20759   */\n      dup2\n        /* \"#utility.yul\":20747:20760   */\n      mload\n        /* \"#utility.yul\":20738:20760   */\n      swap1\n      pop\n        /* \"#utility.yul\":20769:20801   */\n      tag_587\n        /* \"#utility.yul\":20795:20800   */\n      dup2\n        /* \"#utility.yul\":20769:20801   */\n      tag_298\n      jump\t// in\n    tag_587:\n        /* \"#utility.yul\":20666:20807   */\n      swap3\n      swap2\n      pop\n      pop\n      jump\t// out\n        /* \"#utility.yul\":20813:21162   */\n    tag_207:\n        /* \"#utility.yul\":20882:20888   */\n      0x00\n        /* \"#utility.yul\":20931:20933   */\n      0x20\n        /* \"#utility.yul\":20919:20928   */\n      dup3\n        /* \"#utility.yul\":20910:20917   */\n      dup5\n        /* \"#utility.yul\":20906:20929   */\n      sub\n        /* \"#utility.yul\":20902:20934   */\n      slt\n        /* \"#utility.yul\":20899:21018   */\n      iszero\n      tag_589\n      jumpi\n        /* \"#utility.yul\":20937:21016   */\n      tag_590\n      tag_295\n      jump\t// in\n    tag_590:\n        /* \"#utility.yul\":20899:21018   */\n    tag_589:\n        /* \"#utility.yul\":21057:21058   */\n      0x00\n        /* \"#utility.yul\":21082:21145   */\n      tag_591\n        /* \"#utility.yul\":21137:21144   */\n      dup5\n        /* \"#utility.yul\":21128:21134   */\n      dup3\n        /* \"#utility.yul\":21117:21126   */\n      dup6\n        /* \"#utility.yul\":21113:21135   */\n      add\n        /* \"#utility.yul\":21082:21145   */\n      tag_351\n      jump\t// in\n    tag_591:\n        /* \"#utility.yul\":21072:21145   */\n      swap2\n      pop\n        /* \"#utility.yul\":21028:21155   */\n      pop\n        /* \"#utility.yul\":20813:21162   */\n      swap3\n      swap2\n      pop\n      pop\n      jump\t// out\n        /* \"#utility.yul\":21168:21500   */\n    tag_254:\n        /* \"#utility.yul\":21289:21293   */\n      0x00\n        /* \"#utility.yul\":21327:21329   */\n      0x40\n        /* \"#utility.yul\":21316:21325   */\n      dup3\n        /* \"#utility.yul\":21312:21330   */\n      add\n        /* \"#utility.yul\":21304:21330   */\n      swap1\n      pop\n        /* \"#utility.yul\":21340:21411   */\n      tag_593\n        /* \"#utility.yul\":21408:21409   */\n      0x00\n        /* \"#utility.yul\":21397:21406   */\n      dup4\n        /* \"#utility.yul\":21393:21410   */\n      add\n        /* \"#utility.yul\":21384:21390   */\n      dup6\n        /* \"#utility.yul\":21340:21411   */\n      tag_323\n      jump\t// in\n    tag_593:\n        /* \"#utility.yul\":21421:21493   */\n      tag_594\n        /* \"#utility.yul\":21489:21491   */\n      0x20\n        /* \"#utility.yul\":21478:21487   */\n      dup4\n        /* \"#utility.yul\":21474:21492   */\n      add\n        /* \"#utility.yul\":21465:21471   */\n      dup5\n        /* \"#utility.yul\":21421:21493   */\n      tag_316\n      jump\t// in\n    tag_594:\n        /* \"#utility.yul\":21168:21500   */\n      swap4\n      swap3\n      pop\n      pop\n      pop\n      jump\t// out\n        /* \"#utility.yul\":21506:21686   */\n    tag_266:\n        /* \"#utility.yul\":21554:21631   */\n      0x4e487b7100000000000000000000000000000000000000000000000000000000\n        /* \"#utility.yul\":21551:21552   */\n      0x00\n        /* \"#utility.yul\":21544:21632   */\n      mstore\n        /* \"#utility.yul\":21651:21655   */\n      0x12\n        /* \"#utility.yul\":21648:21649   */\n      0x04\n        /* \"#utility.yul\":21641:21656   */\n      mstore\n        /* \"#utility.yul\":21675:21679   */\n      0x24\n        /* \"#utility.yul\":21672:21673   */\n      0x00\n        /* \"#utility.yul\":21665:21680   */\n      revert\n\n    auxdata: 0xa2646970667358221220d0366f2276290ba0ea43095c73ad9bbbe23d02d84fff0947ca8bcf1b555e79e764736f6c63430008190033\n}\n",
				"bytecode": {
					"linkReferences": {},
					"object": "608060405234801561000f575f80fd5b506040518060400160405280600881526020017f53706f72744e46540000000000000000000000000000000000000000000000008152506040518060400160405280600481526020017f534e465400000000000000000000000000000000000000000000000000000000815250815f908161008a91906102dc565b50806001908161009a91906102dc565b5050506103ab565b5f81519050919050565b7f4e487b71000000000000000000000000000000000000000000000000000000005f52604160045260245ffd5b7f4e487b71000000000000000000000000000000000000000000000000000000005f52602260045260245ffd5b5f600282049050600182168061011d57607f821691505b6020821081036101305761012f6100d9565b5b50919050565b5f819050815f5260205f209050919050565b5f6020601f8301049050919050565b5f82821b905092915050565b5f600883026101927fffffffffffffffffffffffffffffffffffffffffffffffffffffffffffffffff82610157565b61019c8683610157565b95508019841693508086168417925050509392505050565b5f819050919050565b5f819050919050565b5f6101e06101db6101d6846101b4565b6101bd565b6101b4565b9050919050565b5f819050919050565b6101f9836101c6565b61020d610205826101e7565b848454610163565b825550505050565b5f90565b610221610215565b61022c8184846101f0565b505050565b5b8181101561024f576102445f82610219565b600181019050610232565b5050565b601f8211156102945761026581610136565b61026e84610148565b8101602085101561027d578190505b61029161028985610148565b830182610231565b50505b505050565b5f82821c905092915050565b5f6102b45f1984600802610299565b1980831691505092915050565b5f6102cc83836102a5565b9150826002028217905092915050565b6102e5826100a2565b67ffffffffffffffff8111156102fe576102fd6100ac565b5b6103088254610106565b610313828285610253565b5f60209050601f831160018114610344575f8415610332578287015190505b61033c85826102c1565b8655506103a3565b601f19841661035286610136565b5f5b8281101561037957848901518255600182019150602085019450602081019050610354565b868310156103965784890151610392601f8916826102a5565b8355505b6001600288020188555050505b505050505050565b6123d6806103b85f395ff3fe608060405234801561000f575f80fd5b50600436106100f3575f3560e01c806355f804b311610095578063a22cb46511610064578063a22cb46514610293578063b88d4fde146102af578063c87b56dd146102cb578063e985e9c5146102fb576100f3565b806355f804b3146101f95780636352211e1461021557806370a082311461024557806395d89b4114610275576100f3565b8063081812fc116100d1578063081812fc14610175578063095ea7b3146101a557806323b872dd146101c157806342842e0e146101dd576100f3565b806301ffc9a7146100f757806304f322791461012757806306fdde0314610157575b5f80fd5b610111600480360381019061010c9190611862565b61032b565b60405161011e91906118a7565b60405180910390f35b610141600480360381019061013c9190611a56565b61038b565b60405161014e9190611ac8565b60405180910390f35b61015f6103c7565b60405161016c9190611b41565b60405180910390f35b61018f600480360381019061018a9190611b8b565b610456565b60405161019c9190611bc5565b60405180910390f35b6101bf60048036038101906101ba9190611bde565b610471565b005b6101db60048036038101906101d69190611c1c565b610487565b005b6101f760048036038101906101f29190611c1c565b610586565b005b610213600480360381019061020e9190611c6c565b6105a5565b005b61022f600480360381019061022a9190611b8b565b6105b8565b60405161023c9190611bc5565b60405180910390f35b61025f600480360381019061025a9190611cb3565b6105c9565b60405161026c9190611ac8565b60405180910390f35b61027d61067f565b60405161028a9190611b41565b60405180910390f35b6102ad60048036038101906102a89190611d08565b61070f565b005b6102c960048036038101906102c49190611de4565b610725565b005b6102e560048036038101906102e09190611b8b565b610742565b6040516102f29190611b41565b60405180910390f35b61031560048036038101906103109190611e64565b61084d565b60405161032291906118a7565b60405180910390f35b5f634906490660e01b7bffffffffffffffffffffffffffffffffffffffffffffffffffffffff1916827bffffffffffffffffffffffffffffffffffffffffffffffffffffffff191614806103845750610383826108db565b5b9050919050565b5f60075f81548092919061039e90611ecf565b91905055505f60075490506103b383826109bc565b6103bd8185610aaf565b8091505092915050565b60605f80546103d590611f43565b80601f016020809104026020016040519081016040528092919081815260200182805461040190611f43565b801561044c5780601f106104235761010080835404028352916020019161044c565b820191905f5260205f20905b81548152906001019060200180831161042f57829003601f168201915b5050505050905090565b5f61046082610b09565b5061046a82610b8f565b9050919050565b610483828261047e610bc8565b610bcf565b5050565b5f73ffffffffffffffffffffffffffffffffffffffff168273ffffffffffffffffffffffffffffffffffffffff16036104f7575f6040517f64a0ae920000000000000000000000000000000000000000000000000000000081526004016104ee9190611bc5565b60405180910390fd5b5f61050a8383610505610bc8565b610be1565b90508373ffffffffffffffffffffffffffffffffffffffff168173ffffffffffffffffffffffffffffffffffffffff1614610580578382826040517f64283d7b00000000000000000000000000000000000000000000000000000000815260040161057793929190611f73565b60405180910390fd5b50505050565b6105a083838360405180602001604052805f815250610725565b505050565b80600890816105b49190612145565b5050565b5f6105c282610b09565b9050919050565b5f8073ffffffffffffffffffffffffffffffffffffffff168273ffffffffffffffffffffffffffffffffffffffff160361063a575f6040517f89c62b640000000000000000000000000000000000000000000000000000000081526004016106319190611bc5565b60405180910390fd5b60035f8373ffffffffffffffffffffffffffffffffffffffff1673ffffffffffffffffffffffffffffffffffffffff1681526020019081526020015f20549050919050565b60606001805461068e90611f43565b80601f01602080910402602001604051908101604052809291908181526020018280546106ba90611f43565b80156107055780601f106106dc57610100808354040283529160200191610705565b820191905f5260205f20905b8154815290600101906020018083116106e857829003601f168201915b5050505050905090565b61072161071a610bc8565b8383610dec565b5050565b610730848484610487565b61073c84848484610f55565b50505050565b606061074d82610b09565b505f60065f8481526020019081526020015f20805461076b90611f43565b80601f016020809104026020016040519081016040528092919081815260200182805461079790611f43565b80156107e25780601f106107b9576101008083540402835291602001916107e2565b820191905f5260205f20905b8154815290600101906020018083116107c557829003601f168201915b505050505090505f6107f2611107565b90505f815103610806578192505050610848565b5f8251111561083a57808260405160200161082292919061224e565b60405160208183030381529060405292505050610848565b61084384611197565b925050505b919050565b5f60055f8473ffffffffffffffffffffffffffffffffffffffff1673ffffffffffffffffffffffffffffffffffffffff1681526020019081526020015f205f8373ffffffffffffffffffffffffffffffffffffffff1673ffffffffffffffffffffffffffffffffffffffff1681526020019081526020015f205f9054906101000a900460ff16905092915050565b5f7f80ac58cd000000000000000000000000000000000000000000000000000000007bffffffffffffffffffffffffffffffffffffffffffffffffffffffff1916827bffffffffffffffffffffffffffffffffffffffffffffffffffffffff191614806109a557507f5b5e139f000000000000000000000000000000000000000000000000000000007bffffffffffffffffffffffffffffffffffffffffffffffffffffffff1916827bffffffffffffffffffffffffffffffffffffffffffffffffffffffff1916145b806109b557506109b4826111fd565b5b9050919050565b5f73ffffffffffffffffffffffffffffffffffffffff168273ffffffffffffffffffffffffffffffffffffffff1603610a2c575f6040517f64a0ae92000000000000000000000000000000000000000000000000000000008152600401610a239190611bc5565b60405180910390fd5b5f610a3883835f610be1565b90505f73ffffffffffffffffffffffffffffffffffffffff168173ffffffffffffffffffffffffffffffffffffffff1614610aaa575f6040517f73c6ac6e000000000000000000000000000000000000000000000000000000008152600401610aa19190611bc5565b60405180910390fd5b505050565b8060065f8481526020019081526020015f209081610acd9190612145565b507ff8e1a15aba9398e019f0b49df1a4fde98ee17ae345cb5f6b5e2c27f5033e8ce782604051610afd9190611ac8565b60405180910390a15050565b5f80610b1483611266565b90505f73ffffffffffffffffffffffffffffffffffffffff168173ffffffffffffffffffffffffffffffffffffffff1603610b8657826040517f7e273289000000000000000000000000000000000000000000000000000000008152600401610b7d9190611ac8565b60405180910390fd5b80915050919050565b5f60045f8381526020019081526020015f205f9054906101000a900473ffffffffffffffffffffffffffffffffffffffff169050919050565b5f33905090565b610bdc838383600161129f565b505050565b5f80610bec84611266565b90505f73ffffffffffffffffffffffffffffffffffffffff168373ffffffffffffffffffffffffffffffffffffffff1614610c2d57610c2c81848661145e565b5b5f73ffffffffffffffffffffffffffffffffffffffff168173ffffffffffffffffffffffffffffffffffffffff1614610cb857610c6c5f855f8061129f565b600160035f8373ffffffffffffffffffffffffffffffffffffffff1673ffffffffffffffffffffffffffffffffffffffff1681526020019081526020015f205f82825403925050819055505b5f73ffffffffffffffffffffffffffffffffffffffff168573ffffffffffffffffffffffffffffffffffffffff1614610d3757600160035f8773ffffffffffffffffffffffffffffffffffffffff1673ffffffffffffffffffffffffffffffffffffffff1681526020019081526020015f205f82825401925050819055505b8460025f8681526020019081526020015f205f6101000a81548173ffffffffffffffffffffffffffffffffffffffff021916908373ffffffffffffffffffffffffffffffffffffffff160217905550838573ffffffffffffffffffffffffffffffffffffffff168273ffffffffffffffffffffffffffffffffffffffff167fddf252ad1be2c89b69c2b068fc378daa952ba7f163c4a11628f55a4df523b3ef60405160405180910390a4809150509392505050565b5f73ffffffffffffffffffffffffffffffffffffffff168273ffffffffffffffffffffffffffffffffffffffff1603610e5c57816040517f5b08ba18000000000000000000000000000000000000000000000000000000008152600401610e539190611bc5565b60405180910390fd5b8060055f8573ffffffffffffffffffffffffffffffffffffffff1673ffffffffffffffffffffffffffffffffffffffff1681526020019081526020015f205f8473ffffffffffffffffffffffffffffffffffffffff1673ffffffffffffffffffffffffffffffffffffffff1681526020019081526020015f205f6101000a81548160ff0219169083151502179055508173ffffffffffffffffffffffffffffffffffffffff168373ffffffffffffffffffffffffffffffffffffffff167f17307eab39ab6107e8899845ad3d59bd9653f200f220920489ca2b5937696c3183604051610f4891906118a7565b60405180910390a3505050565b5f8373ffffffffffffffffffffffffffffffffffffffff163b1115611101578273ffffffffffffffffffffffffffffffffffffffff1663150b7a02610f98610bc8565b8685856040518563ffffffff1660e01b8152600401610fba94939291906122c3565b6020604051808303815f875af1925050508015610ff557506040513d601f19601f82011682018060405250810190610ff29190612321565b60015b611076573d805f8114611023576040519150601f19603f3d011682016040523d82523d5f602084013e611028565b606091505b505f81510361106e57836040517f64a0ae920000000000000000000000000000000000000000000000000000000081526004016110659190611bc5565b60405180910390fd5b805181602001fd5b63150b7a0260e01b7bffffffffffffffffffffffffffffffffffffffffffffffffffffffff1916817bffffffffffffffffffffffffffffffffffffffffffffffffffffffff1916146110ff57836040517f64a0ae920000000000000000000000000000000000000000000000000000000081526004016110f69190611bc5565b60405180910390fd5b505b50505050565b60606008805461111690611f43565b80601f016020809104026020016040519081016040528092919081815260200182805461114290611f43565b801561118d5780601f106111645761010080835404028352916020019161118d565b820191905f5260205f20905b81548152906001019060200180831161117057829003601f168201915b5050505050905090565b60606111a282610b09565b505f6111ac611107565b90505f8151116111ca5760405180602001604052805f8152506111f5565b806111d484611521565b6040516020016111e592919061224e565b6040516020818303038152906040525b915050919050565b5f7f01ffc9a7000000000000000000000000000000000000000000000000000000007bffffffffffffffffffffffffffffffffffffffffffffffffffffffff1916827bffffffffffffffffffffffffffffffffffffffffffffffffffffffff1916149050919050565b5f60025f8381526020019081526020015f205f9054906101000a900473ffffffffffffffffffffffffffffffffffffffff169050919050565b80806112d757505f73ffffffffffffffffffffffffffffffffffffffff168273ffffffffffffffffffffffffffffffffffffffff1614155b15611409575f6112e684610b09565b90505f73ffffffffffffffffffffffffffffffffffffffff168373ffffffffffffffffffffffffffffffffffffffff161415801561135057508273ffffffffffffffffffffffffffffffffffffffff168173ffffffffffffffffffffffffffffffffffffffff1614155b80156113635750611361818461084d565b155b156113a557826040517fa9fbf51f00000000000000000000000000000000000000000000000000000000815260040161139c9190611bc5565b60405180910390fd5b811561140757838573ffffffffffffffffffffffffffffffffffffffff168273ffffffffffffffffffffffffffffffffffffffff167f8c5be1e5ebec7d5bd14f71427d1e84f3dd0314c0f7b2291e5b200ac8c7c3b92560405160405180910390a45b505b8360045f8581526020019081526020015f205f6101000a81548173ffffffffffffffffffffffffffffffffffffffff021916908373ffffffffffffffffffffffffffffffffffffffff16021790555050505050565b6114698383836115eb565b61151c575f73ffffffffffffffffffffffffffffffffffffffff168373ffffffffffffffffffffffffffffffffffffffff16036114dd57806040517f7e2732890000000000000000000000000000000000000000000000000000000081526004016114d49190611ac8565b60405180910390fd5b81816040517f177e802f00000000000000000000000000000000000000000000000000000000815260040161151392919061234c565b60405180910390fd5b505050565b60605f600161152f846116ab565b0190505f8167ffffffffffffffff81111561154d5761154c6118d8565b5b6040519080825280601f01601f19166020018201604052801561157f5781602001600182028036833780820191505090505b5090505f82602001820190505b6001156115e0578080600190039150507f3031323334353637383961626364656600000000000000000000000000000000600a86061a8153600a85816115d5576115d4612373565b5b0494505f850361158c575b819350505050919050565b5f8073ffffffffffffffffffffffffffffffffffffffff168373ffffffffffffffffffffffffffffffffffffffff16141580156116a257508273ffffffffffffffffffffffffffffffffffffffff168473ffffffffffffffffffffffffffffffffffffffff1614806116635750611662848461084d565b5b806116a157508273ffffffffffffffffffffffffffffffffffffffff1661168983610b8f565b73ffffffffffffffffffffffffffffffffffffffff16145b5b90509392505050565b5f805f90507a184f03e93ff9f4daa797ed6e38ed64bf6a1f0100000000000000008310611707577a184f03e93ff9f4daa797ed6e38ed64bf6a1f01000000000000000083816116fd576116fc612373565b5b0492506040810190505b6d04ee2d6d415b85acef81000000008310611744576d04ee2d6d415b85acef8100000000838161173a57611739612373565b5b0492506020810190505b662386f26fc10000831061177357662386f26fc10000838161176957611768612373565b5b0492506010810190505b6305f5e100831061179c576305f5e100838161179257611791612373565b5b0492506008810190505b61271083106117c15761271083816117b7576117b6612373565b5b0492506004810190505b606483106117e457606483816117da576117d9612373565b5b0492506002810190505b600a83106117f3576001810190505b80915050919050565b5f604051905090565b5f80fd5b5f80fd5b5f7fffffffff0000000000000000000000000000000000000000000000000000000082169050919050565b6118418161180d565b811461184b575f80fd5b50565b5f8135905061185c81611838565b92915050565b5f6020828403121561187757611876611805565b5b5f6118848482850161184e565b91505092915050565b5f8115159050919050565b6118a18161188d565b82525050565b5f6020820190506118ba5f830184611898565b92915050565b5f80fd5b5f80fd5b5f601f19601f8301169050919050565b7f4e487b71000000000000000000000000000000000000000000000000000000005f52604160045260245ffd5b61190e826118c8565b810181811067ffffffffffffffff8211171561192d5761192c6118d8565b5b80604052505050565b5f61193f6117fc565b905061194b8282611905565b919050565b5f67ffffffffffffffff82111561196a576119696118d8565b5b611973826118c8565b9050602081019050919050565b828183375f83830152505050565b5f6119a061199b84611950565b611936565b9050828152602081018484840111156119bc576119bb6118c4565b5b6119c7848285611980565b509392505050565b5f82601f8301126119e3576119e26118c0565b5b81356119f384826020860161198e565b91505092915050565b5f73ffffffffffffffffffffffffffffffffffffffff82169050919050565b5f611a25826119fc565b9050919050565b611a3581611a1b565b8114611a3f575f80fd5b50565b5f81359050611a5081611a2c565b92915050565b5f8060408385031215611a6c57611a6b611805565b5b5f83013567ffffffffffffffff811115611a8957611a88611809565b5b611a95858286016119cf565b9250506020611aa685828601611a42565b9150509250929050565b5f819050919050565b611ac281611ab0565b82525050565b5f602082019050611adb5f830184611ab9565b92915050565b5f81519050919050565b5f82825260208201905092915050565b8281835e5f83830152505050565b5f611b1382611ae1565b611b1d8185611aeb565b9350611b2d818560208601611afb565b611b36816118c8565b840191505092915050565b5f6020820190508181035f830152611b598184611b09565b905092915050565b611b6a81611ab0565b8114611b74575f80fd5b50565b5f81359050611b8581611b61565b92915050565b5f60208284031215611ba057611b9f611805565b5b5f611bad84828501611b77565b91505092915050565b611bbf81611a1b565b82525050565b5f602082019050611bd85f830184611bb6565b92915050565b5f8060408385031215611bf457611bf3611805565b5b5f611c0185828601611a42565b9250506020611c1285828601611b77565b9150509250929050565b5f805f60608486031215611c3357611c32611805565b5b5f611c4086828701611a42565b9350506020611c5186828701611a42565b9250506040611c6286828701611b77565b9150509250925092565b5f60208284031215611c8157611c80611805565b5b5f82013567ffffffffffffffff811115611c9e57611c9d611809565b5b611caa848285016119cf565b91505092915050565b5f60208284031215611cc857611cc7611805565b5b5f611cd584828501611a42565b91505092915050565b611ce78161188d565b8114611cf1575f80fd5b50565b5f81359050611d0281611cde565b92915050565b5f8060408385031215611d1e57611d1d611805565b5b5f611d2b85828601611a42565b9250506020611d3c85828601611cf4565b9150509250929050565b5f67ffffffffffffffff821115611d6057611d5f6118d8565b5b611d69826118c8565b9050602081019050919050565b5f611d88611d8384611d46565b611936565b905082815260208101848484011115611da457611da36118c4565b5b611daf848285611980565b509392505050565b5f82601f830112611dcb57611dca6118c0565b5b8135611ddb848260208601611d76565b91505092915050565b5f805f8060808587031215611dfc57611dfb611805565b5b5f611e0987828801611a42565b9450506020611e1a87828801611a42565b9350506040611e2b87828801611b77565b925050606085013567ffffffffffffffff811115611e4c57611e4b611809565b5b611e5887828801611db7565b91505092959194509250565b5f8060408385031215611e7a57611e79611805565b5b5f611e8785828601611a42565b9250506020611e9885828601611a42565b9150509250929050565b7f4e487b71000000000000000000000000000000000000000000000000000000005f52601160045260245ffd5b5f611ed982611ab0565b91507fffffffffffffffffffffffffffffffffffffffffffffffffffffffffffffffff8203611f0b57611f0a611ea2565b5b600182019050919050565b7f4e487b71000000000000000000000000000000000000000000000000000000005f52602260045260245ffd5b5f6002820490506001821680611f5a57607f821691505b602082108103611f6d57611f6c611f16565b5b50919050565b5f606082019050611f865f830186611bb6565b611f936020830185611ab9565b611fa06040830184611bb6565b949350505050565b5f819050815f5260205f209050919050565b5f6020601f8301049050919050565b5f82821b905092915050565b5f600883026120047fffffffffffffffffffffffffffffffffffffffffffffffffffffffffffffffff82611fc9565b61200e8683611fc9565b95508019841693508086168417925050509392505050565b5f819050919050565b5f61204961204461203f84611ab0565b612026565b611ab0565b9050919050565b5f819050919050565b6120628361202f565b61207661206e82612050565b848454611fd5565b825550505050565b5f90565b61208a61207e565b612095818484612059565b505050565b5b818110156120b8576120ad5f82612082565b60018101905061209b565b5050565b601f8211156120fd576120ce81611fa8565b6120d784611fba565b810160208510156120e6578190505b6120fa6120f285611fba565b83018261209a565b50505b505050565b5f82821c905092915050565b5f61211d5f1984600802612102565b1980831691505092915050565b5f612135838361210e565b9150826002028217905092915050565b61214e82611ae1565b67ffffffffffffffff811115612167576121666118d8565b5b6121718254611f43565b61217c8282856120bc565b5f60209050601f8311600181146121ad575f841561219b578287015190505b6121a5858261212a565b86555061220c565b601f1984166121bb86611fa8565b5f5b828110156121e2578489015182556001820191506020850194506020810190506121bd565b868310156121ff57848901516121fb601f89168261210e565b8355505b6001600288020188555050505b505050505050565b5f81905092915050565b5f61222882611ae1565b6122328185612214565b9350612242818560208601611afb565b80840191505092915050565b5f612259828561221e565b9150612265828461221e565b91508190509392505050565b5f81519050919050565b5f82825260208201905092915050565b5f61229582612271565b61229f818561227b565b93506122af818560208601611afb565b6122b8816118c8565b840191505092915050565b5f6080820190506122d65f830187611bb6565b6122e36020830186611bb6565b6122f06040830185611ab9565b8181036060830152612302818461228b565b905095945050505050565b5f8151905061231b81611838565b92915050565b5f6020828403121561233657612335611805565b5b5f6123438482850161230d565b91505092915050565b5f60408201905061235f5f830185611bb6565b61236c6020830184611ab9565b9392505050565b7f4e487b71000000000000000000000000000000000000000000000000000000005f52601260045260245ffdfea2646970667358221220d0366f2276290ba0ea43095c73ad9bbbe23d02d84fff0947ca8bcf1b555e79e764736f6c63430008190033",
					"opcodes": "PUSH1 0x80 PUSH1 0x40 MSTORE CALLVALUE DUP1 ISZERO PUSH2 0xF JUMPI PUSH0 DUP1 REVERT JUMPDEST POP PUSH1 0x40 MLOAD DUP1 PUSH1 0x40 ADD PUSH1 0x40 MSTORE DUP1 PUSH1 0x8 DUP2 MSTORE PUSH1 0x20 ADD PUSH32 0x53706F72744E4654000000000000000000000000000000000000000000000000 DUP2 MSTORE POP PUSH1 0x40 MLOAD DUP1 PUSH1 0x40 ADD PUSH1 0x40 MSTORE DUP1 PUSH1 0x4 DUP2 MSTORE PUSH1 0x20 ADD PUSH32 0x534E465400000000000000000000000000000000000000000000000000000000 DUP2 MSTORE POP DUP2 PUSH0 SWAP1 DUP2 PUSH2 0x8A SWAP2 SWAP1 PUSH2 0x2DC JUMP JUMPDEST POP DUP1 PUSH1 0x1 SWAP1 DUP2 PUSH2 0x9A SWAP2 SWAP1 PUSH2 0x2DC JUMP JUMPDEST POP POP POP PUSH2 0x3AB JUMP JUMPDEST PUSH0 DUP2 MLOAD SWAP1 POP SWAP2 SWAP1 POP JUMP JUMPDEST PUSH32 0x4E487B7100000000000000000000000000000000000000000000000000000000 PUSH0 MSTORE PUSH1 0x41 PUSH1 0x4 MSTORE PUSH1 0x24 PUSH0 REVERT JUMPDEST PUSH32 0x4E487B7100000000000000000000000000000000000000000000000000000000 PUSH0 MSTORE PUSH1 0x22 PUSH1 0x4 MSTORE PUSH1 0x24 PUSH0 REVERT JUMPDEST PUSH0 PUSH1 0x2 DUP3 DIV SWAP1 POP PUSH1 0x1 DUP3 AND DUP1 PUSH2 0x11D JUMPI PUSH1 0x7F DUP3 AND SWAP2 POP JUMPDEST PUSH1 0x20 DUP3 LT DUP2 SUB PUSH2 0x130 JUMPI PUSH2 0x12F PUSH2 0xD9 JUMP JUMPDEST JUMPDEST POP SWAP2 SWAP1 POP JUMP JUMPDEST PUSH0 DUP2 SWAP1 POP DUP2 PUSH0 MSTORE PUSH1 0x20 PUSH0 KECCAK256 SWAP1 POP SWAP2 SWAP1 POP JUMP JUMPDEST PUSH0 PUSH1 0x20 PUSH1 0x1F DUP4 ADD DIV SWAP1 POP SWAP2 SWAP1 POP JUMP JUMPDEST PUSH0 DUP3 DUP3 SHL SWAP1 POP SWAP3 SWAP2 POP POP JUMP JUMPDEST PUSH0 PUSH1 0x8 DUP4 MUL PUSH2 0x192 PUSH32 0xFFFFFFFFFFFFFFFFFFFFFFFFFFFFFFFFFFFFFFFFFFFFFFFFFFFFFFFFFFFFFFFF DUP3 PUSH2 0x157 JUMP JUMPDEST PUSH2 0x19C DUP7 DUP4 PUSH2 0x157 JUMP JUMPDEST SWAP6 POP DUP1 NOT DUP5 AND SWAP4 POP DUP1 DUP7 AND DUP5 OR SWAP3 POP POP POP SWAP4 SWAP3 POP POP POP JUMP JUMPDEST PUSH0 DUP2 SWAP1 POP SWAP2 SWAP1 POP JUMP JUMPDEST PUSH0 DUP2 SWAP1 POP SWAP2 SWAP1 POP JUMP JUMPDEST PUSH0 PUSH2 0x1E0 PUSH2 0x1DB PUSH2 0x1D6 DUP5 PUSH2 0x1B4 JUMP JUMPDEST PUSH2 0x1BD JUMP JUMPDEST PUSH2 0x1B4 JUMP JUMPDEST SWAP1 POP SWAP2 SWAP1 POP JUMP JUMPDEST PUSH0 DUP2 SWAP1 POP SWAP2 SWAP1 POP JUMP JUMPDEST PUSH2 0x1F9 DUP4 PUSH2 0x1C6 JUMP JUMPDEST PUSH2 0x20D PUSH2 0x205 DUP3 PUSH2 0x1E7 JUMP JUMPDEST DUP5 DUP5 SLOAD PUSH2 0x163 JUMP JUMPDEST DUP3 SSTORE POP POP POP POP JUMP JUMPDEST PUSH0 SWAP1 JUMP JUMPDEST PUSH2 0x221 PUSH2 0x215 JUMP JUMPDEST PUSH2 0x22C DUP2 DUP5 DUP5 PUSH2 0x1F0 JUMP JUMPDEST POP POP POP JUMP JUMPDEST JUMPDEST DUP2 DUP2 LT ISZERO PUSH2 0x24F JUMPI PUSH2 0x244 PUSH0 DUP3 PUSH2 0x219 JUMP JUMPDEST PUSH1 0x1 DUP2 ADD SWAP1 POP PUSH2 0x232 JUMP JUMPDEST POP POP JUMP JUMPDEST PUSH1 0x1F DUP3 GT ISZERO PUSH2 0x294 JUMPI PUSH2 0x265 DUP2 PUSH2 0x136 JUMP JUMPDEST PUSH2 0x26E DUP5 PUSH2 0x148 JUMP JUMPDEST DUP2 ADD PUSH1 0x20 DUP6 LT ISZERO PUSH2 0x27D JUMPI DUP2 SWAP1 POP JUMPDEST PUSH2 0x291 PUSH2 0x289 DUP6 PUSH2 0x148 JUMP JUMPDEST DUP4 ADD DUP3 PUSH2 0x231 JUMP JUMPDEST POP POP JUMPDEST POP POP POP JUMP JUMPDEST PUSH0 DUP3 DUP3 SHR SWAP1 POP SWAP3 SWAP2 POP POP JUMP JUMPDEST PUSH0 PUSH2 0x2B4 PUSH0 NOT DUP5 PUSH1 0x8 MUL PUSH2 0x299 JUMP JUMPDEST NOT DUP1 DUP4 AND SWAP2 POP POP SWAP3 SWAP2 POP POP JUMP JUMPDEST PUSH0 PUSH2 0x2CC DUP4 DUP4 PUSH2 0x2A5 JUMP JUMPDEST SWAP2 POP DUP3 PUSH1 0x2 MUL DUP3 OR SWAP1 POP SWAP3 SWAP2 POP POP JUMP JUMPDEST PUSH2 0x2E5 DUP3 PUSH2 0xA2 JUMP JUMPDEST PUSH8 0xFFFFFFFFFFFFFFFF DUP2 GT ISZERO PUSH2 0x2FE JUMPI PUSH2 0x2FD PUSH2 0xAC JUMP JUMPDEST JUMPDEST PUSH2 0x308 DUP3 SLOAD PUSH2 0x106 JUMP JUMPDEST PUSH2 0x313 DUP3 DUP3 DUP6 PUSH2 0x253 JUMP JUMPDEST PUSH0 PUSH1 0x20 SWAP1 POP PUSH1 0x1F DUP4 GT PUSH1 0x1 DUP2 EQ PUSH2 0x344 JUMPI PUSH0 DUP5 ISZERO PUSH2 0x332 JUMPI DUP3 DUP8 ADD MLOAD SWAP1 POP JUMPDEST PUSH2 0x33C DUP6 DUP3 PUSH2 0x2C1 JUMP JUMPDEST DUP7 SSTORE POP PUSH2 0x3A3 JUMP JUMPDEST PUSH1 0x1F NOT DUP5 AND PUSH2 0x352 DUP7 PUSH2 0x136 JUMP JUMPDEST PUSH0 JUMPDEST DUP3 DUP2 LT ISZERO PUSH2 0x379 JUMPI DUP5 DUP10 ADD MLOAD DUP3 SSTORE PUSH1 0x1 DUP3 ADD SWAP2 POP PUSH1 0x20 DUP6 ADD SWAP5 POP PUSH1 0x20 DUP2 ADD SWAP1 POP PUSH2 0x354 JUMP JUMPDEST DUP7 DUP4 LT ISZERO PUSH2 0x396 JUMPI DUP5 DUP10 ADD MLOAD PUSH2 0x392 PUSH1 0x1F DUP10 AND DUP3 PUSH2 0x2A5 JUMP JUMPDEST DUP4 SSTORE POP JUMPDEST PUSH1 0x1 PUSH1 0x2 DUP9 MUL ADD DUP9 SSTORE POP POP POP JUMPDEST POP POP POP POP POP POP JUMP JUMPDEST PUSH2 0x23D6 DUP1 PUSH2 0x3B8 PUSH0 CODECOPY PUSH0 RETURN INVALID PUSH1 0x80 PUSH1 0x40 MSTORE CALLVALUE DUP1 ISZERO PUSH2 0xF JUMPI PUSH0 DUP1 REVERT JUMPDEST POP PUSH1 0x4 CALLDATASIZE LT PUSH2 0xF3 JUMPI PUSH0 CALLDATALOAD PUSH1 0xE0 SHR DUP1 PUSH4 0x55F804B3 GT PUSH2 0x95 JUMPI DUP1 PUSH4 0xA22CB465 GT PUSH2 0x64 JUMPI DUP1 PUSH4 0xA22CB465 EQ PUSH2 0x293 JUMPI DUP1 PUSH4 0xB88D4FDE EQ PUSH2 0x2AF JUMPI DUP1 PUSH4 0xC87B56DD EQ PUSH2 0x2CB JUMPI DUP1 PUSH4 0xE985E9C5 EQ PUSH2 0x2FB JUMPI PUSH2 0xF3 JUMP JUMPDEST DUP1 PUSH4 0x55F804B3 EQ PUSH2 0x1F9 JUMPI DUP1 PUSH4 0x6352211E EQ PUSH2 0x215 JUMPI DUP1 PUSH4 0x70A08231 EQ PUSH2 0x245 JUMPI DUP1 PUSH4 0x95D89B41 EQ PUSH2 0x275 JUMPI PUSH2 0xF3 JUMP JUMPDEST DUP1 PUSH4 0x81812FC GT PUSH2 0xD1 JUMPI DUP1 PUSH4 0x81812FC EQ PUSH2 0x175 JUMPI DUP1 PUSH4 0x95EA7B3 EQ PUSH2 0x1A5 JUMPI DUP1 PUSH4 0x23B872DD EQ PUSH2 0x1C1 JUMPI DUP1 PUSH4 0x42842E0E EQ PUSH2 0x1DD JUMPI PUSH2 0xF3 JUMP JUMPDEST DUP1 PUSH4 0x1FFC9A7 EQ PUSH2 0xF7 JUMPI DUP1 PUSH4 0x4F32279 EQ PUSH2 0x127 JUMPI DUP1 PUSH4 0x6FDDE03 EQ PUSH2 0x157 JUMPI JUMPDEST PUSH0 DUP1 REVERT JUMPDEST PUSH2 0x111 PUSH1 0x4 DUP1 CALLDATASIZE SUB DUP2 ADD SWAP1 PUSH2 0x10C SWAP2 SWAP1 PUSH2 0x1862 JUMP JUMPDEST PUSH2 0x32B JUMP JUMPDEST PUSH1 0x40 MLOAD PUSH2 0x11E SWAP2 SWAP1 PUSH2 0x18A7 JUMP JUMPDEST PUSH1 0x40 MLOAD DUP1 SWAP2 SUB SWAP1 RETURN JUMPDEST PUSH2 0x141 PUSH1 0x4 DUP1 CALLDATASIZE SUB DUP2 ADD SWAP1 PUSH2 0x13C SWAP2 SWAP1 PUSH2 0x1A56 JUMP JUMPDEST PUSH2 0x38B JUMP JUMPDEST PUSH1 0x40 MLOAD PUSH2 0x14E SWAP2 SWAP1 PUSH2 0x1AC8 JUMP JUMPDEST PUSH1 0x40 MLOAD DUP1 SWAP2 SUB SWAP1 RETURN JUMPDEST PUSH2 0x15F PUSH2 0x3C7 JUMP JUMPDEST PUSH1 0x40 MLOAD PUSH2 0x16C SWAP2 SWAP1 PUSH2 0x1B41 JUMP JUMPDEST PUSH1 0x40 MLOAD DUP1 SWAP2 SUB SWAP1 RETURN JUMPDEST PUSH2 0x18F PUSH1 0x4 DUP1 CALLDATASIZE SUB DUP2 ADD SWAP1 PUSH2 0x18A SWAP2 SWAP1 PUSH2 0x1B8B JUMP JUMPDEST PUSH2 0x456 JUMP JUMPDEST PUSH1 0x40 MLOAD PUSH2 0x19C SWAP2 SWAP1 PUSH2 0x1BC5 JUMP JUMPDEST PUSH1 0x40 MLOAD DUP1 SWAP2 SUB SWAP1 RETURN JUMPDEST PUSH2 0x1BF PUSH1 0x4 DUP1 CALLDATASIZE SUB DUP2 ADD SWAP1 PUSH2 0x1BA SWAP2 SWAP1 PUSH2 0x1BDE JUMP JUMPDEST PUSH2 0x471 JUMP JUMPDEST STOP JUMPDEST PUSH2 0x1DB PUSH1 0x4 DUP1 CALLDATASIZE SUB DUP2 ADD SWAP1 PUSH2 0x1D6 SWAP2 SWAP1 PUSH2 0x1C1C JUMP JUMPDEST PUSH2 0x487 JUMP JUMPDEST STOP JUMPDEST PUSH2 0x1F7 PUSH1 0x4 DUP1 CALLDATASIZE SUB DUP2 ADD SWAP1 PUSH2 0x1F2 SWAP2 SWAP1 PUSH2 0x1C1C JUMP JUMPDEST PUSH2 0x586 JUMP JUMPDEST STOP JUMPDEST PUSH2 0x213 PUSH1 0x4 DUP1 CALLDATASIZE SUB DUP2 ADD SWAP1 PUSH2 0x20E SWAP2 SWAP1 PUSH2 0x1C6C JUMP JUMPDEST PUSH2 0x5A5 JUMP JUMPDEST STOP JUMPDEST PUSH2 0x22F PUSH1 0x4 DUP1 CALLDATASIZE SUB DUP2 ADD SWAP1 PUSH2 0x22A SWAP2 SWAP1 PUSH2 0x1B8B JUMP JUMPDEST PUSH2 0x5B8 JUMP JUMPDEST PUSH1 0x40 MLOAD PUSH2 0x23C SWAP2 SWAP1 PUSH2 0x1BC5 JUMP JUMPDEST PUSH1 0x40 MLOAD DUP1 SWAP2 SUB SWAP1 RETURN JUMPDEST PUSH2 0x25F PUSH1 0x4 DUP1 CALLDATASIZE SUB DUP2 ADD SWAP1 PUSH2 0x25A SWAP2 SWAP1 PUSH2 0x1CB3 JUMP JUMPDEST PUSH2 0x5C9 JUMP JUMPDEST PUSH1 0x40 MLOAD PUSH2 0x26C SWAP2 SWAP1 PUSH2 0x1AC8 JUMP JUMPDEST PUSH1 0x40 MLOAD DUP1 SWAP2 SUB SWAP1 RETURN JUMPDEST PUSH2 0x27D PUSH2 0x67F JUMP JUMPDEST PUSH1 0x40 MLOAD PUSH2 0x28A SWAP2 SWAP1 PUSH2 0x1B41 JUMP JUMPDEST PUSH1 0x40 MLOAD DUP1 SWAP2 SUB SWAP1 RETURN JUMPDEST PUSH2 0x2AD PUSH1 0x4 DUP1 CALLDATASIZE SUB DUP2 ADD SWAP1 PUSH2 0x2A8 SWAP2 SWAP1 PUSH2 0x1D08 JUMP JUMPDEST PUSH2 0x70F JUMP JUMPDEST STOP JUMPDEST PUSH2 0x2C9 PUSH1 0x4 DUP1 CALLDATASIZE SUB DUP2 ADD SWAP1 PUSH2 0x2C4 SWAP2 SWAP1 PUSH2 0x1DE4 JUMP JUMPDEST PUSH2 0x725 JUMP JUMPDEST STOP JUMPDEST PUSH2 0x2E5 PUSH1 0x4 DUP1 CALLDATASIZE SUB DUP2 ADD SWAP1 PUSH2 0x2E0 SWAP2 SWAP1 PUSH2 0x1B8B JUMP JUMPDEST PUSH2 0x742 JUMP JUMPDEST PUSH1 0x40 MLOAD PUSH2 0x2F2 SWAP2 SWAP1 PUSH2 0x1B41 JUMP JUMPDEST PUSH1 0x40 MLOAD DUP1 SWAP2 SUB SWAP1 RETURN JUMPDEST PUSH2 0x315 PUSH1 0x4 DUP1 CALLDATASIZE SUB DUP2 ADD SWAP1 PUSH2 0x310 SWAP2 SWAP1 PUSH2 0x1E64 JUMP JUMPDEST PUSH2 0x84D JUMP JUMPDEST PUSH1 0x40 MLOAD PUSH2 0x322 SWAP2 SWAP1 PUSH2 0x18A7 JUMP JUMPDEST PUSH1 0x40 MLOAD DUP1 SWAP2 SUB SWAP1 RETURN JUMPDEST PUSH0 PUSH4 0x49064906 PUSH1 0xE0 SHL PUSH28 0xFFFFFFFFFFFFFFFFFFFFFFFFFFFFFFFFFFFFFFFFFFFFFFFFFFFFFFFF NOT AND DUP3 PUSH28 0xFFFFFFFFFFFFFFFFFFFFFFFFFFFFFFFFFFFFFFFFFFFFFFFFFFFFFFFF NOT AND EQ DUP1 PUSH2 0x384 JUMPI POP PUSH2 0x383 DUP3 PUSH2 0x8DB JUMP JUMPDEST JUMPDEST SWAP1 POP SWAP2 SWAP1 POP JUMP JUMPDEST PUSH0 PUSH1 0x7 PUSH0 DUP2 SLOAD DUP1 SWAP3 SWAP2 SWAP1 PUSH2 0x39E SWAP1 PUSH2 0x1ECF JUMP JUMPDEST SWAP2 SWAP1 POP SSTORE POP PUSH0 PUSH1 0x7 SLOAD SWAP1 POP PUSH2 0x3B3 DUP4 DUP3 PUSH2 0x9BC JUMP JUMPDEST PUSH2 0x3BD DUP2 DUP6 PUSH2 0xAAF JUMP JUMPDEST DUP1 SWAP2 POP POP SWAP3 SWAP2 POP POP JUMP JUMPDEST PUSH1 0x60 PUSH0 DUP1 SLOAD PUSH2 0x3D5 SWAP1 PUSH2 0x1F43 JUMP JUMPDEST DUP1 PUSH1 0x1F ADD PUSH1 0x20 DUP1 SWAP2 DIV MUL PUSH1 0x20 ADD PUSH1 0x40 MLOAD SWAP1 DUP2 ADD PUSH1 0x40 MSTORE DUP1 SWAP3 SWAP2 SWAP1 DUP2 DUP2 MSTORE PUSH1 0x20 ADD DUP3 DUP1 SLOAD PUSH2 0x401 SWAP1 PUSH2 0x1F43 JUMP JUMPDEST DUP1 ISZERO PUSH2 0x44C JUMPI DUP1 PUSH1 0x1F LT PUSH2 0x423 JUMPI PUSH2 0x100 DUP1 DUP4 SLOAD DIV MUL DUP4 MSTORE SWAP2 PUSH1 0x20 ADD SWAP2 PUSH2 0x44C JUMP JUMPDEST DUP3 ADD SWAP2 SWAP1 PUSH0 MSTORE PUSH1 0x20 PUSH0 KECCAK256 SWAP1 JUMPDEST DUP2 SLOAD DUP2 MSTORE SWAP1 PUSH1 0x1 ADD SWAP1 PUSH1 0x20 ADD DUP1 DUP4 GT PUSH2 0x42F JUMPI DUP3 SWAP1 SUB PUSH1 0x1F AND DUP3 ADD SWAP2 JUMPDEST POP POP POP POP POP SWAP1 POP SWAP1 JUMP JUMPDEST PUSH0 PUSH2 0x460 DUP3 PUSH2 0xB09 JUMP JUMPDEST POP PUSH2 0x46A DUP3 PUSH2 0xB8F JUMP JUMPDEST SWAP1 POP SWAP2 SWAP1 POP JUMP JUMPDEST PUSH2 0x483 DUP3 DUP3 PUSH2 0x47E PUSH2 0xBC8 JUMP JUMPDEST PUSH2 0xBCF JUMP JUMPDEST POP POP JUMP JUMPDEST PUSH0 PUSH20 0xFFFFFFFFFFFFFFFFFFFFFFFFFFFFFFFFFFFFFFFF AND DUP3 PUSH20 0xFFFFFFFFFFFFFFFFFFFFFFFFFFFFFFFFFFFFFFFF AND SUB PUSH2 0x4F7 JUMPI PUSH0 PUSH1 0x40 MLOAD PUSH32 0x64A0AE9200000000000000000000000000000000000000000000000000000000 DUP2 MSTORE PUSH1 0x4 ADD PUSH2 0x4EE SWAP2 SWAP1 PUSH2 0x1BC5 JUMP JUMPDEST PUSH1 0x40 MLOAD DUP1 SWAP2 SUB SWAP1 REVERT JUMPDEST PUSH0 PUSH2 0x50A DUP4 DUP4 PUSH2 0x505 PUSH2 0xBC8 JUMP JUMPDEST PUSH2 0xBE1 JUMP JUMPDEST SWAP1 POP DUP4 PUSH20 0xFFFFFFFFFFFFFFFFFFFFFFFFFFFFFFFFFFFFFFFF AND DUP2 PUSH20 0xFFFFFFFFFFFFFFFFFFFFFFFFFFFFFFFFFFFFFFFF AND EQ PUSH2 0x580 JUMPI DUP4 DUP3 DUP3 PUSH1 0x40 MLOAD PUSH32 0x64283D7B00000000000000000000000000000000000000000000000000000000 DUP2 MSTORE PUSH1 0x4 ADD PUSH2 0x577 SWAP4 SWAP3 SWAP2 SWAP1 PUSH2 0x1F73 JUMP JUMPDEST PUSH1 0x40 MLOAD DUP1 SWAP2 SUB SWAP1 REVERT JUMPDEST POP POP POP POP JUMP JUMPDEST PUSH2 0x5A0 DUP4 DUP4 DUP4 PUSH1 0x40 MLOAD DUP1 PUSH1 0x20 ADD PUSH1 0x40 MSTORE DUP1 PUSH0 DUP2 MSTORE POP PUSH2 0x725 JUMP JUMPDEST POP POP POP JUMP JUMPDEST DUP1 PUSH1 0x8 SWAP1 DUP2 PUSH2 0x5B4 SWAP2 SWAP1 PUSH2 0x2145 JUMP JUMPDEST POP POP JUMP JUMPDEST PUSH0 PUSH2 0x5C2 DUP3 PUSH2 0xB09 JUMP JUMPDEST SWAP1 POP SWAP2 SWAP1 POP JUMP JUMPDEST PUSH0 DUP1 PUSH20 0xFFFFFFFFFFFFFFFFFFFFFFFFFFFFFFFFFFFFFFFF AND DUP3 PUSH20 0xFFFFFFFFFFFFFFFFFFFFFFFFFFFFFFFFFFFFFFFF AND SUB PUSH2 0x63A JUMPI PUSH0 PUSH1 0x40 MLOAD PUSH32 0x89C62B6400000000000000000000000000000000000000000000000000000000 DUP2 MSTORE PUSH1 0x4 ADD PUSH2 0x631 SWAP2 SWAP1 PUSH2 0x1BC5 JUMP JUMPDEST PUSH1 0x40 MLOAD DUP1 SWAP2 SUB SWAP1 REVERT JUMPDEST PUSH1 0x3 PUSH0 DUP4 PUSH20 0xFFFFFFFFFFFFFFFFFFFFFFFFFFFFFFFFFFFFFFFF AND PUSH20 0xFFFFFFFFFFFFFFFFFFFFFFFFFFFFFFFFFFFFFFFF AND DUP2 MSTORE PUSH1 0x20 ADD SWAP1 DUP2 MSTORE PUSH1 0x20 ADD PUSH0 KECCAK256 SLOAD SWAP1 POP SWAP2 SWAP1 POP JUMP JUMPDEST PUSH1 0x60 PUSH1 0x1 DUP1 SLOAD PUSH2 0x68E SWAP1 PUSH2 0x1F43 JUMP JUMPDEST DUP1 PUSH1 0x1F ADD PUSH1 0x20 DUP1 SWAP2 DIV MUL PUSH1 0x20 ADD PUSH1 0x40 MLOAD SWAP1 DUP2 ADD PUSH1 0x40 MSTORE DUP1 SWAP3 SWAP2 SWAP1 DUP2 DUP2 MSTORE PUSH1 0x20 ADD DUP3 DUP1 SLOAD PUSH2 0x6BA SWAP1 PUSH2 0x1F43 JUMP JUMPDEST DUP1 ISZERO PUSH2 0x705 JUMPI DUP1 PUSH1 0x1F LT PUSH2 0x6DC JUMPI PUSH2 0x100 DUP1 DUP4 SLOAD DIV MUL DUP4 MSTORE SWAP2 PUSH1 0x20 ADD SWAP2 PUSH2 0x705 JUMP JUMPDEST DUP3 ADD SWAP2 SWAP1 PUSH0 MSTORE PUSH1 0x20 PUSH0 KECCAK256 SWAP1 JUMPDEST DUP2 SLOAD DUP2 MSTORE SWAP1 PUSH1 0x1 ADD SWAP1 PUSH1 0x20 ADD DUP1 DUP4 GT PUSH2 0x6E8 JUMPI DUP3 SWAP1 SUB PUSH1 0x1F AND DUP3 ADD SWAP2 JUMPDEST POP POP POP POP POP SWAP1 POP SWAP1 JUMP JUMPDEST PUSH2 0x721 PUSH2 0x71A PUSH2 0xBC8 JUMP JUMPDEST DUP4 DUP4 PUSH2 0xDEC JUMP JUMPDEST POP POP JUMP JUMPDEST PUSH2 0x730 DUP5 DUP5 DUP5 PUSH2 0x487 JUMP JUMPDEST PUSH2 0x73C DUP5 DUP5 DUP5 DUP5 PUSH2 0xF55 JUMP JUMPDEST POP POP POP POP JUMP JUMPDEST PUSH1 0x60 PUSH2 0x74D DUP3 PUSH2 0xB09 JUMP JUMPDEST POP PUSH0 PUSH1 0x6 PUSH0 DUP5 DUP2 MSTORE PUSH1 0x20 ADD SWAP1 DUP2 MSTORE PUSH1 0x20 ADD PUSH0 KECCAK256 DUP1 SLOAD PUSH2 0x76B SWAP1 PUSH2 0x1F43 JUMP JUMPDEST DUP1 PUSH1 0x1F ADD PUSH1 0x20 DUP1 SWAP2 DIV MUL PUSH1 0x20 ADD PUSH1 0x40 MLOAD SWAP1 DUP2 ADD PUSH1 0x40 MSTORE DUP1 SWAP3 SWAP2 SWAP1 DUP2 DUP2 MSTORE PUSH1 0x20 ADD DUP3 DUP1 SLOAD PUSH2 0x797 SWAP1 PUSH2 0x1F43 JUMP JUMPDEST DUP1 ISZERO PUSH2 0x7E2 JUMPI DUP1 PUSH1 0x1F LT PUSH2 0x7B9 JUMPI PUSH2 0x100 DUP1 DUP4 SLOAD DIV MUL DUP4 MSTORE SWAP2 PUSH1 0x20 ADD SWAP2 PUSH2 0x7E2 JUMP JUMPDEST DUP3 ADD SWAP2 SWAP1 PUSH0 MSTORE PUSH1 0x20 PUSH0 KECCAK256 SWAP1 JUMPDEST DUP2 SLOAD DUP2 MSTORE SWAP1 PUSH1 0x1 ADD SWAP1 PUSH1 0x20 ADD DUP1 DUP4 GT PUSH2 0x7C5 JUMPI DUP3 SWAP1 SUB PUSH1 0x1F AND DUP3 ADD SWAP2 JUMPDEST POP POP POP POP POP SWAP1 POP PUSH0 PUSH2 0x7F2 PUSH2 0x1107 JUMP JUMPDEST SWAP1 POP PUSH0 DUP2 MLOAD SUB PUSH2 0x806 JUMPI DUP2 SWAP3 POP POP POP PUSH2 0x848 JUMP JUMPDEST PUSH0 DUP3 MLOAD GT ISZERO PUSH2 0x83A JUMPI DUP1 DUP3 PUSH1 0x40 MLOAD PUSH1 0x20 ADD PUSH2 0x822 SWAP3 SWAP2 SWAP1 PUSH2 0x224E JUMP JUMPDEST PUSH1 0x40 MLOAD PUSH1 0x20 DUP2 DUP4 SUB SUB DUP2 MSTORE SWAP1 PUSH1 0x40 MSTORE SWAP3 POP POP POP PUSH2 0x848 JUMP JUMPDEST PUSH2 0x843 DUP5 PUSH2 0x1197 JUMP JUMPDEST SWAP3 POP POP POP JUMPDEST SWAP2 SWAP1 POP JUMP JUMPDEST PUSH0 PUSH1 0x5 PUSH0 DUP5 PUSH20 0xFFFFFFFFFFFFFFFFFFFFFFFFFFFFFFFFFFFFFFFF AND PUSH20 0xFFFFFFFFFFFFFFFFFFFFFFFFFFFFFFFFFFFFFFFF AND DUP2 MSTORE PUSH1 0x20 ADD SWAP1 DUP2 MSTORE PUSH1 0x20 ADD PUSH0 KECCAK256 PUSH0 DUP4 PUSH20 0xFFFFFFFFFFFFFFFFFFFFFFFFFFFFFFFFFFFFFFFF AND PUSH20 0xFFFFFFFFFFFFFFFFFFFFFFFFFFFFFFFFFFFFFFFF AND DUP2 MSTORE PUSH1 0x20 ADD SWAP1 DUP2 MSTORE PUSH1 0x20 ADD PUSH0 KECCAK256 PUSH0 SWAP1 SLOAD SWAP1 PUSH2 0x100 EXP SWAP1 DIV PUSH1 0xFF AND SWAP1 POP SWAP3 SWAP2 POP POP JUMP JUMPDEST PUSH0 PUSH32 0x80AC58CD00000000000000000000000000000000000000000000000000000000 PUSH28 0xFFFFFFFFFFFFFFFFFFFFFFFFFFFFFFFFFFFFFFFFFFFFFFFFFFFFFFFF NOT AND DUP3 PUSH28 0xFFFFFFFFFFFFFFFFFFFFFFFFFFFFFFFFFFFFFFFFFFFFFFFFFFFFFFFF NOT AND EQ DUP1 PUSH2 0x9A5 JUMPI POP PUSH32 0x5B5E139F00000000000000000000000000000000000000000000000000000000 PUSH28 0xFFFFFFFFFFFFFFFFFFFFFFFFFFFFFFFFFFFFFFFFFFFFFFFFFFFFFFFF NOT AND DUP3 PUSH28 0xFFFFFFFFFFFFFFFFFFFFFFFFFFFFFFFFFFFFFFFFFFFFFFFFFFFFFFFF NOT AND EQ JUMPDEST DUP1 PUSH2 0x9B5 JUMPI POP PUSH2 0x9B4 DUP3 PUSH2 0x11FD JUMP JUMPDEST JUMPDEST SWAP1 POP SWAP2 SWAP1 POP JUMP JUMPDEST PUSH0 PUSH20 0xFFFFFFFFFFFFFFFFFFFFFFFFFFFFFFFFFFFFFFFF AND DUP3 PUSH20 0xFFFFFFFFFFFFFFFFFFFFFFFFFFFFFFFFFFFFFFFF AND SUB PUSH2 0xA2C JUMPI PUSH0 PUSH1 0x40 MLOAD PUSH32 0x64A0AE9200000000000000000000000000000000000000000000000000000000 DUP2 MSTORE PUSH1 0x4 ADD PUSH2 0xA23 SWAP2 SWAP1 PUSH2 0x1BC5 JUMP JUMPDEST PUSH1 0x40 MLOAD DUP1 SWAP2 SUB SWAP1 REVERT JUMPDEST PUSH0 PUSH2 0xA38 DUP4 DUP4 PUSH0 PUSH2 0xBE1 JUMP JUMPDEST SWAP1 POP PUSH0 PUSH20 0xFFFFFFFFFFFFFFFFFFFFFFFFFFFFFFFFFFFFFFFF AND DUP2 PUSH20 0xFFFFFFFFFFFFFFFFFFFFFFFFFFFFFFFFFFFFFFFF AND EQ PUSH2 0xAAA JUMPI PUSH0 PUSH1 0x40 MLOAD PUSH32 0x73C6AC6E00000000000000000000000000000000000000000000000000000000 DUP2 MSTORE PUSH1 0x4 ADD PUSH2 0xAA1 SWAP2 SWAP1 PUSH2 0x1BC5 JUMP JUMPDEST PUSH1 0x40 MLOAD DUP1 SWAP2 SUB SWAP1 REVERT JUMPDEST POP POP POP JUMP JUMPDEST DUP1 PUSH1 0x6 PUSH0 DUP5 DUP2 MSTORE PUSH1 0x20 ADD SWAP1 DUP2 MSTORE PUSH1 0x20 ADD PUSH0 KECCAK256 SWAP1 DUP2 PUSH2 0xACD SWAP2 SWAP1 PUSH2 0x2145 JUMP JUMPDEST POP PUSH32 0xF8E1A15ABA9398E019F0B49DF1A4FDE98EE17AE345CB5F6B5E2C27F5033E8CE7 DUP3 PUSH1 0x40 MLOAD PUSH2 0xAFD SWAP2 SWAP1 PUSH2 0x1AC8 JUMP JUMPDEST PUSH1 0x40 MLOAD DUP1 SWAP2 SUB SWAP1 LOG1 POP POP JUMP JUMPDEST PUSH0 DUP1 PUSH2 0xB14 DUP4 PUSH2 0x1266 JUMP JUMPDEST SWAP1 POP PUSH0 PUSH20 0xFFFFFFFFFFFFFFFFFFFFFFFFFFFFFFFFFFFFFFFF AND DUP2 PUSH20 0xFFFFFFFFFFFFFFFFFFFFFFFFFFFFFFFFFFFFFFFF AND SUB PUSH2 0xB86 JUMPI DUP3 PUSH1 0x40 MLOAD PUSH32 0x7E27328900000000000000000000000000000000000000000000000000000000 DUP2 MSTORE PUSH1 0x4 ADD PUSH2 0xB7D SWAP2 SWAP1 PUSH2 0x1AC8 JUMP JUMPDEST PUSH1 0x40 MLOAD DUP1 SWAP2 SUB SWAP1 REVERT JUMPDEST DUP1 SWAP2 POP POP SWAP2 SWAP1 POP JUMP JUMPDEST PUSH0 PUSH1 0x4 PUSH0 DUP4 DUP2 MSTORE PUSH1 0x20 ADD SWAP1 DUP2 MSTORE PUSH1 0x20 ADD PUSH0 KECCAK256 PUSH0 SWAP1 SLOAD SWAP1 PUSH2 0x100 EXP SWAP1 DIV PUSH20 0xFFFFFFFFFFFFFFFFFFFFFFFFFFFFFFFFFFFFFFFF AND SWAP1 POP SWAP2 SWAP1 POP JUMP JUMPDEST PUSH0 CALLER SWAP1 POP SWAP1 JUMP JUMPDEST PUSH2 0xBDC DUP4 DUP4 DUP4 PUSH1 0x1 PUSH2 0x129F JUMP JUMPDEST POP POP POP JUMP JUMPDEST PUSH0 DUP1 PUSH2 0xBEC DUP5 PUSH2 0x1266 JUMP JUMPDEST SWAP1 POP PUSH0 PUSH20 0xFFFFFFFFFFFFFFFFFFFFFFFFFFFFFFFFFFFFFFFF AND DUP4 PUSH20 0xFFFFFFFFFFFFFFFFFFFFFFFFFFFFFFFFFFFFFFFF AND EQ PUSH2 0xC2D JUMPI PUSH2 0xC2C DUP2 DUP5 DUP7 PUSH2 0x145E JUMP JUMPDEST JUMPDEST PUSH0 PUSH20 0xFFFFFFFFFFFFFFFFFFFFFFFFFFFFFFFFFFFFFFFF AND DUP2 PUSH20 0xFFFFFFFFFFFFFFFFFFFFFFFFFFFFFFFFFFFFFFFF AND EQ PUSH2 0xCB8 JUMPI PUSH2 0xC6C PUSH0 DUP6 PUSH0 DUP1 PUSH2 0x129F JUMP JUMPDEST PUSH1 0x1 PUSH1 0x3 PUSH0 DUP4 PUSH20 0xFFFFFFFFFFFFFFFFFFFFFFFFFFFFFFFFFFFFFFFF AND PUSH20 0xFFFFFFFFFFFFFFFFFFFFFFFFFFFFFFFFFFFFFFFF AND DUP2 MSTORE PUSH1 0x20 ADD SWAP1 DUP2 MSTORE PUSH1 0x20 ADD PUSH0 KECCAK256 PUSH0 DUP3 DUP3 SLOAD SUB SWAP3 POP POP DUP2 SWAP1 SSTORE POP JUMPDEST PUSH0 PUSH20 0xFFFFFFFFFFFFFFFFFFFFFFFFFFFFFFFFFFFFFFFF AND DUP6 PUSH20 0xFFFFFFFFFFFFFFFFFFFFFFFFFFFFFFFFFFFFFFFF AND EQ PUSH2 0xD37 JUMPI PUSH1 0x1 PUSH1 0x3 PUSH0 DUP8 PUSH20 0xFFFFFFFFFFFFFFFFFFFFFFFFFFFFFFFFFFFFFFFF AND PUSH20 0xFFFFFFFFFFFFFFFFFFFFFFFFFFFFFFFFFFFFFFFF AND DUP2 MSTORE PUSH1 0x20 ADD SWAP1 DUP2 MSTORE PUSH1 0x20 ADD PUSH0 KECCAK256 PUSH0 DUP3 DUP3 SLOAD ADD SWAP3 POP POP DUP2 SWAP1 SSTORE POP JUMPDEST DUP5 PUSH1 0x2 PUSH0 DUP7 DUP2 MSTORE PUSH1 0x20 ADD SWAP1 DUP2 MSTORE PUSH1 0x20 ADD PUSH0 KECCAK256 PUSH0 PUSH2 0x100 EXP DUP2 SLOAD DUP2 PUSH20 0xFFFFFFFFFFFFFFFFFFFFFFFFFFFFFFFFFFFFFFFF MUL NOT AND SWAP1 DUP4 PUSH20 0xFFFFFFFFFFFFFFFFFFFFFFFFFFFFFFFFFFFFFFFF AND MUL OR SWAP1 SSTORE POP DUP4 DUP6 PUSH20 0xFFFFFFFFFFFFFFFFFFFFFFFFFFFFFFFFFFFFFFFF AND DUP3 PUSH20 0xFFFFFFFFFFFFFFFFFFFFFFFFFFFFFFFFFFFFFFFF AND PUSH32 0xDDF252AD1BE2C89B69C2B068FC378DAA952BA7F163C4A11628F55A4DF523B3EF PUSH1 0x40 MLOAD PUSH1 0x40 MLOAD DUP1 SWAP2 SUB SWAP1 LOG4 DUP1 SWAP2 POP POP SWAP4 SWAP3 POP POP POP JUMP JUMPDEST PUSH0 PUSH20 0xFFFFFFFFFFFFFFFFFFFFFFFFFFFFFFFFFFFFFFFF AND DUP3 PUSH20 0xFFFFFFFFFFFFFFFFFFFFFFFFFFFFFFFFFFFFFFFF AND SUB PUSH2 0xE5C JUMPI DUP2 PUSH1 0x40 MLOAD PUSH32 0x5B08BA1800000000000000000000000000000000000000000000000000000000 DUP2 MSTORE PUSH1 0x4 ADD PUSH2 0xE53 SWAP2 SWAP1 PUSH2 0x1BC5 JUMP JUMPDEST PUSH1 0x40 MLOAD DUP1 SWAP2 SUB SWAP1 REVERT JUMPDEST DUP1 PUSH1 0x5 PUSH0 DUP6 PUSH20 0xFFFFFFFFFFFFFFFFFFFFFFFFFFFFFFFFFFFFFFFF AND PUSH20 0xFFFFFFFFFFFFFFFFFFFFFFFFFFFFFFFFFFFFFFFF AND DUP2 MSTORE PUSH1 0x20 ADD SWAP1 DUP2 MSTORE PUSH1 0x20 ADD PUSH0 KECCAK256 PUSH0 DUP5 PUSH20 0xFFFFFFFFFFFFFFFFFFFFFFFFFFFFFFFFFFFFFFFF AND PUSH20 0xFFFFFFFFFFFFFFFFFFFFFFFFFFFFFFFFFFFFFFFF AND DUP2 MSTORE PUSH1 0x20 ADD SWAP1 DUP2 MSTORE PUSH1 0x20 ADD PUSH0 KECCAK256 PUSH0 PUSH2 0x100 EXP DUP2 SLOAD DUP2 PUSH1 0xFF MUL NOT AND SWAP1 DUP4 ISZERO ISZERO MUL OR SWAP1 SSTORE POP DUP2 PUSH20 0xFFFFFFFFFFFFFFFFFFFFFFFFFFFFFFFFFFFFFFFF AND DUP4 PUSH20 0xFFFFFFFFFFFFFFFFFFFFFFFFFFFFFFFFFFFFFFFF AND PUSH32 0x17307EAB39AB6107E8899845AD3D59BD9653F200F220920489CA2B5937696C31 DUP4 PUSH1 0x40 MLOAD PUSH2 0xF48 SWAP2 SWAP1 PUSH2 0x18A7 JUMP JUMPDEST PUSH1 0x40 MLOAD DUP1 SWAP2 SUB SWAP1 LOG3 POP POP POP JUMP JUMPDEST PUSH0 DUP4 PUSH20 0xFFFFFFFFFFFFFFFFFFFFFFFFFFFFFFFFFFFFFFFF AND EXTCODESIZE GT ISZERO PUSH2 0x1101 JUMPI DUP3 PUSH20 0xFFFFFFFFFFFFFFFFFFFFFFFFFFFFFFFFFFFFFFFF AND PUSH4 0x150B7A02 PUSH2 0xF98 PUSH2 0xBC8 JUMP JUMPDEST DUP7 DUP6 DUP6 PUSH1 0x40 MLOAD DUP6 PUSH4 0xFFFFFFFF AND PUSH1 0xE0 SHL DUP2 MSTORE PUSH1 0x4 ADD PUSH2 0xFBA SWAP5 SWAP4 SWAP3 SWAP2 SWAP1 PUSH2 0x22C3 JUMP JUMPDEST PUSH1 0x20 PUSH1 0x40 MLOAD DUP1 DUP4 SUB DUP2 PUSH0 DUP8 GAS CALL SWAP3 POP POP POP DUP1 ISZERO PUSH2 0xFF5 JUMPI POP PUSH1 0x40 MLOAD RETURNDATASIZE PUSH1 0x1F NOT PUSH1 0x1F DUP3 ADD AND DUP3 ADD DUP1 PUSH1 0x40 MSTORE POP DUP2 ADD SWAP1 PUSH2 0xFF2 SWAP2 SWAP1 PUSH2 0x2321 JUMP JUMPDEST PUSH1 0x1 JUMPDEST PUSH2 0x1076 JUMPI RETURNDATASIZE DUP1 PUSH0 DUP2 EQ PUSH2 0x1023 JUMPI PUSH1 0x40 MLOAD SWAP2 POP PUSH1 0x1F NOT PUSH1 0x3F RETURNDATASIZE ADD AND DUP3 ADD PUSH1 0x40 MSTORE RETURNDATASIZE DUP3 MSTORE RETURNDATASIZE PUSH0 PUSH1 0x20 DUP5 ADD RETURNDATACOPY PUSH2 0x1028 JUMP JUMPDEST PUSH1 0x60 SWAP2 POP JUMPDEST POP PUSH0 DUP2 MLOAD SUB PUSH2 0x106E JUMPI DUP4 PUSH1 0x40 MLOAD PUSH32 0x64A0AE9200000000000000000000000000000000000000000000000000000000 DUP2 MSTORE PUSH1 0x4 ADD PUSH2 0x1065 SWAP2 SWAP1 PUSH2 0x1BC5 JUMP JUMPDEST PUSH1 0x40 MLOAD DUP1 SWAP2 SUB SWAP1 REVERT JUMPDEST DUP1 MLOAD DUP2 PUSH1 0x20 ADD REVERT JUMPDEST PUSH4 0x150B7A02 PUSH1 0xE0 SHL PUSH28 0xFFFFFFFFFFFFFFFFFFFFFFFFFFFFFFFFFFFFFFFFFFFFFFFFFFFFFFFF NOT AND DUP2 PUSH28 0xFFFFFFFFFFFFFFFFFFFFFFFFFFFFFFFFFFFFFFFFFFFFFFFFFFFFFFFF NOT AND EQ PUSH2 0x10FF JUMPI DUP4 PUSH1 0x40 MLOAD PUSH32 0x64A0AE9200000000000000000000000000000000000000000000000000000000 DUP2 MSTORE PUSH1 0x4 ADD PUSH2 0x10F6 SWAP2 SWAP1 PUSH2 0x1BC5 JUMP JUMPDEST PUSH1 0x40 MLOAD DUP1 SWAP2 SUB SWAP1 REVERT JUMPDEST POP JUMPDEST POP POP POP POP JUMP JUMPDEST PUSH1 0x60 PUSH1 0x8 DUP1 SLOAD PUSH2 0x1116 SWAP1 PUSH2 0x1F43 JUMP JUMPDEST DUP1 PUSH1 0x1F ADD PUSH1 0x20 DUP1 SWAP2 DIV MUL PUSH1 0x20 ADD PUSH1 0x40 MLOAD SWAP1 DUP2 ADD PUSH1 0x40 MSTORE DUP1 SWAP3 SWAP2 SWAP1 DUP2 DUP2 MSTORE PUSH1 0x20 ADD DUP3 DUP1 SLOAD PUSH2 0x1142 SWAP1 PUSH2 0x1F43 JUMP JUMPDEST DUP1 ISZERO PUSH2 0x118D JUMPI DUP1 PUSH1 0x1F LT PUSH2 0x1164 JUMPI PUSH2 0x100 DUP1 DUP4 SLOAD DIV MUL DUP4 MSTORE SWAP2 PUSH1 0x20 ADD SWAP2 PUSH2 0x118D JUMP JUMPDEST DUP3 ADD SWAP2 SWAP1 PUSH0 MSTORE PUSH1 0x20 PUSH0 KECCAK256 SWAP1 JUMPDEST DUP2 SLOAD DUP2 MSTORE SWAP1 PUSH1 0x1 ADD SWAP1 PUSH1 0x20 ADD DUP1 DUP4 GT PUSH2 0x1170 JUMPI DUP3 SWAP1 SUB PUSH1 0x1F AND DUP3 ADD SWAP2 JUMPDEST POP POP POP POP POP SWAP1 POP SWAP1 JUMP JUMPDEST PUSH1 0x60 PUSH2 0x11A2 DUP3 PUSH2 0xB09 JUMP JUMPDEST POP PUSH0 PUSH2 0x11AC PUSH2 0x1107 JUMP JUMPDEST SWAP1 POP PUSH0 DUP2 MLOAD GT PUSH2 0x11CA JUMPI PUSH1 0x40 MLOAD DUP1 PUSH1 0x20 ADD PUSH1 0x40 MSTORE DUP1 PUSH0 DUP2 MSTORE POP PUSH2 0x11F5 JUMP JUMPDEST DUP1 PUSH2 0x11D4 DUP5 PUSH2 0x1521 JUMP JUMPDEST PUSH1 0x40 MLOAD PUSH1 0x20 ADD PUSH2 0x11E5 SWAP3 SWAP2 SWAP1 PUSH2 0x224E JUMP JUMPDEST PUSH1 0x40 MLOAD PUSH1 0x20 DUP2 DUP4 SUB SUB DUP2 MSTORE SWAP1 PUSH1 0x40 MSTORE JUMPDEST SWAP2 POP POP SWAP2 SWAP1 POP JUMP JUMPDEST PUSH0 PUSH32 0x1FFC9A700000000000000000000000000000000000000000000000000000000 PUSH28 0xFFFFFFFFFFFFFFFFFFFFFFFFFFFFFFFFFFFFFFFFFFFFFFFFFFFFFFFF NOT AND DUP3 PUSH28 0xFFFFFFFFFFFFFFFFFFFFFFFFFFFFFFFFFFFFFFFFFFFFFFFFFFFFFFFF NOT AND EQ SWAP1 POP SWAP2 SWAP1 POP JUMP JUMPDEST PUSH0 PUSH1 0x2 PUSH0 DUP4 DUP2 MSTORE PUSH1 0x20 ADD SWAP1 DUP2 MSTORE PUSH1 0x20 ADD PUSH0 KECCAK256 PUSH0 SWAP1 SLOAD SWAP1 PUSH2 0x100 EXP SWAP1 DIV PUSH20 0xFFFFFFFFFFFFFFFFFFFFFFFFFFFFFFFFFFFFFFFF AND SWAP1 POP SWAP2 SWAP1 POP JUMP JUMPDEST DUP1 DUP1 PUSH2 0x12D7 JUMPI POP PUSH0 PUSH20 0xFFFFFFFFFFFFFFFFFFFFFFFFFFFFFFFFFFFFFFFF AND DUP3 PUSH20 0xFFFFFFFFFFFFFFFFFFFFFFFFFFFFFFFFFFFFFFFF AND EQ ISZERO JUMPDEST ISZERO PUSH2 0x1409 JUMPI PUSH0 PUSH2 0x12E6 DUP5 PUSH2 0xB09 JUMP JUMPDEST SWAP1 POP PUSH0 PUSH20 0xFFFFFFFFFFFFFFFFFFFFFFFFFFFFFFFFFFFFFFFF AND DUP4 PUSH20 0xFFFFFFFFFFFFFFFFFFFFFFFFFFFFFFFFFFFFFFFF AND EQ ISZERO DUP1 ISZERO PUSH2 0x1350 JUMPI POP DUP3 PUSH20 0xFFFFFFFFFFFFFFFFFFFFFFFFFFFFFFFFFFFFFFFF AND DUP2 PUSH20 0xFFFFFFFFFFFFFFFFFFFFFFFFFFFFFFFFFFFFFFFF AND EQ ISZERO JUMPDEST DUP1 ISZERO PUSH2 0x1363 JUMPI POP PUSH2 0x1361 DUP2 DUP5 PUSH2 0x84D JUMP JUMPDEST ISZERO JUMPDEST ISZERO PUSH2 0x13A5 JUMPI DUP3 PUSH1 0x40 MLOAD PUSH32 0xA9FBF51F00000000000000000000000000000000000000000000000000000000 DUP2 MSTORE PUSH1 0x4 ADD PUSH2 0x139C SWAP2 SWAP1 PUSH2 0x1BC5 JUMP JUMPDEST PUSH1 0x40 MLOAD DUP1 SWAP2 SUB SWAP1 REVERT JUMPDEST DUP2 ISZERO PUSH2 0x1407 JUMPI DUP4 DUP6 PUSH20 0xFFFFFFFFFFFFFFFFFFFFFFFFFFFFFFFFFFFFFFFF AND DUP3 PUSH20 0xFFFFFFFFFFFFFFFFFFFFFFFFFFFFFFFFFFFFFFFF AND PUSH32 0x8C5BE1E5EBEC7D5BD14F71427D1E84F3DD0314C0F7B2291E5B200AC8C7C3B925 PUSH1 0x40 MLOAD PUSH1 0x40 MLOAD DUP1 SWAP2 SUB SWAP1 LOG4 JUMPDEST POP JUMPDEST DUP4 PUSH1 0x4 PUSH0 DUP6 DUP2 MSTORE PUSH1 0x20 ADD SWAP1 DUP2 MSTORE PUSH1 0x20 ADD PUSH0 KECCAK256 PUSH0 PUSH2 0x100 EXP DUP2 SLOAD DUP2 PUSH20 0xFFFFFFFFFFFFFFFFFFFFFFFFFFFFFFFFFFFFFFFF MUL NOT AND SWAP1 DUP4 PUSH20 0xFFFFFFFFFFFFFFFFFFFFFFFFFFFFFFFFFFFFFFFF AND MUL OR SWAP1 SSTORE POP POP POP POP POP JUMP JUMPDEST PUSH2 0x1469 DUP4 DUP4 DUP4 PUSH2 0x15EB JUMP JUMPDEST PUSH2 0x151C JUMPI PUSH0 PUSH20 0xFFFFFFFFFFFFFFFFFFFFFFFFFFFFFFFFFFFFFFFF AND DUP4 PUSH20 0xFFFFFFFFFFFFFFFFFFFFFFFFFFFFFFFFFFFFFFFF AND SUB PUSH2 0x14DD JUMPI DUP1 PUSH1 0x40 MLOAD PUSH32 0x7E27328900000000000000000000000000000000000000000000000000000000 DUP2 MSTORE PUSH1 0x4 ADD PUSH2 0x14D4 SWAP2 SWAP1 PUSH2 0x1AC8 JUMP JUMPDEST PUSH1 0x40 MLOAD DUP1 SWAP2 SUB SWAP1 REVERT JUMPDEST DUP2 DUP2 PUSH1 0x40 MLOAD PUSH32 0x177E802F00000000000000000000000000000000000000000000000000000000 DUP2 MSTORE PUSH1 0x4 ADD PUSH2 0x1513 SWAP3 SWAP2 SWAP1 PUSH2 0x234C JUMP JUMPDEST PUSH1 0x40 MLOAD DUP1 SWAP2 SUB SWAP1 REVERT JUMPDEST POP POP POP JUMP JUMPDEST PUSH1 0x60 PUSH0 PUSH1 0x1 PUSH2 0x152F DUP5 PUSH2 0x16AB JUMP JUMPDEST ADD SWAP1 POP PUSH0 DUP2 PUSH8 0xFFFFFFFFFFFFFFFF DUP2 GT ISZERO PUSH2 0x154D JUMPI PUSH2 0x154C PUSH2 0x18D8 JUMP JUMPDEST JUMPDEST PUSH1 0x40 MLOAD SWAP1 DUP1 DUP3 MSTORE DUP1 PUSH1 0x1F ADD PUSH1 0x1F NOT AND PUSH1 0x20 ADD DUP3 ADD PUSH1 0x40 MSTORE DUP1 ISZERO PUSH2 0x157F JUMPI DUP2 PUSH1 0x20 ADD PUSH1 0x1 DUP3 MUL DUP1 CALLDATASIZE DUP4 CALLDATACOPY DUP1 DUP3 ADD SWAP2 POP POP SWAP1 POP JUMPDEST POP SWAP1 POP PUSH0 DUP3 PUSH1 0x20 ADD DUP3 ADD SWAP1 POP JUMPDEST PUSH1 0x1 ISZERO PUSH2 0x15E0 JUMPI DUP1 DUP1 PUSH1 0x1 SWAP1 SUB SWAP2 POP POP PUSH32 0x3031323334353637383961626364656600000000000000000000000000000000 PUSH1 0xA DUP7 MOD BYTE DUP2 MSTORE8 PUSH1 0xA DUP6 DUP2 PUSH2 0x15D5 JUMPI PUSH2 0x15D4 PUSH2 0x2373 JUMP JUMPDEST JUMPDEST DIV SWAP5 POP PUSH0 DUP6 SUB PUSH2 0x158C JUMPI JUMPDEST DUP2 SWAP4 POP POP POP POP SWAP2 SWAP1 POP JUMP JUMPDEST PUSH0 DUP1 PUSH20 0xFFFFFFFFFFFFFFFFFFFFFFFFFFFFFFFFFFFFFFFF AND DUP4 PUSH20 0xFFFFFFFFFFFFFFFFFFFFFFFFFFFFFFFFFFFFFFFF AND EQ ISZERO DUP1 ISZERO PUSH2 0x16A2 JUMPI POP DUP3 PUSH20 0xFFFFFFFFFFFFFFFFFFFFFFFFFFFFFFFFFFFFFFFF AND DUP5 PUSH20 0xFFFFFFFFFFFFFFFFFFFFFFFFFFFFFFFFFFFFFFFF AND EQ DUP1 PUSH2 0x1663 JUMPI POP PUSH2 0x1662 DUP5 DUP5 PUSH2 0x84D JUMP JUMPDEST JUMPDEST DUP1 PUSH2 0x16A1 JUMPI POP DUP3 PUSH20 0xFFFFFFFFFFFFFFFFFFFFFFFFFFFFFFFFFFFFFFFF AND PUSH2 0x1689 DUP4 PUSH2 0xB8F JUMP JUMPDEST PUSH20 0xFFFFFFFFFFFFFFFFFFFFFFFFFFFFFFFFFFFFFFFF AND EQ JUMPDEST JUMPDEST SWAP1 POP SWAP4 SWAP3 POP POP POP JUMP JUMPDEST PUSH0 DUP1 PUSH0 SWAP1 POP PUSH27 0x184F03E93FF9F4DAA797ED6E38ED64BF6A1F010000000000000000 DUP4 LT PUSH2 0x1707 JUMPI PUSH27 0x184F03E93FF9F4DAA797ED6E38ED64BF6A1F010000000000000000 DUP4 DUP2 PUSH2 0x16FD JUMPI PUSH2 0x16FC PUSH2 0x2373 JUMP JUMPDEST JUMPDEST DIV SWAP3 POP PUSH1 0x40 DUP2 ADD SWAP1 POP JUMPDEST PUSH14 0x4EE2D6D415B85ACEF8100000000 DUP4 LT PUSH2 0x1744 JUMPI PUSH14 0x4EE2D6D415B85ACEF8100000000 DUP4 DUP2 PUSH2 0x173A JUMPI PUSH2 0x1739 PUSH2 0x2373 JUMP JUMPDEST JUMPDEST DIV SWAP3 POP PUSH1 0x20 DUP2 ADD SWAP1 POP JUMPDEST PUSH7 0x2386F26FC10000 DUP4 LT PUSH2 0x1773 JUMPI PUSH7 0x2386F26FC10000 DUP4 DUP2 PUSH2 0x1769 JUMPI PUSH2 0x1768 PUSH2 0x2373 JUMP JUMPDEST JUMPDEST DIV SWAP3 POP PUSH1 0x10 DUP2 ADD SWAP1 POP JUMPDEST PUSH4 0x5F5E100 DUP4 LT PUSH2 0x179C JUMPI PUSH4 0x5F5E100 DUP4 DUP2 PUSH2 0x1792 JUMPI PUSH2 0x1791 PUSH2 0x2373 JUMP JUMPDEST JUMPDEST DIV SWAP3 POP PUSH1 0x8 DUP2 ADD SWAP1 POP JUMPDEST PUSH2 0x2710 DUP4 LT PUSH2 0x17C1 JUMPI PUSH2 0x2710 DUP4 DUP2 PUSH2 0x17B7 JUMPI PUSH2 0x17B6 PUSH2 0x2373 JUMP JUMPDEST JUMPDEST DIV SWAP3 POP PUSH1 0x4 DUP2 ADD SWAP1 POP JUMPDEST PUSH1 0x64 DUP4 LT PUSH2 0x17E4 JUMPI PUSH1 0x64 DUP4 DUP2 PUSH2 0x17DA JUMPI PUSH2 0x17D9 PUSH2 0x2373 JUMP JUMPDEST JUMPDEST DIV SWAP3 POP PUSH1 0x2 DUP2 ADD SWAP1 POP JUMPDEST PUSH1 0xA DUP4 LT PUSH2 0x17F3 JUMPI PUSH1 0x1 DUP2 ADD SWAP1 POP JUMPDEST DUP1 SWAP2 POP POP SWAP2 SWAP1 POP JUMP JUMPDEST PUSH0 PUSH1 0x40 MLOAD SWAP1 POP SWAP1 JUMP JUMPDEST PUSH0 DUP1 REVERT JUMPDEST PUSH0 DUP1 REVERT JUMPDEST PUSH0 PUSH32 0xFFFFFFFF00000000000000000000000000000000000000000000000000000000 DUP3 AND SWAP1 POP SWAP2 SWAP1 POP JUMP JUMPDEST PUSH2 0x1841 DUP2 PUSH2 0x180D JUMP JUMPDEST DUP2 EQ PUSH2 0x184B JUMPI PUSH0 DUP1 REVERT JUMPDEST POP JUMP JUMPDEST PUSH0 DUP2 CALLDATALOAD SWAP1 POP PUSH2 0x185C DUP2 PUSH2 0x1838 JUMP JUMPDEST SWAP3 SWAP2 POP POP JUMP JUMPDEST PUSH0 PUSH1 0x20 DUP3 DUP5 SUB SLT ISZERO PUSH2 0x1877 JUMPI PUSH2 0x1876 PUSH2 0x1805 JUMP JUMPDEST JUMPDEST PUSH0 PUSH2 0x1884 DUP5 DUP3 DUP6 ADD PUSH2 0x184E JUMP JUMPDEST SWAP2 POP POP SWAP3 SWAP2 POP POP JUMP JUMPDEST PUSH0 DUP2 ISZERO ISZERO SWAP1 POP SWAP2 SWAP1 POP JUMP JUMPDEST PUSH2 0x18A1 DUP2 PUSH2 0x188D JUMP JUMPDEST DUP3 MSTORE POP POP JUMP JUMPDEST PUSH0 PUSH1 0x20 DUP3 ADD SWAP1 POP PUSH2 0x18BA PUSH0 DUP4 ADD DUP5 PUSH2 0x1898 JUMP JUMPDEST SWAP3 SWAP2 POP POP JUMP JUMPDEST PUSH0 DUP1 REVERT JUMPDEST PUSH0 DUP1 REVERT JUMPDEST PUSH0 PUSH1 0x1F NOT PUSH1 0x1F DUP4 ADD AND SWAP1 POP SWAP2 SWAP1 POP JUMP JUMPDEST PUSH32 0x4E487B7100000000000000000000000000000000000000000000000000000000 PUSH0 MSTORE PUSH1 0x41 PUSH1 0x4 MSTORE PUSH1 0x24 PUSH0 REVERT JUMPDEST PUSH2 0x190E DUP3 PUSH2 0x18C8 JUMP JUMPDEST DUP2 ADD DUP2 DUP2 LT PUSH8 0xFFFFFFFFFFFFFFFF DUP3 GT OR ISZERO PUSH2 0x192D JUMPI PUSH2 0x192C PUSH2 0x18D8 JUMP JUMPDEST JUMPDEST DUP1 PUSH1 0x40 MSTORE POP POP POP JUMP JUMPDEST PUSH0 PUSH2 0x193F PUSH2 0x17FC JUMP JUMPDEST SWAP1 POP PUSH2 0x194B DUP3 DUP3 PUSH2 0x1905 JUMP JUMPDEST SWAP2 SWAP1 POP JUMP JUMPDEST PUSH0 PUSH8 0xFFFFFFFFFFFFFFFF DUP3 GT ISZERO PUSH2 0x196A JUMPI PUSH2 0x1969 PUSH2 0x18D8 JUMP JUMPDEST JUMPDEST PUSH2 0x1973 DUP3 PUSH2 0x18C8 JUMP JUMPDEST SWAP1 POP PUSH1 0x20 DUP2 ADD SWAP1 POP SWAP2 SWAP1 POP JUMP JUMPDEST DUP3 DUP2 DUP4 CALLDATACOPY PUSH0 DUP4 DUP4 ADD MSTORE POP POP POP JUMP JUMPDEST PUSH0 PUSH2 0x19A0 PUSH2 0x199B DUP5 PUSH2 0x1950 JUMP JUMPDEST PUSH2 0x1936 JUMP JUMPDEST SWAP1 POP DUP3 DUP2 MSTORE PUSH1 0x20 DUP2 ADD DUP5 DUP5 DUP5 ADD GT ISZERO PUSH2 0x19BC JUMPI PUSH2 0x19BB PUSH2 0x18C4 JUMP JUMPDEST JUMPDEST PUSH2 0x19C7 DUP5 DUP3 DUP6 PUSH2 0x1980 JUMP JUMPDEST POP SWAP4 SWAP3 POP POP POP JUMP JUMPDEST PUSH0 DUP3 PUSH1 0x1F DUP4 ADD SLT PUSH2 0x19E3 JUMPI PUSH2 0x19E2 PUSH2 0x18C0 JUMP JUMPDEST JUMPDEST DUP2 CALLDATALOAD PUSH2 0x19F3 DUP5 DUP3 PUSH1 0x20 DUP7 ADD PUSH2 0x198E JUMP JUMPDEST SWAP2 POP POP SWAP3 SWAP2 POP POP JUMP JUMPDEST PUSH0 PUSH20 0xFFFFFFFFFFFFFFFFFFFFFFFFFFFFFFFFFFFFFFFF DUP3 AND SWAP1 POP SWAP2 SWAP1 POP JUMP JUMPDEST PUSH0 PUSH2 0x1A25 DUP3 PUSH2 0x19FC JUMP JUMPDEST SWAP1 POP SWAP2 SWAP1 POP JUMP JUMPDEST PUSH2 0x1A35 DUP2 PUSH2 0x1A1B JUMP JUMPDEST DUP2 EQ PUSH2 0x1A3F JUMPI PUSH0 DUP1 REVERT JUMPDEST POP JUMP JUMPDEST PUSH0 DUP2 CALLDATALOAD SWAP1 POP PUSH2 0x1A50 DUP2 PUSH2 0x1A2C JUMP JUMPDEST SWAP3 SWAP2 POP POP JUMP JUMPDEST PUSH0 DUP1 PUSH1 0x40 DUP4 DUP6 SUB SLT ISZERO PUSH2 0x1A6C JUMPI PUSH2 0x1A6B PUSH2 0x1805 JUMP JUMPDEST JUMPDEST PUSH0 DUP4 ADD CALLDATALOAD PUSH8 0xFFFFFFFFFFFFFFFF DUP2 GT ISZERO PUSH2 0x1A89 JUMPI PUSH2 0x1A88 PUSH2 0x1809 JUMP JUMPDEST JUMPDEST PUSH2 0x1A95 DUP6 DUP3 DUP7 ADD PUSH2 0x19CF JUMP JUMPDEST SWAP3 POP POP PUSH1 0x20 PUSH2 0x1AA6 DUP6 DUP3 DUP7 ADD PUSH2 0x1A42 JUMP JUMPDEST SWAP2 POP POP SWAP3 POP SWAP3 SWAP1 POP JUMP JUMPDEST PUSH0 DUP2 SWAP1 POP SWAP2 SWAP1 POP JUMP JUMPDEST PUSH2 0x1AC2 DUP2 PUSH2 0x1AB0 JUMP JUMPDEST DUP3 MSTORE POP POP JUMP JUMPDEST PUSH0 PUSH1 0x20 DUP3 ADD SWAP1 POP PUSH2 0x1ADB PUSH0 DUP4 ADD DUP5 PUSH2 0x1AB9 JUMP JUMPDEST SWAP3 SWAP2 POP POP JUMP JUMPDEST PUSH0 DUP2 MLOAD SWAP1 POP SWAP2 SWAP1 POP JUMP JUMPDEST PUSH0 DUP3 DUP3 MSTORE PUSH1 0x20 DUP3 ADD SWAP1 POP SWAP3 SWAP2 POP POP JUMP JUMPDEST DUP3 DUP2 DUP4 MCOPY PUSH0 DUP4 DUP4 ADD MSTORE POP POP POP JUMP JUMPDEST PUSH0 PUSH2 0x1B13 DUP3 PUSH2 0x1AE1 JUMP JUMPDEST PUSH2 0x1B1D DUP2 DUP6 PUSH2 0x1AEB JUMP JUMPDEST SWAP4 POP PUSH2 0x1B2D DUP2 DUP6 PUSH1 0x20 DUP7 ADD PUSH2 0x1AFB JUMP JUMPDEST PUSH2 0x1B36 DUP2 PUSH2 0x18C8 JUMP JUMPDEST DUP5 ADD SWAP2 POP POP SWAP3 SWAP2 POP POP JUMP JUMPDEST PUSH0 PUSH1 0x20 DUP3 ADD SWAP1 POP DUP2 DUP2 SUB PUSH0 DUP4 ADD MSTORE PUSH2 0x1B59 DUP2 DUP5 PUSH2 0x1B09 JUMP JUMPDEST SWAP1 POP SWAP3 SWAP2 POP POP JUMP JUMPDEST PUSH2 0x1B6A DUP2 PUSH2 0x1AB0 JUMP JUMPDEST DUP2 EQ PUSH2 0x1B74 JUMPI PUSH0 DUP1 REVERT JUMPDEST POP JUMP JUMPDEST PUSH0 DUP2 CALLDATALOAD SWAP1 POP PUSH2 0x1B85 DUP2 PUSH2 0x1B61 JUMP JUMPDEST SWAP3 SWAP2 POP POP JUMP JUMPDEST PUSH0 PUSH1 0x20 DUP3 DUP5 SUB SLT ISZERO PUSH2 0x1BA0 JUMPI PUSH2 0x1B9F PUSH2 0x1805 JUMP JUMPDEST JUMPDEST PUSH0 PUSH2 0x1BAD DUP5 DUP3 DUP6 ADD PUSH2 0x1B77 JUMP JUMPDEST SWAP2 POP POP SWAP3 SWAP2 POP POP JUMP JUMPDEST PUSH2 0x1BBF DUP2 PUSH2 0x1A1B JUMP JUMPDEST DUP3 MSTORE POP POP JUMP JUMPDEST PUSH0 PUSH1 0x20 DUP3 ADD SWAP1 POP PUSH2 0x1BD8 PUSH0 DUP4 ADD DUP5 PUSH2 0x1BB6 JUMP JUMPDEST SWAP3 SWAP2 POP POP JUMP JUMPDEST PUSH0 DUP1 PUSH1 0x40 DUP4 DUP6 SUB SLT ISZERO PUSH2 0x1BF4 JUMPI PUSH2 0x1BF3 PUSH2 0x1805 JUMP JUMPDEST JUMPDEST PUSH0 PUSH2 0x1C01 DUP6 DUP3 DUP7 ADD PUSH2 0x1A42 JUMP JUMPDEST SWAP3 POP POP PUSH1 0x20 PUSH2 0x1C12 DUP6 DUP3 DUP7 ADD PUSH2 0x1B77 JUMP JUMPDEST SWAP2 POP POP SWAP3 POP SWAP3 SWAP1 POP JUMP JUMPDEST PUSH0 DUP1 PUSH0 PUSH1 0x60 DUP5 DUP7 SUB SLT ISZERO PUSH2 0x1C33 JUMPI PUSH2 0x1C32 PUSH2 0x1805 JUMP JUMPDEST JUMPDEST PUSH0 PUSH2 0x1C40 DUP7 DUP3 DUP8 ADD PUSH2 0x1A42 JUMP JUMPDEST SWAP4 POP POP PUSH1 0x20 PUSH2 0x1C51 DUP7 DUP3 DUP8 ADD PUSH2 0x1A42 JUMP JUMPDEST SWAP3 POP POP PUSH1 0x40 PUSH2 0x1C62 DUP7 DUP3 DUP8 ADD PUSH2 0x1B77 JUMP JUMPDEST SWAP2 POP POP SWAP3 POP SWAP3 POP SWAP3 JUMP JUMPDEST PUSH0 PUSH1 0x20 DUP3 DUP5 SUB SLT ISZERO PUSH2 0x1C81 JUMPI PUSH2 0x1C80 PUSH2 0x1805 JUMP JUMPDEST JUMPDEST PUSH0 DUP3 ADD CALLDATALOAD PUSH8 0xFFFFFFFFFFFFFFFF DUP2 GT ISZERO PUSH2 0x1C9E JUMPI PUSH2 0x1C9D PUSH2 0x1809 JUMP JUMPDEST JUMPDEST PUSH2 0x1CAA DUP5 DUP3 DUP6 ADD PUSH2 0x19CF JUMP JUMPDEST SWAP2 POP POP SWAP3 SWAP2 POP POP JUMP JUMPDEST PUSH0 PUSH1 0x20 DUP3 DUP5 SUB SLT ISZERO PUSH2 0x1CC8 JUMPI PUSH2 0x1CC7 PUSH2 0x1805 JUMP JUMPDEST JUMPDEST PUSH0 PUSH2 0x1CD5 DUP5 DUP3 DUP6 ADD PUSH2 0x1A42 JUMP JUMPDEST SWAP2 POP POP SWAP3 SWAP2 POP POP JUMP JUMPDEST PUSH2 0x1CE7 DUP2 PUSH2 0x188D JUMP JUMPDEST DUP2 EQ PUSH2 0x1CF1 JUMPI PUSH0 DUP1 REVERT JUMPDEST POP JUMP JUMPDEST PUSH0 DUP2 CALLDATALOAD SWAP1 POP PUSH2 0x1D02 DUP2 PUSH2 0x1CDE JUMP JUMPDEST SWAP3 SWAP2 POP POP JUMP JUMPDEST PUSH0 DUP1 PUSH1 0x40 DUP4 DUP6 SUB SLT ISZERO PUSH2 0x1D1E JUMPI PUSH2 0x1D1D PUSH2 0x1805 JUMP JUMPDEST JUMPDEST PUSH0 PUSH2 0x1D2B DUP6 DUP3 DUP7 ADD PUSH2 0x1A42 JUMP JUMPDEST SWAP3 POP POP PUSH1 0x20 PUSH2 0x1D3C DUP6 DUP3 DUP7 ADD PUSH2 0x1CF4 JUMP JUMPDEST SWAP2 POP POP SWAP3 POP SWAP3 SWAP1 POP JUMP JUMPDEST PUSH0 PUSH8 0xFFFFFFFFFFFFFFFF DUP3 GT ISZERO PUSH2 0x1D60 JUMPI PUSH2 0x1D5F PUSH2 0x18D8 JUMP JUMPDEST JUMPDEST PUSH2 0x1D69 DUP3 PUSH2 0x18C8 JUMP JUMPDEST SWAP1 POP PUSH1 0x20 DUP2 ADD SWAP1 POP SWAP2 SWAP1 POP JUMP JUMPDEST PUSH0 PUSH2 0x1D88 PUSH2 0x1D83 DUP5 PUSH2 0x1D46 JUMP JUMPDEST PUSH2 0x1936 JUMP JUMPDEST SWAP1 POP DUP3 DUP2 MSTORE PUSH1 0x20 DUP2 ADD DUP5 DUP5 DUP5 ADD GT ISZERO PUSH2 0x1DA4 JUMPI PUSH2 0x1DA3 PUSH2 0x18C4 JUMP JUMPDEST JUMPDEST PUSH2 0x1DAF DUP5 DUP3 DUP6 PUSH2 0x1980 JUMP JUMPDEST POP SWAP4 SWAP3 POP POP POP JUMP JUMPDEST PUSH0 DUP3 PUSH1 0x1F DUP4 ADD SLT PUSH2 0x1DCB JUMPI PUSH2 0x1DCA PUSH2 0x18C0 JUMP JUMPDEST JUMPDEST DUP2 CALLDATALOAD PUSH2 0x1DDB DUP5 DUP3 PUSH1 0x20 DUP7 ADD PUSH2 0x1D76 JUMP JUMPDEST SWAP2 POP POP SWAP3 SWAP2 POP POP JUMP JUMPDEST PUSH0 DUP1 PUSH0 DUP1 PUSH1 0x80 DUP6 DUP8 SUB SLT ISZERO PUSH2 0x1DFC JUMPI PUSH2 0x1DFB PUSH2 0x1805 JUMP JUMPDEST JUMPDEST PUSH0 PUSH2 0x1E09 DUP8 DUP3 DUP9 ADD PUSH2 0x1A42 JUMP JUMPDEST SWAP5 POP POP PUSH1 0x20 PUSH2 0x1E1A DUP8 DUP3 DUP9 ADD PUSH2 0x1A42 JUMP JUMPDEST SWAP4 POP POP PUSH1 0x40 PUSH2 0x1E2B DUP8 DUP3 DUP9 ADD PUSH2 0x1B77 JUMP JUMPDEST SWAP3 POP POP PUSH1 0x60 DUP6 ADD CALLDATALOAD PUSH8 0xFFFFFFFFFFFFFFFF DUP2 GT ISZERO PUSH2 0x1E4C JUMPI PUSH2 0x1E4B PUSH2 0x1809 JUMP JUMPDEST JUMPDEST PUSH2 0x1E58 DUP8 DUP3 DUP9 ADD PUSH2 0x1DB7 JUMP JUMPDEST SWAP2 POP POP SWAP3 SWAP6 SWAP2 SWAP5 POP SWAP3 POP JUMP JUMPDEST PUSH0 DUP1 PUSH1 0x40 DUP4 DUP6 SUB SLT ISZERO PUSH2 0x1E7A JUMPI PUSH2 0x1E79 PUSH2 0x1805 JUMP JUMPDEST JUMPDEST PUSH0 PUSH2 0x1E87 DUP6 DUP3 DUP7 ADD PUSH2 0x1A42 JUMP JUMPDEST SWAP3 POP POP PUSH1 0x20 PUSH2 0x1E98 DUP6 DUP3 DUP7 ADD PUSH2 0x1A42 JUMP JUMPDEST SWAP2 POP POP SWAP3 POP SWAP3 SWAP1 POP JUMP JUMPDEST PUSH32 0x4E487B7100000000000000000000000000000000000000000000000000000000 PUSH0 MSTORE PUSH1 0x11 PUSH1 0x4 MSTORE PUSH1 0x24 PUSH0 REVERT JUMPDEST PUSH0 PUSH2 0x1ED9 DUP3 PUSH2 0x1AB0 JUMP JUMPDEST SWAP2 POP PUSH32 0xFFFFFFFFFFFFFFFFFFFFFFFFFFFFFFFFFFFFFFFFFFFFFFFFFFFFFFFFFFFFFFFF DUP3 SUB PUSH2 0x1F0B JUMPI PUSH2 0x1F0A PUSH2 0x1EA2 JUMP JUMPDEST JUMPDEST PUSH1 0x1 DUP3 ADD SWAP1 POP SWAP2 SWAP1 POP JUMP JUMPDEST PUSH32 0x4E487B7100000000000000000000000000000000000000000000000000000000 PUSH0 MSTORE PUSH1 0x22 PUSH1 0x4 MSTORE PUSH1 0x24 PUSH0 REVERT JUMPDEST PUSH0 PUSH1 0x2 DUP3 DIV SWAP1 POP PUSH1 0x1 DUP3 AND DUP1 PUSH2 0x1F5A JUMPI PUSH1 0x7F DUP3 AND SWAP2 POP JUMPDEST PUSH1 0x20 DUP3 LT DUP2 SUB PUSH2 0x1F6D JUMPI PUSH2 0x1F6C PUSH2 0x1F16 JUMP JUMPDEST JUMPDEST POP SWAP2 SWAP1 POP JUMP JUMPDEST PUSH0 PUSH1 0x60 DUP3 ADD SWAP1 POP PUSH2 0x1F86 PUSH0 DUP4 ADD DUP7 PUSH2 0x1BB6 JUMP JUMPDEST PUSH2 0x1F93 PUSH1 0x20 DUP4 ADD DUP6 PUSH2 0x1AB9 JUMP JUMPDEST PUSH2 0x1FA0 PUSH1 0x40 DUP4 ADD DUP5 PUSH2 0x1BB6 JUMP JUMPDEST SWAP5 SWAP4 POP POP POP POP JUMP JUMPDEST PUSH0 DUP2 SWAP1 POP DUP2 PUSH0 MSTORE PUSH1 0x20 PUSH0 KECCAK256 SWAP1 POP SWAP2 SWAP1 POP JUMP JUMPDEST PUSH0 PUSH1 0x20 PUSH1 0x1F DUP4 ADD DIV SWAP1 POP SWAP2 SWAP1 POP JUMP JUMPDEST PUSH0 DUP3 DUP3 SHL SWAP1 POP SWAP3 SWAP2 POP POP JUMP JUMPDEST PUSH0 PUSH1 0x8 DUP4 MUL PUSH2 0x2004 PUSH32 0xFFFFFFFFFFFFFFFFFFFFFFFFFFFFFFFFFFFFFFFFFFFFFFFFFFFFFFFFFFFFFFFF DUP3 PUSH2 0x1FC9 JUMP JUMPDEST PUSH2 0x200E DUP7 DUP4 PUSH2 0x1FC9 JUMP JUMPDEST SWAP6 POP DUP1 NOT DUP5 AND SWAP4 POP DUP1 DUP7 AND DUP5 OR SWAP3 POP POP POP SWAP4 SWAP3 POP POP POP JUMP JUMPDEST PUSH0 DUP2 SWAP1 POP SWAP2 SWAP1 POP JUMP JUMPDEST PUSH0 PUSH2 0x2049 PUSH2 0x2044 PUSH2 0x203F DUP5 PUSH2 0x1AB0 JUMP JUMPDEST PUSH2 0x2026 JUMP JUMPDEST PUSH2 0x1AB0 JUMP JUMPDEST SWAP1 POP SWAP2 SWAP1 POP JUMP JUMPDEST PUSH0 DUP2 SWAP1 POP SWAP2 SWAP1 POP JUMP JUMPDEST PUSH2 0x2062 DUP4 PUSH2 0x202F JUMP JUMPDEST PUSH2 0x2076 PUSH2 0x206E DUP3 PUSH2 0x2050 JUMP JUMPDEST DUP5 DUP5 SLOAD PUSH2 0x1FD5 JUMP JUMPDEST DUP3 SSTORE POP POP POP POP JUMP JUMPDEST PUSH0 SWAP1 JUMP JUMPDEST PUSH2 0x208A PUSH2 0x207E JUMP JUMPDEST PUSH2 0x2095 DUP2 DUP5 DUP5 PUSH2 0x2059 JUMP JUMPDEST POP POP POP JUMP JUMPDEST JUMPDEST DUP2 DUP2 LT ISZERO PUSH2 0x20B8 JUMPI PUSH2 0x20AD PUSH0 DUP3 PUSH2 0x2082 JUMP JUMPDEST PUSH1 0x1 DUP2 ADD SWAP1 POP PUSH2 0x209B JUMP JUMPDEST POP POP JUMP JUMPDEST PUSH1 0x1F DUP3 GT ISZERO PUSH2 0x20FD JUMPI PUSH2 0x20CE DUP2 PUSH2 0x1FA8 JUMP JUMPDEST PUSH2 0x20D7 DUP5 PUSH2 0x1FBA JUMP JUMPDEST DUP2 ADD PUSH1 0x20 DUP6 LT ISZERO PUSH2 0x20E6 JUMPI DUP2 SWAP1 POP JUMPDEST PUSH2 0x20FA PUSH2 0x20F2 DUP6 PUSH2 0x1FBA JUMP JUMPDEST DUP4 ADD DUP3 PUSH2 0x209A JUMP JUMPDEST POP POP JUMPDEST POP POP POP JUMP JUMPDEST PUSH0 DUP3 DUP3 SHR SWAP1 POP SWAP3 SWAP2 POP POP JUMP JUMPDEST PUSH0 PUSH2 0x211D PUSH0 NOT DUP5 PUSH1 0x8 MUL PUSH2 0x2102 JUMP JUMPDEST NOT DUP1 DUP4 AND SWAP2 POP POP SWAP3 SWAP2 POP POP JUMP JUMPDEST PUSH0 PUSH2 0x2135 DUP4 DUP4 PUSH2 0x210E JUMP JUMPDEST SWAP2 POP DUP3 PUSH1 0x2 MUL DUP3 OR SWAP1 POP SWAP3 SWAP2 POP POP JUMP JUMPDEST PUSH2 0x214E DUP3 PUSH2 0x1AE1 JUMP JUMPDEST PUSH8 0xFFFFFFFFFFFFFFFF DUP2 GT ISZERO PUSH2 0x2167 JUMPI PUSH2 0x2166 PUSH2 0x18D8 JUMP JUMPDEST JUMPDEST PUSH2 0x2171 DUP3 SLOAD PUSH2 0x1F43 JUMP JUMPDEST PUSH2 0x217C DUP3 DUP3 DUP6 PUSH2 0x20BC JUMP JUMPDEST PUSH0 PUSH1 0x20 SWAP1 POP PUSH1 0x1F DUP4 GT PUSH1 0x1 DUP2 EQ PUSH2 0x21AD JUMPI PUSH0 DUP5 ISZERO PUSH2 0x219B JUMPI DUP3 DUP8 ADD MLOAD SWAP1 POP JUMPDEST PUSH2 0x21A5 DUP6 DUP3 PUSH2 0x212A JUMP JUMPDEST DUP7 SSTORE POP PUSH2 0x220C JUMP JUMPDEST PUSH1 0x1F NOT DUP5 AND PUSH2 0x21BB DUP7 PUSH2 0x1FA8 JUMP JUMPDEST PUSH0 JUMPDEST DUP3 DUP2 LT ISZERO PUSH2 0x21E2 JUMPI DUP5 DUP10 ADD MLOAD DUP3 SSTORE PUSH1 0x1 DUP3 ADD SWAP2 POP PUSH1 0x20 DUP6 ADD SWAP5 POP PUSH1 0x20 DUP2 ADD SWAP1 POP PUSH2 0x21BD JUMP JUMPDEST DUP7 DUP4 LT ISZERO PUSH2 0x21FF JUMPI DUP5 DUP10 ADD MLOAD PUSH2 0x21FB PUSH1 0x1F DUP10 AND DUP3 PUSH2 0x210E JUMP JUMPDEST DUP4 SSTORE POP JUMPDEST PUSH1 0x1 PUSH1 0x2 DUP9 MUL ADD DUP9 SSTORE POP POP POP JUMPDEST POP POP POP POP POP POP JUMP JUMPDEST PUSH0 DUP2 SWAP1 POP SWAP3 SWAP2 POP POP JUMP JUMPDEST PUSH0 PUSH2 0x2228 DUP3 PUSH2 0x1AE1 JUMP JUMPDEST PUSH2 0x2232 DUP2 DUP6 PUSH2 0x2214 JUMP JUMPDEST SWAP4 POP PUSH2 0x2242 DUP2 DUP6 PUSH1 0x20 DUP7 ADD PUSH2 0x1AFB JUMP JUMPDEST DUP1 DUP5 ADD SWAP2 POP POP SWAP3 SWAP2 POP POP JUMP JUMPDEST PUSH0 PUSH2 0x2259 DUP3 DUP6 PUSH2 0x221E JUMP JUMPDEST SWAP2 POP PUSH2 0x2265 DUP3 DUP5 PUSH2 0x221E JUMP JUMPDEST SWAP2 POP DUP2 SWAP1 POP SWAP4 SWAP3 POP POP POP JUMP JUMPDEST PUSH0 DUP2 MLOAD SWAP1 POP SWAP2 SWAP1 POP JUMP JUMPDEST PUSH0 DUP3 DUP3 MSTORE PUSH1 0x20 DUP3 ADD SWAP1 POP SWAP3 SWAP2 POP POP JUMP JUMPDEST PUSH0 PUSH2 0x2295 DUP3 PUSH2 0x2271 JUMP JUMPDEST PUSH2 0x229F DUP2 DUP6 PUSH2 0x227B JUMP JUMPDEST SWAP4 POP PUSH2 0x22AF DUP2 DUP6 PUSH1 0x20 DUP7 ADD PUSH2 0x1AFB JUMP JUMPDEST PUSH2 0x22B8 DUP2 PUSH2 0x18C8 JUMP JUMPDEST DUP5 ADD SWAP2 POP POP SWAP3 SWAP2 POP POP JUMP JUMPDEST PUSH0 PUSH1 0x80 DUP3 ADD SWAP1 POP PUSH2 0x22D6 PUSH0 DUP4 ADD DUP8 PUSH2 0x1BB6 JUMP JUMPDEST PUSH2 0x22E3 PUSH1 0x20 DUP4 ADD DUP7 PUSH2 0x1BB6 JUMP JUMPDEST PUSH2 0x22F0 PUSH1 0x40 DUP4 ADD DUP6 PUSH2 0x1AB9 JUMP JUMPDEST DUP2 DUP2 SUB PUSH1 0x60 DUP4 ADD MSTORE PUSH2 0x2302 DUP2 DUP5 PUSH2 0x228B JUMP JUMPDEST SWAP1 POP SWAP6 SWAP5 POP POP POP POP POP JUMP JUMPDEST PUSH0 DUP2 MLOAD SWAP1 POP PUSH2 0x231B DUP2 PUSH2 0x1838 JUMP JUMPDEST SWAP3 SWAP2 POP POP JUMP JUMPDEST PUSH0 PUSH1 0x20 DUP3 DUP5 SUB SLT ISZERO PUSH2 0x2336 JUMPI PUSH2 0x2335 PUSH2 0x1805 JUMP JUMPDEST JUMPDEST PUSH0 PUSH2 0x2343 DUP5 DUP3 DUP6 ADD PUSH2 0x230D JUMP JUMPDEST SWAP2 POP POP SWAP3 SWAP2 POP POP JUMP JUMPDEST PUSH0 PUSH1 0x40 DUP3 ADD SWAP1 POP PUSH2 0x235F PUSH0 DUP4 ADD DUP6 PUSH2 0x1BB6 JUMP JUMPDEST PUSH2 0x236C PUSH1 0x20 DUP4 ADD DUP5 PUSH2 0x1AB9 JUMP JUMPDEST SWAP4 SWAP3 POP POP POP JUMP JUMPDEST PUSH32 0x4E487B7100000000000000000000000000000000000000000000000000000000 PUSH0 MSTORE PUSH1 0x12 PUSH1 0x4 MSTORE PUSH1 0x24 PUSH0 REVERT INVALID LOG2 PUSH5 0x6970667358 0x22 SLT KECCAK256 0xD0 CALLDATASIZE PUSH16 0x2276290BA0EA43095C73AD9BBBE23D02 0xD8 0x4F SELFDESTRUCT MULMOD SELFBALANCE 0xCA DUP12 0xCF SHL SSTORE MCOPY PUSH26 0xE764736F6C634300081900330000000000000000000000000000 "
				},
				"gasEstimates": {
					"creation": {
						"codeDepositCost": "1834800",
						"executionCost": "infinite",
						"totalCost": "infinite"
					},
					"external": {
						"approve(address,uint256)": "infinite",
						"balanceOf(address)": "infinite",
						"getApproved(uint256)": "infinite",
						"isApprovedForAll(address,address)": "infinite",
						"mintNFT(string,address)": "infinite",
						"name()": "infinite",
						"ownerOf(uint256)": "infinite",
						"safeTransferFrom(address,address,uint256)": "infinite",
						"safeTransferFrom(address,address,uint256,bytes)": "infinite",
						"setApprovalForAll(address,bool)": "infinite",
						"setBaseURI(string)": "infinite",
						"supportsInterface(bytes4)": "881",
						"symbol()": "infinite",
						"tokenURI(uint256)": "infinite",
						"transferFrom(address,address,uint256)": "infinite"
					},
					"internal": {
						"_baseURI()": "infinite"
					}
				},
				"methodIdentifiers": {
					"approve(address,uint256)": "095ea7b3",
					"balanceOf(address)": "70a08231",
					"getApproved(uint256)": "081812fc",
					"isApprovedForAll(address,address)": "e985e9c5",
					"mintNFT(string,address)": "04f32279",
					"name()": "06fdde03",
					"ownerOf(uint256)": "6352211e",
					"safeTransferFrom(address,address,uint256)": "42842e0e",
					"safeTransferFrom(address,address,uint256,bytes)": "b88d4fde",
					"setApprovalForAll(address,bool)": "a22cb465",
					"setBaseURI(string)": "55f804b3",
					"supportsInterface(bytes4)": "01ffc9a7",
					"symbol()": "95d89b41",
					"tokenURI(uint256)": "c87b56dd",
					"transferFrom(address,address,uint256)": "23b872dd"
				}
			},
			"storageLayout": {
				"storage": [
					{
						"astId": 201,
						"contract": "SportNFT.sol:SportNft",
						"label": "_name",
						"offset": 0,
						"slot": "0",
						"type": "t_string_storage"
					},
					{
						"astId": 203,
						"contract": "SportNFT.sol:SportNft",
						"label": "_symbol",
						"offset": 0,
						"slot": "1",
						"type": "t_string_storage"
					},
					{
						"astId": 207,
						"contract": "SportNFT.sol:SportNft",
						"label": "_owners",
						"offset": 0,
						"slot": "2",
						"type": "t_mapping(t_uint256,t_address)"
					},
					{
						"astId": 211,
						"contract": "SportNFT.sol:SportNft",
						"label": "_balances",
						"offset": 0,
						"slot": "3",
						"type": "t_mapping(t_address,t_uint256)"
					},
					{
						"astId": 215,
						"contract": "SportNFT.sol:SportNft",
						"label": "_tokenApprovals",
						"offset": 0,
						"slot": "4",
						"type": "t_mapping(t_uint256,t_address)"
					},
					{
						"astId": 221,
						"contract": "SportNFT.sol:SportNft",
						"label": "_operatorApprovals",
						"offset": 0,
						"slot": "5",
						"type": "t_mapping(t_address,t_mapping(t_address,t_bool))"
					},
					{
						"astId": 1340,
						"contract": "SportNFT.sol:SportNft",
						"label": "_tokenURIs",
						"offset": 0,
						"slot": "6",
						"type": "t_mapping(t_uint256,t_string_storage)"
					},
					{
						"astId": 2954,
						"contract": "SportNFT.sol:SportNft",
						"label": "_tokenIds",
						"offset": 0,
						"slot": "7",
						"type": "t_uint256"
					},
					{
						"astId": 2956,
						"contract": "SportNFT.sol:SportNft",
						"label": "_baseTokenURI",
						"offset": 0,
						"slot": "8",
						"type": "t_string_storage"
					}
				],
				"types": {
					"t_address": {
						"encoding": "inplace",
						"label": "address",
						"numberOfBytes": "20"
					},
					"t_bool": {
						"encoding": "inplace",
						"label": "bool",
						"numberOfBytes": "1"
					},
					"t_mapping(t_address,t_bool)": {
						"encoding": "mapping",
						"key": "t_address",
						"label": "mapping(address => bool)",
						"numberOfBytes": "32",
						"value": "t_bool"
					},
					"t_mapping(t_address,t_mapping(t_address,t_bool))": {
						"encoding": "mapping",
						"key": "t_address",
						"label": "mapping(address => mapping(address => bool))",
						"numberOfBytes": "32",
						"value": "t_mapping(t_address,t_bool)"
					},
					"t_mapping(t_address,t_uint256)": {
						"encoding": "mapping",
						"key": "t_address",
						"label": "mapping(address => uint256)",
						"numberOfBytes": "32",
						"value": "t_uint256"
					},
					"t_mapping(t_uint256,t_address)": {
						"encoding": "mapping",
						"key": "t_uint256",
						"label": "mapping(uint256 => address)",
						"numberOfBytes": "32",
						"value": "t_address"
					},
					"t_mapping(t_uint256,t_string_storage)": {
						"encoding": "mapping",
						"key": "t_uint256",
						"label": "mapping(uint256 => string)",
						"numberOfBytes": "32",
						"value": "t_string_storage"
					},
					"t_string_storage": {
						"encoding": "bytes",
						"label": "string",
						"numberOfBytes": "32"
					},
					"t_uint256": {
						"encoding": "inplace",
						"label": "uint256",
						"numberOfBytes": "32"
					}
				}
			},
			"userdoc": {
				"kind": "user",
				"methods": {},
				"version": 1
			}
		}
	}
}